{
  "contractName": "WeRgame",
  "abi": [
    {
      "inputs": [],
      "stateMutability": "nonpayable",
      "type": "constructor"
    },
    {
      "anonymous": false,
      "inputs": [
        {
          "indexed": true,
          "internalType": "uint256",
          "name": "marketId",
          "type": "uint256"
        },
        {
          "indexed": true,
          "internalType": "address",
          "name": "user",
          "type": "address"
        },
        {
          "indexed": false,
          "internalType": "uint256",
          "name": "amount",
          "type": "uint256"
        }
      ],
      "name": "BoostClaimed",
      "type": "event"
    },
    {
      "anonymous": false,
      "inputs": [
        {
          "indexed": true,
          "internalType": "uint256",
          "name": "marketId",
          "type": "uint256"
        },
        {
          "indexed": true,
          "internalType": "address",
          "name": "user",
          "type": "address"
        },
        {
          "indexed": false,
          "internalType": "uint256",
          "name": "amount",
          "type": "uint256"
        }
      ],
      "name": "BoostStakeAdded",
      "type": "event"
    },
    {
      "anonymous": false,
      "inputs": [
        {
          "indexed": true,
          "internalType": "uint256",
          "name": "marketId",
          "type": "uint256"
        },
        {
          "indexed": true,
          "internalType": "address",
          "name": "user",
          "type": "address"
        },
        {
          "indexed": false,
          "internalType": "uint256",
          "name": "amount",
          "type": "uint256"
        }
      ],
      "name": "BoostStakeWithdrawn",
      "type": "event"
    },
    {
      "anonymous": false,
      "inputs": [
        {
          "indexed": true,
          "internalType": "uint256",
          "name": "marketId",
          "type": "uint256"
        },
        {
          "indexed": true,
          "internalType": "address",
          "name": "user",
          "type": "address"
        },
        {
          "indexed": false,
          "internalType": "string",
          "name": "outcome",
          "type": "string"
        },
        {
          "indexed": false,
          "internalType": "uint256",
          "name": "amount",
          "type": "uint256"
        }
      ],
      "name": "BoostStaked",
      "type": "event"
    },
    {
      "anonymous": false,
      "inputs": [
        {
          "indexed": false,
          "internalType": "uint256",
          "name": "amount",
          "type": "uint256"
        }
      ],
      "name": "ClaimPredictionWinsPoolFunded",
      "type": "event"
    },
    {
      "anonymous": false,
      "inputs": [
        {
          "indexed": true,
          "internalType": "address",
          "name": "to",
          "type": "address"
        },
        {
          "indexed": false,
          "internalType": "uint256",
          "name": "amount",
          "type": "uint256"
        }
      ],
      "name": "ClaimPredictionWinsPoolWithdrawn",
      "type": "event"
    },
    {
      "anonymous": false,
      "inputs": [
        {
          "indexed": false,
          "internalType": "uint256",
          "name": "platformFee",
          "type": "uint256"
        },
        {
          "indexed": false,
          "internalType": "uint256",
          "name": "boostJackpotFee",
          "type": "uint256"
        },
        {
          "indexed": false,
          "internalType": "uint256",
          "name": "marketPlatformFee",
          "type": "uint256"
        },
        {
          "indexed": false,
          "internalType": "uint256",
          "name": "freeJackpotFee",
          "type": "uint256"
        }
      ],
      "name": "FeesUpdated",
      "type": "event"
    },
    {
      "anonymous": false,
      "inputs": [
        {
          "indexed": true,
          "internalType": "address",
          "name": "to",
          "type": "address"
        },
        {
          "indexed": false,
          "internalType": "uint256",
          "name": "amount",
          "type": "uint256"
        }
      ],
      "name": "FundsTransferred",
      "type": "event"
    },
    {
      "anonymous": false,
      "inputs": [
        {
          "indexed": false,
          "internalType": "uint256",
          "name": "amount",
          "type": "uint256"
        }
      ],
      "name": "JackpotFunded",
      "type": "event"
    },
    {
      "anonymous": false,
      "inputs": [
        {
          "indexed": true,
          "internalType": "address",
          "name": "to",
          "type": "address"
        },
        {
          "indexed": false,
          "internalType": "uint256",
          "name": "amount",
          "type": "uint256"
        }
      ],
      "name": "JackpotPoolWithdrawn",
      "type": "event"
    },
    {
      "anonymous": false,
      "inputs": [
        {
          "indexed": true,
          "internalType": "address",
          "name": "user",
          "type": "address"
        },
        {
          "indexed": false,
          "internalType": "uint256",
          "name": "amount",
          "type": "uint256"
        }
      ],
      "name": "JackpotWithdrawn",
      "type": "event"
    },
    {
      "anonymous": false,
      "inputs": [
        {
          "indexed": true,
          "internalType": "uint256",
          "name": "marketId",
          "type": "uint256"
        },
        {
          "indexed": false,
          "internalType": "string",
          "name": "option",
          "type": "string"
        },
        {
          "indexed": false,
          "internalType": "uint256",
          "name": "amount",
          "type": "uint256"
        }
      ],
      "name": "LiquidityAdded",
      "type": "event"
    },
    {
      "anonymous": false,
      "inputs": [
        {
          "indexed": true,
          "internalType": "uint256",
          "name": "marketId",
          "type": "uint256"
        },
        {
          "indexed": true,
          "internalType": "address",
          "name": "user",
          "type": "address"
        },
        {
          "indexed": false,
          "internalType": "string",
          "name": "outcome",
          "type": "string"
        },
        {
          "indexed": false,
          "internalType": "uint256",
          "name": "ethAmount",
          "type": "uint256"
        },
        {
          "indexed": false,
          "internalType": "uint256",
          "name": "shares",
          "type": "uint256"
        }
      ],
      "name": "MarketBought",
      "type": "event"
    },
    {
      "anonymous": false,
      "inputs": [
        {
          "indexed": true,
          "internalType": "uint256",
          "name": "marketId",
          "type": "uint256"
        },
        {
          "indexed": true,
          "internalType": "address",
          "name": "user",
          "type": "address"
        },
        {
          "indexed": false,
          "internalType": "string",
          "name": "outcome",
          "type": "string"
        },
        {
          "indexed": false,
          "internalType": "uint256",
          "name": "amount",
          "type": "uint256"
        }
      ],
      "name": "MarketClaimed",
      "type": "event"
    },
    {
      "anonymous": false,
      "inputs": [
        {
          "indexed": true,
          "internalType": "uint256",
          "name": "marketId",
          "type": "uint256"
        },
        {
          "indexed": false,
          "internalType": "bool",
          "name": "isPoll",
          "type": "bool"
        },
        {
          "indexed": false,
          "internalType": "string[]",
          "name": "options",
          "type": "string[]"
        }
      ],
      "name": "MarketCreated",
      "type": "event"
    },
    {
      "anonymous": false,
      "inputs": [
        {
          "indexed": true,
          "internalType": "uint256",
          "name": "marketId",
          "type": "uint256"
        },
        {
          "indexed": false,
          "internalType": "string",
          "name": "winningOption",
          "type": "string"
        }
      ],
      "name": "MarketResolved",
      "type": "event"
    },
    {
      "anonymous": false,
      "inputs": [
        {
          "indexed": true,
          "internalType": "uint256",
          "name": "marketId",
          "type": "uint256"
        },
        {
          "indexed": true,
          "internalType": "address",
          "name": "user",
          "type": "address"
        },
        {
          "indexed": false,
          "internalType": "string",
          "name": "outcome",
          "type": "string"
        },
        {
          "indexed": false,
          "internalType": "uint256",
          "name": "shares",
          "type": "uint256"
        },
        {
          "indexed": false,
          "internalType": "uint256",
          "name": "ethAmount",
          "type": "uint256"
        }
      ],
      "name": "MarketSold",
      "type": "event"
    },
    {
      "anonymous": false,
      "inputs": [
        {
          "indexed": true,
          "internalType": "uint256",
          "name": "marketId",
          "type": "uint256"
        },
        {
          "indexed": false,
          "internalType": "enum WeRgame.MarketStatus",
          "name": "status",
          "type": "uint8"
        }
      ],
      "name": "MarketStatusUpdated",
      "type": "event"
    },
    {
      "anonymous": false,
      "inputs": [
        {
          "indexed": true,
          "internalType": "uint256",
          "name": "marketId",
          "type": "uint256"
        },
        {
          "indexed": true,
          "internalType": "address",
          "name": "user",
          "type": "address"
        },
        {
          "indexed": false,
          "internalType": "uint256",
          "name": "amount",
          "type": "uint256"
        }
      ],
      "name": "PredictionWinsClaimed",
      "type": "event"
    },
    {
      "stateMutability": "payable",
      "type": "fallback",
      "payable": true
    },
    {
      "inputs": [],
      "name": "boostJackpotFee",
      "outputs": [
        {
          "internalType": "uint256",
          "name": "",
          "type": "uint256"
        }
      ],
      "stateMutability": "view",
      "type": "function",
      "constant": true
    },
    {
      "inputs": [
        {
          "internalType": "uint256",
          "name": "",
          "type": "uint256"
        },
        {
          "internalType": "address",
          "name": "",
          "type": "address"
        },
        {
          "internalType": "string",
          "name": "",
          "type": "string"
        }
      ],
      "name": "boostPredictions",
      "outputs": [
        {
          "internalType": "address",
          "name": "user",
          "type": "address"
        },
        {
          "internalType": "uint256",
          "name": "marketId",
          "type": "uint256"
        },
        {
          "internalType": "string",
          "name": "outcome",
          "type": "string"
        },
        {
          "internalType": "uint256",
          "name": "stakeAmount",
          "type": "uint256"
        },
        {
          "internalType": "uint256",
          "name": "totalStake",
          "type": "uint256"
        },
        {
          "internalType": "bool",
          "name": "claimed",
          "type": "bool"
        }
      ],
      "stateMutability": "view",
      "type": "function",
      "constant": true
    },
    {
      "inputs": [],
      "name": "claimPredictionWinsPool",
      "outputs": [
        {
          "internalType": "uint256",
          "name": "",
          "type": "uint256"
        }
      ],
      "stateMutability": "view",
      "type": "function",
      "constant": true
    },
    {
      "inputs": [
        {
          "internalType": "uint256",
          "name": "",
          "type": "uint256"
        },
        {
          "internalType": "address",
          "name": "",
          "type": "address"
        }
      ],
      "name": "claimableBalances",
      "outputs": [
        {
          "internalType": "uint256",
          "name": "",
          "type": "uint256"
        }
      ],
      "stateMutability": "view",
      "type": "function",
      "constant": true
    },
    {
      "inputs": [],
      "name": "deployer",
      "outputs": [
        {
          "internalType": "address",
          "name": "",
          "type": "address"
        }
      ],
      "stateMutability": "view",
      "type": "function",
      "constant": true
    },
    {
      "inputs": [],
      "name": "freeJackpotFee",
      "outputs": [
        {
          "internalType": "uint256",
          "name": "",
          "type": "uint256"
        }
      ],
      "stateMutability": "view",
      "type": "function",
      "constant": true
    },
    {
      "inputs": [
        {
          "internalType": "address",
          "name": "",
          "type": "address"
        }
      ],
      "name": "jackpotBalances",
      "outputs": [
        {
          "internalType": "uint256",
          "name": "",
          "type": "uint256"
        }
      ],
      "stateMutability": "view",
      "type": "function",
      "constant": true
    },
    {
      "inputs": [],
      "name": "jackpotPool",
      "outputs": [
        {
          "internalType": "uint256",
          "name": "",
          "type": "uint256"
        }
      ],
      "stateMutability": "view",
      "type": "function",
      "constant": true
    },
    {
      "inputs": [],
      "name": "marketPlatformFee",
      "outputs": [
        {
          "internalType": "uint256",
          "name": "",
          "type": "uint256"
        }
      ],
      "stateMutability": "view",
      "type": "function",
      "constant": true
    },
    {
      "inputs": [
        {
          "internalType": "uint256",
          "name": "",
          "type": "uint256"
        },
        {
          "internalType": "address",
          "name": "",
          "type": "address"
        },
        {
          "internalType": "string",
          "name": "",
          "type": "string"
        }
      ],
      "name": "marketPositions",
      "outputs": [
        {
          "internalType": "address",
          "name": "user",
          "type": "address"
        },
        {
          "internalType": "string",
          "name": "outcome",
          "type": "string"
        },
        {
          "internalType": "uint256",
          "name": "shares",
          "type": "uint256"
        },
        {
          "internalType": "uint256",
          "name": "totalInvested",
          "type": "uint256"
        }
      ],
      "stateMutability": "view",
      "type": "function",
      "constant": true
    },
    {
      "inputs": [
        {
          "internalType": "uint256",
          "name": "",
          "type": "uint256"
        }
      ],
      "name": "markets",
      "outputs": [
        {
          "internalType": "uint256",
          "name": "marketId",
          "type": "uint256"
        },
        {
          "internalType": "bool",
          "name": "isPoll",
          "type": "bool"
        },
        {
          "internalType": "enum WeRgame.MarketStatus",
          "name": "status",
          "type": "uint8"
        },
        {
          "internalType": "uint256",
          "name": "totalLiquidity",
          "type": "uint256"
        },
        {
          "internalType": "bool",
          "name": "resolved",
          "type": "bool"
        },
        {
          "internalType": "string",
          "name": "winningOption",
          "type": "string"
        },
        {
          "internalType": "uint256",
          "name": "createdAt",
          "type": "uint256"
        },
        {
          "internalType": "uint256",
          "name": "resolvedAt",
          "type": "uint256"
        }
      ],
      "stateMutability": "view",
      "type": "function",
      "constant": true
    },
    {
      "inputs": [],
      "name": "nextMarketId",
      "outputs": [
        {
          "internalType": "uint256",
          "name": "",
          "type": "uint256"
        }
      ],
      "stateMutability": "view",
      "type": "function",
      "constant": true
    },
    {
      "inputs": [],
      "name": "platformFee",
      "outputs": [
        {
          "internalType": "uint256",
          "name": "",
          "type": "uint256"
        }
      ],
      "stateMutability": "view",
      "type": "function",
      "constant": true
    },
    {
      "inputs": [],
      "name": "superAdmin",
      "outputs": [
        {
          "internalType": "address",
          "name": "",
          "type": "address"
        }
      ],
      "stateMutability": "view",
      "type": "function",
      "constant": true
    },
    {
      "stateMutability": "payable",
      "type": "receive",
      "payable": true
    },
    {
      "inputs": [
        {
          "internalType": "bool",
          "name": "isPoll",
          "type": "bool"
        },
        {
          "internalType": "string[]",
          "name": "options",
          "type": "string[]"
        }
      ],
      "name": "createMarket",
      "outputs": [
        {
          "internalType": "uint256",
          "name": "",
          "type": "uint256"
        }
      ],
      "stateMutability": "nonpayable",
      "type": "function"
    },
    {
      "inputs": [
        {
          "internalType": "uint256",
          "name": "marketId",
          "type": "uint256"
        },
        {
          "internalType": "enum WeRgame.MarketStatus",
          "name": "status",
          "type": "uint8"
        }
      ],
      "name": "updateMarketStatus",
      "outputs": [],
      "stateMutability": "nonpayable",
      "type": "function"
    },
    {
      "inputs": [
        {
          "internalType": "uint256",
          "name": "marketId",
          "type": "uint256"
        },
        {
          "internalType": "string",
          "name": "option",
          "type": "string"
        },
        {
          "internalType": "uint256",
          "name": "amount",
          "type": "uint256"
        }
      ],
      "name": "addLiquidity",
      "outputs": [],
      "stateMutability": "payable",
      "type": "function",
      "payable": true
    },
    {
      "inputs": [
        {
          "internalType": "uint256",
          "name": "marketId",
          "type": "uint256"
        },
        {
          "internalType": "string",
          "name": "winningOption",
          "type": "string"
        }
      ],
      "name": "resolveMarket",
      "outputs": [],
      "stateMutability": "nonpayable",
      "type": "function"
    },
    {
      "inputs": [
        {
          "internalType": "uint256",
          "name": "_platformFee",
          "type": "uint256"
        },
        {
          "internalType": "uint256",
          "name": "_boostJackpotFee",
          "type": "uint256"
        },
        {
          "internalType": "uint256",
          "name": "_marketPlatformFee",
          "type": "uint256"
        },
        {
          "internalType": "uint256",
          "name": "_freeJackpotFee",
          "type": "uint256"
        }
      ],
      "name": "setFees",
      "outputs": [],
      "stateMutability": "nonpayable",
      "type": "function"
    },
    {
      "inputs": [],
      "name": "getFees",
      "outputs": [
        {
          "internalType": "uint256",
          "name": "_platformFee",
          "type": "uint256"
        },
        {
          "internalType": "uint256",
          "name": "_boostJackpotFee",
          "type": "uint256"
        },
        {
          "internalType": "uint256",
          "name": "_marketPlatformFee",
          "type": "uint256"
        },
        {
          "internalType": "uint256",
          "name": "_freeJackpotFee",
          "type": "uint256"
        }
      ],
      "stateMutability": "view",
      "type": "function",
      "constant": true
    },
    {
      "inputs": [
        {
          "internalType": "uint256",
          "name": "marketId",
          "type": "uint256"
        },
        {
          "internalType": "string",
          "name": "outcome",
          "type": "string"
        }
      ],
      "name": "stakeBoost",
      "outputs": [],
      "stateMutability": "payable",
      "type": "function",
      "payable": true
    },
    {
      "inputs": [
        {
          "internalType": "uint256",
          "name": "marketId",
          "type": "uint256"
        },
        {
          "internalType": "string",
          "name": "outcome",
          "type": "string"
        }
      ],
      "name": "addBoostStake",
      "outputs": [],
      "stateMutability": "payable",
      "type": "function",
      "payable": true
    },
    {
      "inputs": [
        {
          "internalType": "uint256",
          "name": "marketId",
          "type": "uint256"
        },
        {
          "internalType": "string",
          "name": "outcome",
          "type": "string"
        },
        {
          "internalType": "uint256",
          "name": "amount",
          "type": "uint256"
        }
      ],
      "name": "withdrawBoostStake",
      "outputs": [],
      "stateMutability": "nonpayable",
      "type": "function"
    },
    {
      "inputs": [
        {
          "internalType": "uint256",
          "name": "marketId",
          "type": "uint256"
        },
        {
          "internalType": "string",
          "name": "outcome",
          "type": "string"
        }
      ],
      "name": "claimBoost",
      "outputs": [],
      "stateMutability": "nonpayable",
      "type": "function"
    },
    {
      "inputs": [
        {
          "internalType": "uint256",
          "name": "marketId",
          "type": "uint256"
        },
        {
          "internalType": "address",
          "name": "user",
          "type": "address"
        },
        {
          "internalType": "uint256",
          "name": "amount",
          "type": "uint256"
        }
      ],
      "name": "setClaimableBalance",
      "outputs": [],
      "stateMutability": "nonpayable",
      "type": "function"
    },
    {
      "inputs": [
        {
          "internalType": "uint256",
          "name": "marketId",
          "type": "uint256"
        }
      ],
      "name": "claimPredictionWins",
      "outputs": [],
      "stateMutability": "nonpayable",
      "type": "function"
    },
    {
      "inputs": [],
      "name": "fundClaimPredictionWinsPool",
      "outputs": [],
      "stateMutability": "payable",
      "type": "function",
      "payable": true
    },
    {
      "inputs": [
        {
          "internalType": "address payable",
          "name": "to",
          "type": "address"
        },
        {
          "internalType": "uint256",
          "name": "amount",
          "type": "uint256"
        }
      ],
      "name": "withdrawFromClaimPredictionWinsPool",
      "outputs": [],
      "stateMutability": "nonpayable",
      "type": "function"
    },
    {
      "inputs": [
        {
          "internalType": "uint256",
          "name": "marketId",
          "type": "uint256"
        },
        {
          "internalType": "string",
          "name": "outcome",
          "type": "string"
        }
      ],
      "name": "buyMarketShares",
      "outputs": [],
      "stateMutability": "payable",
      "type": "function",
      "payable": true
    },
    {
      "inputs": [
        {
          "internalType": "uint256",
          "name": "marketId",
          "type": "uint256"
        },
        {
          "internalType": "string",
          "name": "outcome",
          "type": "string"
        },
        {
          "internalType": "uint256",
          "name": "shares",
          "type": "uint256"
        }
      ],
      "name": "sellMarketShares",
      "outputs": [],
      "stateMutability": "nonpayable",
      "type": "function"
    },
    {
      "inputs": [
        {
          "internalType": "uint256",
          "name": "marketId",
          "type": "uint256"
        },
        {
          "internalType": "string",
          "name": "outcome",
          "type": "string"
        }
      ],
      "name": "claimMarket",
      "outputs": [],
      "stateMutability": "nonpayable",
      "type": "function"
    },
    {
      "inputs": [
        {
          "internalType": "uint256",
          "name": "marketId",
          "type": "uint256"
        },
        {
          "internalType": "string",
          "name": "outcome",
          "type": "string"
        }
      ],
      "name": "getPrice",
      "outputs": [
        {
          "internalType": "uint256",
          "name": "",
          "type": "uint256"
        }
      ],
      "stateMutability": "view",
      "type": "function",
      "constant": true
    },
    {
      "inputs": [
        {
          "internalType": "uint256",
          "name": "marketId",
          "type": "uint256"
        },
        {
          "internalType": "address",
          "name": "user",
          "type": "address"
        },
        {
          "internalType": "string",
          "name": "outcome",
          "type": "string"
        }
      ],
      "name": "getUserPosition",
      "outputs": [
        {
          "internalType": "uint256",
          "name": "shares",
          "type": "uint256"
        },
        {
          "internalType": "uint256",
          "name": "totalInvested",
          "type": "uint256"
        }
      ],
      "stateMutability": "view",
      "type": "function",
      "constant": true
    },
    {
      "inputs": [
        {
          "internalType": "uint256",
          "name": "marketId",
          "type": "uint256"
        },
        {
          "internalType": "address",
          "name": "user",
          "type": "address"
        },
        {
          "internalType": "string",
          "name": "outcome",
          "type": "string"
        }
      ],
      "name": "getBoostPrediction",
      "outputs": [
        {
          "internalType": "address",
          "name": "_user",
          "type": "address"
        },
        {
          "internalType": "uint256",
          "name": "_totalStake",
          "type": "uint256"
        },
        {
          "internalType": "bool",
          "name": "_claimed",
          "type": "bool"
        }
      ],
      "stateMutability": "view",
      "type": "function",
      "constant": true
    },
    {
      "inputs": [],
      "name": "fundJackpotPool",
      "outputs": [],
      "stateMutability": "payable",
      "type": "function",
      "payable": true
    },
    {
      "inputs": [
        {
          "internalType": "uint256",
          "name": "amount",
          "type": "uint256"
        }
      ],
      "name": "withdrawJackpot",
      "outputs": [],
      "stateMutability": "nonpayable",
      "type": "function"
    },
    {
      "inputs": [
        {
          "internalType": "address",
          "name": "user",
          "type": "address"
        },
        {
          "internalType": "uint256",
          "name": "amount",
          "type": "uint256"
        }
      ],
      "name": "setJackpotBalance",
      "outputs": [],
      "stateMutability": "nonpayable",
      "type": "function"
    },
    {
      "inputs": [
        {
          "internalType": "address payable",
          "name": "to",
          "type": "address"
        },
        {
          "internalType": "uint256",
          "name": "amount",
          "type": "uint256"
        }
      ],
      "name": "withdrawFromJackpotPool",
      "outputs": [],
      "stateMutability": "nonpayable",
      "type": "function"
    },
    {
      "inputs": [],
      "name": "getContractBalance",
      "outputs": [
        {
          "internalType": "uint256",
          "name": "",
          "type": "uint256"
        }
      ],
      "stateMutability": "view",
      "type": "function",
      "constant": true
    },
    {
      "inputs": [
        {
          "internalType": "address payable",
          "name": "to",
          "type": "address"
        },
        {
          "internalType": "uint256",
          "name": "amount",
          "type": "uint256"
        }
      ],
      "name": "transferFunds",
      "outputs": [],
      "stateMutability": "nonpayable",
      "type": "function"
    },
    {
      "inputs": [
        {
          "internalType": "address",
          "name": "_superAdmin",
          "type": "address"
        }
      ],
      "name": "setSuperAdmin",
      "outputs": [],
      "stateMutability": "nonpayable",
      "type": "function"
    },
    {
      "inputs": [
        {
          "internalType": "address",
          "name": "user",
          "type": "address"
        }
      ],
      "name": "getJackpotBalance",
      "outputs": [
        {
          "internalType": "uint256",
          "name": "",
          "type": "uint256"
        }
      ],
      "stateMutability": "view",
      "type": "function",
      "constant": true
    },
    {
      "inputs": [
        {
          "internalType": "uint256",
          "name": "marketId",
          "type": "uint256"
        },
        {
          "internalType": "address",
          "name": "user",
          "type": "address"
        }
      ],
      "name": "getClaimableBalance",
      "outputs": [
        {
          "internalType": "uint256",
          "name": "",
          "type": "uint256"
        }
      ],
      "stateMutability": "view",
      "type": "function",
      "constant": true
    }
  ],
  "bytecode": "0x60806040525f600e55348015610013575f80fd5b505f8054336001600160a01b031991821681178355600180549092161781556103e86002556101f460038190556004819055600555600b55613f5c90819061005a90395ff3fe608060405260043610610247575f3560e01c80639f1d024611610137578063c75bb724116100af578063dcc8dee911610076578063dcc8dee91461072a578063de9a814514610749578063eae90d7914610751578063f87dd74b14610764578063f95d530b146107a5578063fbf91a14146107c457005b8063c75bb72414610681578063ce1ea42b146106a0578063d437441e146106bf578063d5f39488146106d4578063db8d55f1146106f257005b8063b2e12adc116100fe578063b2e12adc146105b2578063b3e60a26146105c5578063bd0237b11461060b578063c01744e91461062a578063c1730ee11461063d578063c4fe75471461066e57005b80639f1d0246146104f8578063a2ddbca514610517578063b00e039514610536578063b05b32ae1461056a578063b1283e771461057f57005b80633577392e116101ca5780636822d823116101915780636822d8231461043f578063698d2d761461046a5780636f9fb98a146104895780636fcba3771461049b5780638f1d271c146104ba578063990dc9db146104d957005b80633577392e146103a35780633ed72408146103d7578063406ef2ef146103f657806348d0eca21461040b578063663370c11461042a57005b8063157000521161020e57806315700052146102ea57806318bb1f291461030957806326232a2e14610338578063277c02aa1461034d57806329575f6a1461036c57005b8063012e293814610250578063019d66941461026f5780630325bbe8146102b857806312497adb146102cd57806314f9e3aa146102e257005b3661024e57005b005b34801561025b575f80fd5b5061024e61026a366004613604565b6107e3565b34801561027a575f80fd5b506102a561028936600461365f565b600960209081525f928352604080842090915290825290205481565b6040519081526020015b60405180910390f35b3480156102c3575f80fd5b506102a560045481565b3480156102d8575f80fd5b506102a5600d5481565b61024e610b2c565b3480156102f5575f80fd5b5061024e61030436600461368d565b610bc0565b348015610314575f80fd5b506103286103233660046136af565b610c8a565b6040516102af9493929190613751565b348015610343575f80fd5b506102a560025481565b348015610358575f80fd5b5061024e610367366004613787565b610d68565b348015610377575f80fd5b5060015461038b906001600160a01b031681565b6040516001600160a01b0390911681526020016102af565b3480156103ae575f80fd5b506103c26103bd3660046136af565b610dac565b604080519283526020830191909152016102af565b3480156103e2575f80fd5b5061024e6103f13660046137b1565b610e33565b348015610401575f80fd5b506102a5600b5481565b348015610416575f80fd5b5061024e6104253660046137fd565b6110ae565b348015610435575f80fd5b506102a560035481565b34801561044a575f80fd5b506102a561045936600461368d565b600a6020525f908152604090205481565b348015610475575f80fd5b506102a5610484366004613604565b611175565b348015610494575f80fd5b50476102a5565b3480156104a6575f80fd5b5061024e6104b5366004613823565b61121d565b3480156104c5575f80fd5b5061024e6104d4366004613852565b61135b565b3480156104e4575f80fd5b5061024e6104f3366004613787565b6116c2565b348015610503575f80fd5b506102a5610512366004613869565b6117e5565b348015610522575f80fd5b5061024e610531366004613787565b6119be565b348015610541575f80fd5b506102a561055036600461368d565b6001600160a01b03165f908152600a602052604090205490565b348015610575575f80fd5b506102a5600c5481565b34801561058a575f80fd5b5061059e610599366004613852565b611b2a565b6040516102af989796959493929190613973565b61024e6105c0366004613604565b611bfe565b3480156105d0575f80fd5b506105e46105df3660046136af565b611eb2565b604080516001600160a01b03909416845260208401929092521515908201526060016102af565b348015610616575f80fd5b5061024e610625366004613787565b611f4f565b61024e6106383660046137b1565b6120f4565b348015610648575f80fd5b5061065c6106573660046136af565b61235b565b6040516102af969594939291906139c7565b61024e61067c366004613604565b61244a565b34801561068c575f80fd5b5061024e61069b366004613604565b612800565b3480156106ab575f80fd5b5061024e6106ba366004613852565b6129ea565b3480156106ca575f80fd5b506102a560055481565b3480156106df575f80fd5b505f5461038b906001600160a01b031681565b3480156106fd575f80fd5b506002546003546004546005546040805194855260208501939093529183015260608201526080016102af565b348015610735575f80fd5b5061024e610744366004613a0d565b612bb0565b61024e612bfe565b61024e61075f366004613604565b612c8c565b34801561076f575f80fd5b506102a561077e36600461365f565b5f9182526009602090815260408084206001600160a01b0393909316845291905290205490565b3480156107b0575f80fd5b5061024e6107bf366004613604565b612e97565b3480156107cf575f80fd5b5061024e6107de3660046137b1565b613177565b5f828152600660205260408120548391036108195760405162461bcd60e51b815260040161081090613a42565b60405180910390fd5b600e54156108395760405162461bcd60e51b815260040161081090613a71565b6001600e555f8381526006602081905260409091209081015460ff166108715760405162461bcd60e51b815260040161081090613aa8565b82516020840120604051610889906007840190613b0d565b6040518091039020146108d45760405162461bcd60e51b81526020600482015260136024820152724e6f742077696e6e696e67206f7574636f6d6560681b6044820152606401610810565b5f84815260076020908152604080832033845290915280822090516108fa908690613b7f565b90815260405190819003602001902080549091506001600160a01b0316331461095b5760405162461bcd60e51b8152602060048201526013602482015272139bc81c1c99591a58dd1a5bdb88199bdd5b99606a1b6044820152606401610810565b600581015460ff16156109a25760405162461bcd60e51b815260206004820152600f60248201526e105b1c9958591e4818db185a5b5959608a1b6044820152606401610810565b5f8160040154116109e95760405162461bcd60e51b81526020600482015260116024820152704e6f207374616b6520746f20636c61696d60781b6044820152606401610810565b5f85815260096020908152604080832033845290915290205480610a1f5760405162461bcd60e51b815260040161081090613b9a565b80600d541015610a415760405162461bcd60e51b815260040161081090613bc8565b60058201805460ff191660011790555f8681526009602090815260408083203384529091528120819055600d8054839290610a7d908490613c13565b90915550506040515f90339083908381818185875af1925050503d805f8114610ac1576040519150601f19603f3d011682016040523d82523d5f602084013e610ac6565b606091505b5050905080610ae75760405162461bcd60e51b815260040161081090613c26565b604051828152339088907f20e28d0ec25cd6e7b3ce931db96b9a33e940a54a32e1c0b8379e7660a2828c69906020015b60405180910390a350505f600e555050505050565b5f546001600160a01b03163314610b555760405162461bcd60e51b815260040161081090613c4f565b5f3411610b745760405162461bcd60e51b815260040161081090613c76565b34600d5f828254610b859190613cad565b90915550506040513481527f4986ef868ee9659d51f041598f943aa46a8bd02efd1912472d5990a090d37321906020015b60405180910390a1565b6001546001600160a01b0316331480610be257505f546001600160a01b031633145b610c205760405162461bcd60e51b815260206004820152600f60248201526e27b7363c9039bab832b920b236b4b760891b6044820152606401610810565b6001600160a01b038116610c685760405162461bcd60e51b815260206004820152600f60248201526e496e76616c6964206164647265737360881b6044820152606401610810565b600180546001600160a01b0319166001600160a01b0392909216919091179055565b600860209081525f9384526040808520825292845291909220825180840183018051928152908301939092019290922091905280546001820180546001600160a01b039092169291610cdb90613ad5565b80601f0160208091040260200160405190810160405280929190818152602001828054610d0790613ad5565b8015610d525780601f10610d2957610100808354040283529160200191610d52565b820191905f5260205f20905b815481529060010190602001808311610d3557829003601f168201915b5050505050908060020154908060030154905084565b5f546001600160a01b03163314610d915760405162461bcd60e51b815260040161081090613c4f565b6001600160a01b039091165f908152600a6020526040902055565b5f83815260066020526040812054819085908203610ddc5760405162461bcd60e51b815260040161081090613a42565b5f8681526008602090815260408083206001600160a01b03891684529091528082209051610e0b908790613b7f565b9081526020016040518091039020905080600201548160030154935093505050935093915050565b5f83815260066020526040812054849103610e605760405162461bcd60e51b815260040161081090613a42565b600e5415610e805760405162461bcd60e51b815260040161081090613a71565b6001600e555f848152600660205260408120906001820154610100900460ff166003811115610eb157610eb161393f565b1480610ed95750600180820154610100900460ff166003811115610ed757610ed761393f565b145b610ef55760405162461bcd60e51b815260040161081090613cc0565b5f8581526007602090815260408083203384529091528082209051610f1b908790613b7f565b90815260405190819003602001902080549091506001600160a01b03163314610f7c5760405162461bcd60e51b8152602060048201526013602482015272139bc81c1c99591a58dd1a5bdb88199bdd5b99606a1b6044820152606401610810565b8381600401541015610fc55760405162461bcd60e51b8152602060048201526012602482015271496e73756666696369656e74207374616b6560701b6044820152606401610810565b83816004015f828254610fd89190613c13565b9091555050600d54841115610fff5760405162461bcd60e51b815260040161081090613bc8565b83600d5f8282546110109190613c13565b90915550506040515f90339086908381818185875af1925050503d805f8114611054576040519150601f19603f3d011682016040523d82523d5f602084013e611059565b606091505b505090508061107a5760405162461bcd60e51b815260040161081090613c26565b604051858152339088907fbcbb1a32e70b3a4c7e261bf1aa686d9baefa195ed797e1225c008ae953d6f1cf90602001610b17565b5f546001600160a01b031633146110d75760405162461bcd60e51b815260040161081090613c4f565b5f828152600660205260408120548391036111045760405162461bcd60e51b815260040161081090613a42565b5f838152600660205260409020600101805483919061ff0019166101008360038111156111335761113361393f565b0217905550827fd067ebf1565b7b7f7e3c08ccb7f355defc06fd6a3e5e3da1f0a43c8a235350ac836040516111689190613ceb565b60405180910390a2505050565b5f82815260066020526040812054839082036111a35760405162461bcd60e51b815260040161081090613a42565b5f84815260066020526040812060058101549091036111d55760028101546111cd90612710613cf9565b925050611216565b806005015481600301856040516111ec9190613b7f565b9081526020016040518091039020546127106112089190613d18565b6112129190613cf9565b9250505b5092915050565b6001546001600160a01b031633148061123f57505f546001600160a01b031633145b61127d5760405162461bcd60e51b815260206004820152600f60248201526e27b7363c9039bab832b920b236b4b760891b6044820152606401610810565b612710841115801561129157506127108311155b801561129f57506127108211155b80156112ad57506127108111155b6112f95760405162461bcd60e51b815260206004820152601760248201527f466565732063616e6e6f742065786365656420313030250000000000000000006044820152606401610810565b60028490556003839055600482905560058190556040805185815260208101859052908101839052606081018290527f16e6f67290546b8dd0e587f4b7f67d4f61932ae17ffd8c60d3509dbc05c175fe9060800160405180910390a150505050565b5f818152600660205260408120548291036113885760405162461bcd60e51b815260040161081090613a42565b600e54156113a85760405162461bcd60e51b815260040161081090613a71565b6001600e555f8281526006602081905260409091209081015460ff166113e05760405162461bcd60e51b815260040161081090613aa8565b5f838152600960209081526040808320338452909152902054806114165760405162461bcd60e51b815260040161081090613b9a565b5f82600701805461142690613ad5565b80601f016020809104026020016040519081016040528092919081815260200182805461145290613ad5565b801561149d5780601f106114745761010080835404028352916020019161149d565b820191905f5260205f20905b81548152906001019060200180831161148057829003601f168201915b5050505f888152600760209081526040808320338452909152808220905194955090939092506114cf91508490613b7f565b90815260408051602092819003830181205f8a815260088552838120338252909452918320919350611502908590613b7f565b90815260405190819003602001902082549091505f906001600160a01b03163314801561153257505f8360040154115b80156115435750600583015460ff16155b82549091505f906001600160a01b03163314801561156457505f8360020154115b9050818061156f5750805b6115af5760405162461bcd60e51b8152602060048201526011602482015270139bdd0818481c185c9d1a58da5c185b9d607a1b6044820152606401610810565b85600d5410156115d15760405162461bcd60e51b815260040161081090613bc8565b5f89815260096020908152604080832033845290915281205581156116005760058401805460ff191660011790555b85600d5f8282546116119190613c13565b90915550506040515f90339088908381818185875af1925050503d805f8114611655576040519150601f19603f3d011682016040523d82523d5f602084013e61165a565b606091505b505090508061167b5760405162461bcd60e51b815260040161081090613c26565b60405187815233908b907fa3097d366dbda72a300109ce4eb4df25c8b2709e0b539bcfaf91102fff0e81749060200160405180910390a350505f600e555050505050505050565b5f546001600160a01b031633146116eb5760405162461bcd60e51b815260040161081090613c4f565b8047101561173b5760405162461bcd60e51b815260206004820152601d60248201527f496e73756666696369656e7420636f6e74726163742062616c616e63650000006044820152606401610810565b5f826001600160a01b0316826040515f6040518083038185875af1925050503d805f8114611784576040519150601f19603f3d011682016040523d82523d5f602084013e611789565b606091505b50509050806117aa5760405162461bcd60e51b815260040161081090613c26565b826001600160a01b03167f8c9a4f13b67cb64d7c6aa1ae0c9bf07694af521a28b93e7060020810ab4bc59f8360405161116891815260200190565b5f80546001600160a01b0316331461180f5760405162461bcd60e51b815260040161081090613c4f565b6002825110156118615760405162461bcd60e51b815260206004820152601c60248201527f4d7573742068617665206174206c656173742032206f7074696f6e73000000006044820152606401610810565b600b80545f918261187183613d2f565b909155505f81815260066020526040812082815560018101805461ffff191688151561ff0019161790554260088201559192505b845181101561197957816002018582815181106118c4576118c4613d47565b60209081029190910181015182546001810184555f9384529190922001906118ec9082613da9565b505f8260030186838151811061190457611904613d47565b60200260200101516040516119199190613b7f565b9081526020016040518091039020819055505f8260040186838151811061194257611942613d47565b60200260200101516040516119579190613b7f565b908152604051908190036020019020558061197181613d2f565b9150506118a5565b50817f41671df7de79859ef92d2dc3d0936d3890eea9d4dda0c64e7d375277f2e5e7a186866040516119ac929190613e65565b60405180910390a25090505b92915050565b5f546001600160a01b031633146119e75760405162461bcd60e51b815260040161081090613c4f565b600e5415611a075760405162461bcd60e51b815260040161081090613a71565b6001600e55600c54811115611a5a5760405162461bcd60e51b8152602060048201526019602482015278496e73756666696369656e7420706f6f6c2062616c616e636560381b6044820152606401610810565b80600c5f828254611a6b9190613c13565b90915550506040515f906001600160a01b0384169083908381818185875af1925050503d805f8114611ab8576040519150601f19603f3d011682016040523d82523d5f602084013e611abd565b606091505b5050905080611ade5760405162461bcd60e51b815260040161081090613c26565b826001600160a01b03167f05388187d2d8839bf46fead5ad128385c82076ad81b57a1278382a2f77ca244483604051611b1991815260200190565b60405180910390a250505f600e5550565b600660208190525f918252604090912080546001820154600583015493830154600784018054939560ff8085169661010090950481169591949316929190611b7190613ad5565b80601f0160208091040260200160405190810160405280929190818152602001828054611b9d90613ad5565b8015611be85780601f10611bbf57610100808354040283529160200191611be8565b820191905f5260205f20905b815481529060010190602001808311611bcb57829003601f168201915b5050505050908060080154908060090154905088565b5f82815260066020526040812054839103611c2b5760405162461bcd60e51b815260040161081090613a42565b5f3411611c4a5760405162461bcd60e51b815260040161081090613c76565b5f838152600660205260408120906001820154610100900460ff166003811115611c7657611c7661393f565b1480611c9e5750600180820154610100900460ff166003811115611c9c57611c9c61393f565b145b611cba5760405162461bcd60e51b815260040161081090613cc0565b5f805b6002830154811015611d23578480519060200120836002018281548110611ce657611ce6613d47565b905f5260205f2001604051611cfb9190613b0d565b604051809103902003611d115760019150611d23565b80611d1b81613d2f565b915050611cbd565b5080611d635760405162461bcd60e51b815260206004820152600f60248201526e496e76616c6964206f7574636f6d6560881b6044820152606401610810565b5f61271060025434611d759190613d18565b611d7f9190613cf9565b90505f61271060035434611d939190613d18565b611d9d9190613cf9565b90505f81611dab8434613c13565b611db59190613c13565b5f89815260076020908152604080832033845290915280822090519293509091611de0908a90613b7f565b90815260405190819003602001902080549091506001600160a01b0316611e3a5780546001600160a01b031916331781556001810189905560028101611e268982613da9565b506003810182905560048101829055611e53565b81816004015f828254611e4d9190613cad565b90915550505b34600d5f828254611e649190613cad565b909155505060405133908a907f9af5caefb8cea3d0910b8a9636232b856d7fadb93249d5b0bfbeab7c38f7921690611e9f908c908790613ecf565b60405180910390a3505050505050505050565b5f838152600660205260408120548190819086908203611ee45760405162461bcd60e51b815260040161081090613a42565b5f8781526007602090815260408083206001600160a01b038a1684529091528082209051611f13908890613b7f565b908152604051908190036020019020805460048201546005909201546001600160a01b03909116965090945060ff169250505093509350939050565b5f546001600160a01b03163314611f785760405162461bcd60e51b815260040161081090613c4f565b600e5415611f985760405162461bcd60e51b815260040161081090613a71565b6001600e556001600160a01b038216611fe75760405162461bcd60e51b8152602060048201526011602482015270125b9d985b1a59081c9958da5c1a595b9d607a1b6044820152606401610810565b80600d5410156120355760405162461bcd60e51b8152602060048201526019602482015278496e73756666696369656e7420706f6f6c2062616c616e636560381b6044820152606401610810565b80600d5f8282546120469190613c13565b90915550506040515f906001600160a01b0384169083908381818185875af1925050503d805f8114612093576040519150601f19603f3d011682016040523d82523d5f602084013e612098565b606091505b50509050806120b95760405162461bcd60e51b815260040161081090613c26565b826001600160a01b03167f9b4720e539e7a1f0094cfce31d8cc4e3f6a63afdbe9350a2636b0edd879c832583604051611b1991815260200190565b5f546001600160a01b0316331461211d5760405162461bcd60e51b815260040161081090613c4f565b5f8381526006602052604081205484910361214a5760405162461bcd60e51b815260040161081090613a42565b813410156121925760405162461bcd60e51b8152602060048201526015602482015274125b9cdd59999a58da595b9d08115512081cd95b9d605a1b6044820152606401610810565b5f34116121b15760405162461bcd60e51b815260040161081090613c76565b5f848152600660205260408120906001820154610100900460ff1660038111156121dd576121dd61393f565b14806122055750600180820154610100900460ff1660038111156122035761220361393f565b145b6122215760405162461bcd60e51b815260040161081090613cc0565b5f805b600283015481101561228a57858051906020012083600201828154811061224d5761224d613d47565b905f5260205f20016040516122629190613b0d565b604051809103902003612278576001915061228a565b8061228281613d2f565b915050612224565b50806122c95760405162461bcd60e51b815260206004820152600e60248201526d24b73b30b634b21037b83a34b7b760911b6044820152606401610810565b8382600301866040516122dc9190613b7f565b90815260200160405180910390205f8282546122f89190613cad565b9250508190555083826005015f8282546123129190613cad565b92505081905550857faa83f946898046e98d04323d1f949f879cd43a774cb0981f1025ce3caa9afc8c868660405161234b929190613ecf565b60405180910390a2505050505050565b600760209081525f93845260408085208252928452919092208251808401830180519281529083019390920192909220919052805460018201546002830180546001600160a01b039093169391926123b290613ad5565b80601f01602080910402602001604051908101604052809291908181526020018280546123de90613ad5565b80156124295780601f1061240057610100808354040283529160200191612429565b820191905f5260205f20905b81548152906001019060200180831161240c57829003601f168201915b50505050600383015460048401546005909401549293909290915060ff1686565b5f828152600660205260408120548391036124775760405162461bcd60e51b815260040161081090613a42565b5f34116124965760405162461bcd60e51b815260040161081090613c76565b5f838152600660205260408120906001820154610100900460ff1660038111156124c2576124c261393f565b14806124ea5750600180820154610100900460ff1660038111156124e8576124e861393f565b145b6125065760405162461bcd60e51b815260040161081090613cc0565b5f805b600283015481101561256f57848051906020012083600201828154811061253257612532613d47565b905f5260205f20016040516125479190613b0d565b60405180910390200361255d576001915061256f565b8061256781613d2f565b915050612509565b50806125af5760405162461bcd60e51b815260206004820152600f60248201526e496e76616c6964206f7574636f6d6560881b6044820152606401610810565b5f612710600454346125c19190613d18565b6125cb9190613cf9565b90505f612710600554346125df9190613d18565b6125e99190613cf9565b90505f816125f78434613c13565b6126019190613c13565b90505f8086600501541161262557600286015461262090612710613cf9565b612662565b8560050154866003018960405161263c9190613b7f565b9081526020016040518091039020546127106126589190613d18565b6126629190613cf9565b90505f8161267284612710613d18565b61267c9190613cf9565b905082876003018a6040516126919190613b7f565b90815260200160405180910390205f8282546126ad9190613cad565b9250508190555082876005015f8282546126c79190613cad565b9250508190555080876004018a6040516126e19190613b7f565b90815260200160405180910390205f8282546126fd9190613cad565b90915550505f8a81526008602090815260408083203384529091528082209051612728908c90613b7f565b90815260405190819003602001902080549091506001600160a01b03166127695780546001600160a01b03191633178155600181016127678b82613da9565b505b81816002015f82825461277c9190613cad565b9250508190555083816003015f8282546127969190613cad565b9250508190555034600d5f8282546127ae9190613cad565b909155505060405133908c907f65b9cf5504284839513abe58c29b419750bf6617216734ca4c0aa61a06c71784906127eb908e9089908890613ef0565b60405180910390a35050505050505050505050565b5f546001600160a01b031633146128295760405162461bcd60e51b815260040161081090613c4f565b5f828152600660205260408120548391036128565760405162461bcd60e51b815260040161081090613a42565b5f83815260066020526040902060036001820154610100900460ff1660038111156128835761288361393f565b036128c35760405162461bcd60e51b815260206004820152601060248201526f105b1c9958591e481c995cdbdb1d995960821b6044820152606401610810565b5f805b600283015481101561292c5784805190602001208360020182815481106128ef576128ef613d47565b905f5260205f20016040516129049190613b0d565b60405180910390200361291a576001915061292c565b8061292481613d2f565b9150506128c6565b50806129735760405162461bcd60e51b815260206004820152601660248201527524b73b30b634b2103bb4b73734b7339037b83a34b7b760511b6044820152606401610810565b6001828101805461ff00191661030017905560068301805460ff19169091179055600782016129a28582613da9565b5042600983015560405185907f2ec1f84b4079525f1ab2216f53a16f520efec75c91c517667151e55bbea7b9ec906129db908790613f14565b60405180910390a25050505050565b600e5415612a0a5760405162461bcd60e51b815260040161081090613a71565b6001600e5580612a2c5760405162461bcd60e51b815260040161081090613c76565b80600c541015612a7e5760405162461bcd60e51b815260206004820152601960248201527f496e73756666696369656e74206a61636b706f7420706f6f6c000000000000006044820152606401610810565b335f908152600a6020526040902054811115612ad35760405162461bcd60e51b8152602060048201526014602482015273496e73756666696369656e742062616c616e636560601b6044820152606401610810565b335f908152600a602052604081208054839290612af1908490613c13565b9250508190555080600c5f828254612b099190613c13565b90915550506040515f90339083908381818185875af1925050503d805f8114612b4d576040519150601f19603f3d011682016040523d82523d5f602084013e612b52565b606091505b5050905080612b735760405162461bcd60e51b815260040161081090613c26565b60405182815233907fd40b323ed8b019a73e488040e2e991ed6218cbfa9561673125581fc3778091879060200160405180910390a250505f600e55565b5f546001600160a01b03163314612bd95760405162461bcd60e51b815260040161081090613c4f565b5f9283526009602090815260408085206001600160a01b039094168552929052912055565b5f546001600160a01b03163314612c275760405162461bcd60e51b815260040161081090613c4f565b5f3411612c465760405162461bcd60e51b815260040161081090613c76565b34600c5f828254612c579190613cad565b90915550506040513481527f2076cd8bd7c147f4b7bb2b5e2dd0db46fb74246bc4c4e3ded824202bfff5ca5790602001610bb6565b5f82815260066020526040812054839103612cb95760405162461bcd60e51b815260040161081090613a42565b5f3411612cd85760405162461bcd60e51b815260040161081090613c76565b5f838152600660205260408120906001820154610100900460ff166003811115612d0457612d0461393f565b1480612d2c5750600180820154610100900460ff166003811115612d2a57612d2a61393f565b145b612d485760405162461bcd60e51b815260040161081090613cc0565b5f8481526007602090815260408083203384529091528082209051612d6e908690613b7f565b90815260405190819003602001902080549091506001600160a01b03163314612dd25760405162461bcd60e51b815260206004820152601660248201527527379032bc34b9ba34b73390383932b234b1ba34b7b760511b6044820152606401610810565b5f61271060025434612de49190613d18565b612dee9190613cf9565b90505f61271060035434612e029190613d18565b612e0c9190613cf9565b90505f81612e1a8434613c13565b612e249190613c13565b905080846004015f828254612e399190613cad565b9250508190555034600d5f828254612e519190613cad565b9091555050604051818152339089907fafc28a1adb0af8d9ee797f710633dbeb0799ebb3270743a3c4a31111f1ffbc909060200160405180910390a35050505050505050565b5f82815260066020526040812054839103612ec45760405162461bcd60e51b815260040161081090613a42565b600e5415612ee45760405162461bcd60e51b815260040161081090613a71565b6001600e555f8381526006602081905260409091209081015460ff16612f1c5760405162461bcd60e51b815260040161081090613aa8565b82516020840120604051612f34906007840190613b0d565b604051809103902014612f7f5760405162461bcd60e51b81526020600482015260136024820152724e6f742077696e6e696e67206f7574636f6d6560681b6044820152606401610810565b5f8481526008602090815260408083203384529091528082209051612fa5908690613b7f565b90815260405190819003602001902080549091506001600160a01b031633146130045760405162461bcd60e51b8152602060048201526011602482015270139bc81c1bdcda5d1a5bdb88199bdd5b99607a1b6044820152606401610810565b5f81600201541161304c5760405162461bcd60e51b81526020600482015260126024820152714e6f2073686172657320746f20636c61696d60701b6044820152606401610810565b5f858152600960209081526040808320338452909152902054806130825760405162461bcd60e51b815260040161081090613b9a565b80600d5410156130a45760405162461bcd60e51b815260040161081090613bc8565b5f8681526009602090815260408083203384529091528120819055600d80548392906130d1908490613c13565b90915550506040515f90339083908381818185875af1925050503d805f8114613115576040519150601f19603f3d011682016040523d82523d5f602084013e61311a565b606091505b505090508061313b5760405162461bcd60e51b815260040161081090613c26565b336001600160a01b0316877fb293892389f4a468a51fa597d7cd2627d3fa920ae52f4843616707f64a8041768885604051610b17929190613ecf565b5f838152600660205260408120548491036131a45760405162461bcd60e51b815260040161081090613a42565b600e54156131c45760405162461bcd60e51b815260040161081090613a71565b6001600e555f848152600660205260408120906001820154610100900460ff1660038111156131f5576131f561393f565b148061321d5750600180820154610100900460ff16600381111561321b5761321b61393f565b145b6132395760405162461bcd60e51b815260040161081090613cc0565b5f858152600860209081526040808320338452909152808220905161325f908790613b7f565b90815260405190819003602001902080549091506001600160a01b031633146132be5760405162461bcd60e51b8152602060048201526011602482015270139bc81c1bdcda5d1a5bdb88199bdd5b99607a1b6044820152606401610810565b83816002015410156133085760405162461bcd60e51b8152602060048201526013602482015272496e73756666696369656e742073686172657360681b6044820152606401610810565b5f8083600501541161332a57600283015461332590612710613cf9565b613367565b826005015483600301876040516133419190613b7f565b90815260200160405180910390205461271061335d9190613d18565b6133679190613cf9565b90505f6127106133778388613d18565b6133819190613cf9565b90508084600301886040516133969190613b7f565b90815260200160405180910390205f8282546133b29190613c13565b9250508190555080846005015f8282546133cc9190613c13565b925050819055508584600401886040516133e69190613b7f565b90815260200160405180910390205f8282546134029190613c13565b9250508190555085836002015f82825461341c9190613c13565b90915550506002830154613431908790613cad565b60038401546134409083613d18565b61344a9190613cf9565b836003015f82825461345c9190613c13565b9091555050600d548111156134835760405162461bcd60e51b815260040161081090613bc8565b80600d5f8282546134949190613c13565b90915550506040515f90339083908381818185875af1925050503d805f81146134d8576040519150601f19603f3d011682016040523d82523d5f602084013e6134dd565b606091505b50509050806134fe5760405162461bcd60e51b815260040161081090613c26565b336001600160a01b0316897f2136d4ee254f7d800aae52b9b653ccd229ae15988bf2d1371a31db50132a69e98a8a8660405161353c93929190613ef0565b60405180910390a350505f600e5550505050505050565b634e487b7160e01b5f52604160045260245ffd5b604051601f8201601f1916810167ffffffffffffffff8111828210171561359057613590613553565b604052919050565b5f82601f8301126135a7575f80fd5b813567ffffffffffffffff8111156135c1576135c1613553565b6135d4601f8201601f1916602001613567565b8181528460208386010111156135e8575f80fd5b816020850160208301375f918101602001919091529392505050565b5f8060408385031215613615575f80fd5b82359150602083013567ffffffffffffffff811115613632575f80fd5b61363e85828601613598565b9150509250929050565b6001600160a01b038116811461365c575f80fd5b50565b5f8060408385031215613670575f80fd5b82359150602083013561368281613648565b809150509250929050565b5f6020828403121561369d575f80fd5b81356136a881613648565b9392505050565b5f805f606084860312156136c1575f80fd5b8335925060208401356136d381613648565b9150604084013567ffffffffffffffff8111156136ee575f80fd5b6136fa86828701613598565b9150509250925092565b5f5b8381101561371e578181015183820152602001613706565b50505f910152565b5f815180845261373d816020860160208601613704565b601f01601f19169290920160200192915050565b6001600160a01b03851681526080602082018190525f9061377490830186613726565b6040830194909452506060015292915050565b5f8060408385031215613798575f80fd5b82356137a381613648565b946020939093013593505050565b5f805f606084860312156137c3575f80fd5b83359250602084013567ffffffffffffffff8111156137e0575f80fd5b6137ec86828701613598565b925050604084013590509250925092565b5f806040838503121561380e575f80fd5b82359150602083013560048110613682575f80fd5b5f805f8060808587031215613836575f80fd5b5050823594602084013594506040840135936060013592509050565b5f60208284031215613862575f80fd5b5035919050565b5f806040838503121561387a575f80fd5b82358015158114613889575f80fd5b915060208381013567ffffffffffffffff808211156138a6575f80fd5b818601915086601f8301126138b9575f80fd5b8135818111156138cb576138cb613553565b8060051b6138da858201613567565b918252838101850191858101908a8411156138f3575f80fd5b86860192505b8383101561392e57823585811115613910575f8081fd5b61391e8c89838a0101613598565b83525091860191908601906138f9565b809750505050505050509250929050565b634e487b7160e01b5f52602160045260245ffd5b6004811061396f57634e487b7160e01b5f52602160045260245ffd5b9052565b5f6101008a8352891515602084015261398f604084018a613953565b87606084015286151560808401528060a08401526139af81840187613726565b60c0840195909552505060e001529695505050505050565b60018060a01b038716815285602082015260c060408201525f6139ed60c0830187613726565b6060830195909552506080810192909252151560a0909101529392505050565b5f805f60608486031215613a1f575f80fd5b833592506020840135613a3181613648565b929592945050506040919091013590565b60208082526015908201527413585c9ad95d08191bd95cc81b9bdd08195e1a5cdd605a1b604082015260600190565b6020808252601f908201527f5265656e7472616e637947756172643a207265656e7472616e742063616c6c00604082015260600190565b60208082526013908201527213585c9ad95d081b9bdd081c995cdbdb1d9959606a1b604082015260600190565b600181811c90821680613ae957607f821691505b602082108103613b0757634e487b7160e01b5f52602260045260245ffd5b50919050565b5f808354613b1a81613ad5565b60018281168015613b325760018114613b4757613b73565b60ff1984168752821515830287019450613b73565b875f526020805f205f5b85811015613b6a5781548a820152908401908201613b51565b50505082870194505b50929695505050505050565b5f8251613b90818460208701613704565b9190910192915050565b6020808252601490820152734e6f20636c61696d61626c652062616c616e636560601b604082015260600190565b60208082526017908201527f496e73756666696369656e7420636c61696d20706f6f6c000000000000000000604082015260600190565b634e487b7160e01b5f52601160045260245ffd5b818103818111156119b8576119b8613bff565b6020808252600f908201526e151c985b9cd9995c8819985a5b1959608a1b604082015260600190565b6020808252600d908201526c27b7363c903232b83637bcb2b960991b604082015260600190565b6020808252601d908201527f416d6f756e74206d7573742062652067726561746572207468616e2030000000604082015260600190565b808201808211156119b8576119b8613bff565b6020808252601190820152704d61726b6574206e6f742061637469766560781b604082015260600190565b602081016119b88284613953565b5f82613d1357634e487b7160e01b5f52601260045260245ffd5b500490565b80820281158282048414176119b8576119b8613bff565b5f60018201613d4057613d40613bff565b5060010190565b634e487b7160e01b5f52603260045260245ffd5b601f821115613da4575f81815260208120601f850160051c81016020861015613d815750805b601f850160051c820191505b81811015613da057828155600101613d8d565b5050505b505050565b815167ffffffffffffffff811115613dc357613dc3613553565b613dd781613dd18454613ad5565b84613d5b565b602080601f831160018114613e0a575f8415613df35750858301515b5f19600386901b1c1916600185901b178555613da0565b5f85815260208120601f198616915b82811015613e3857888601518255948401946001909101908401613e19565b5085821015613e5557878501515f19600388901b60f8161c191681555b5050505050600190811b01905550565b5f604082018415158352602060408185015281855180845260608601915060608160051b87010193508287015f5b82811015613ec157605f19888703018452613eaf868351613726565b95509284019290840190600101613e93565b509398975050505050505050565b604081525f613ee16040830185613726565b90508260208301529392505050565b606081525f613f026060830186613726565b60208301949094525060400152919050565b602081525f6136a8602083018461372656fea2646970667358221220969cb956eee999dfd431d7128f9032c60faf8c966adc7e3d2f8e687cb8e42e7964736f6c63430008140033",
  "immutableReferences": {},
  "source": "// SPDX-License-Identifier: MIT\r\npragma solidity ^0.8.19;\r\n\r\n/**\r\n * @title WeRgame\r\n * @dev Comprehensive smart contract for prediction market platform\r\n * Handles market creation, trading, boost predictions, and jackpot management\r\n */\r\ncontract WeRgame {\r\n    address public deployer;\r\n    address public superAdmin;\r\n    \r\n    // Fee structure (in basis points, 10000 = 100%)\r\n    uint256 public platformFee; // For boost predictions\r\n    uint256 public boostJackpotFee;\r\n    uint256 public marketPlatformFee;\r\n    uint256 public freeJackpotFee;\r\n    \r\n    // Market status enum\r\n    enum MarketStatus {\r\n        Upcoming,\r\n        Active,\r\n        Locked,\r\n        Resolved\r\n    }\r\n    \r\n    // Market structure\r\n    struct Market {\r\n        uint256 marketId;\r\n        bool isPoll; // true for poll, false for match\r\n        MarketStatus status;\r\n        string[] options; // Options/outcomes for this market\r\n        mapping(string => uint256) liquidity; // Liquidity per option\r\n        mapping(string => uint256) shares; // Total shares per option\r\n        uint256 totalLiquidity;\r\n        bool resolved;\r\n        string winningOption; // Set when resolved\r\n        uint256 createdAt;\r\n        uint256 resolvedAt;\r\n    }\r\n    \r\n    // Boost prediction structure\r\n    struct BoostPrediction {\r\n        address user;\r\n        uint256 marketId;\r\n        string outcome;\r\n        uint256 stakeAmount;\r\n        uint256 totalStake;\r\n        bool claimed;\r\n    }\r\n    \r\n    // Market trading position\r\n    struct MarketPosition {\r\n        address user;\r\n        string outcome;\r\n        uint256 shares;\r\n        uint256 totalInvested;\r\n    }\r\n    \r\n    // Mappings\r\n    mapping(uint256 => Market) public markets;\r\n    mapping(uint256 => mapping(address => mapping(string => BoostPrediction))) public boostPredictions; // marketId => user => outcome => prediction\r\n    mapping(uint256 => mapping(address => mapping(string => MarketPosition))) public marketPositions; // marketId => user => outcome => position\r\n    mapping(uint256 => mapping(address => uint256)) public claimableBalances; // marketId => user => claimable amount\r\n    mapping(address => uint256) public jackpotBalances; // user => jackpot balance\r\n    \r\n    uint256 public nextMarketId;\r\n    uint256 public jackpotPool;\r\n    /// @dev Pool for paying Boost and Market prediction wins; funded by deployer and by boost stakes\r\n    uint256 public claimPredictionWinsPool;\r\n    \r\n    // Events\r\n    event MarketCreated(uint256 indexed marketId, bool isPoll, string[] options);\r\n    event MarketStatusUpdated(uint256 indexed marketId, MarketStatus status);\r\n    event MarketResolved(uint256 indexed marketId, string winningOption);\r\n    event LiquidityAdded(uint256 indexed marketId, string option, uint256 amount);\r\n    event FeesUpdated(uint256 platformFee, uint256 boostJackpotFee, uint256 marketPlatformFee, uint256 freeJackpotFee);\r\n    event BoostStaked(uint256 indexed marketId, address indexed user, string outcome, uint256 amount);\r\n    event BoostStakeAdded(uint256 indexed marketId, address indexed user, uint256 amount);\r\n    event BoostStakeWithdrawn(uint256 indexed marketId, address indexed user, uint256 amount);\r\n    event BoostClaimed(uint256 indexed marketId, address indexed user, uint256 amount);\r\n    event MarketBought(uint256 indexed marketId, address indexed user, string outcome, uint256 ethAmount, uint256 shares);\r\n    event MarketSold(uint256 indexed marketId, address indexed user, string outcome, uint256 shares, uint256 ethAmount);\r\n    event MarketClaimed(uint256 indexed marketId, address indexed user, string outcome, uint256 amount);\r\n    event JackpotFunded(uint256 amount);\r\n    event JackpotWithdrawn(address indexed user, uint256 amount);\r\n    event JackpotPoolWithdrawn(address indexed to, uint256 amount);\r\n    event FundsTransferred(address indexed to, uint256 amount);\r\n    event ClaimPredictionWinsPoolFunded(uint256 amount);\r\n    event ClaimPredictionWinsPoolWithdrawn(address indexed to, uint256 amount);\r\n    event PredictionWinsClaimed(uint256 indexed marketId, address indexed user, uint256 amount);\r\n    \r\n    modifier onlyDeployer() {\r\n        require(msg.sender == deployer, \"Only deployer\");\r\n        _;\r\n    }\r\n    \r\n    modifier onlySuperAdmin() {\r\n        require(msg.sender == superAdmin || msg.sender == deployer, \"Only superAdmin\");\r\n        _;\r\n    }\r\n    \r\n    modifier validMarket(uint256 marketId) {\r\n        require(markets[marketId].marketId != 0, \"Market does not exist\");\r\n        _;\r\n    }\r\n    \r\n    uint256 private _locked = 0;\r\n    modifier nonReentrant() {\r\n        require(_locked == 0, \"ReentrancyGuard: reentrant call\");\r\n        _locked = 1;\r\n        _;\r\n        _locked = 0;\r\n    }\r\n    \r\n    constructor() {\r\n        deployer = msg.sender;\r\n        superAdmin = msg.sender;\r\n        \r\n        // Default fees (in basis points: 1000 = 10%, 500 = 5%)\r\n        platformFee = 1000; // 10%\r\n        boostJackpotFee = 500; // 5%\r\n        marketPlatformFee = 500; // 5%\r\n        freeJackpotFee = 500; // 5%\r\n        \r\n        nextMarketId = 1;\r\n    }\r\n    \r\n    /**\r\n     * @dev Create a new market (match or poll)\r\n     * @param isPoll true if poll, false if match\r\n     * @param options array of outcome options\r\n     */\r\n    function createMarket(bool isPoll, string[] memory options) external onlyDeployer returns (uint256) {\r\n        require(options.length >= 2, \"Must have at least 2 options\");\r\n        \r\n        uint256 marketId = nextMarketId++;\r\n        Market storage market = markets[marketId];\r\n        market.marketId = marketId;\r\n        market.isPoll = isPoll;\r\n        market.status = MarketStatus.Upcoming;\r\n        market.createdAt = block.timestamp;\r\n        \r\n        // Initialize options\r\n        for (uint256 i = 0; i < options.length; i++) {\r\n            market.options.push(options[i]);\r\n            market.liquidity[options[i]] = 0;\r\n            market.shares[options[i]] = 0;\r\n        }\r\n        \r\n        emit MarketCreated(marketId, isPoll, options);\r\n        return marketId;\r\n    }\r\n    \r\n    /**\r\n     * @dev Update market status\r\n     */\r\n    function updateMarketStatus(uint256 marketId, MarketStatus status) external onlyDeployer validMarket(marketId) {\r\n        markets[marketId].status = status;\r\n        emit MarketStatusUpdated(marketId, status);\r\n    }\r\n    \r\n    /**\r\n     * @dev Add initial liquidity to a market option\r\n     */\r\n    function addLiquidity(uint256 marketId, string memory option, uint256 amount) external payable onlyDeployer validMarket(marketId) {\r\n        require(msg.value >= amount, \"Insufficient ETH sent\");\r\n        require(msg.value > 0, \"Amount must be greater than 0\");\r\n        \r\n        Market storage market = markets[marketId];\r\n        require(market.status == MarketStatus.Upcoming || market.status == MarketStatus.Active, \"Market not active\");\r\n        \r\n        // Verify option exists\r\n        bool optionExists = false;\r\n        for (uint256 i = 0; i < market.options.length; i++) {\r\n            if (keccak256(bytes(market.options[i])) == keccak256(bytes(option))) {\r\n                optionExists = true;\r\n                break;\r\n            }\r\n        }\r\n        require(optionExists, \"Invalid option\");\r\n        \r\n        market.liquidity[option] += amount;\r\n        market.totalLiquidity += amount;\r\n        \r\n        emit LiquidityAdded(marketId, option, amount);\r\n    }\r\n    \r\n    /**\r\n     * @dev Resolve a market\r\n     */\r\n    function resolveMarket(uint256 marketId, string memory winningOption) external onlyDeployer validMarket(marketId) {\r\n        Market storage market = markets[marketId];\r\n        require(market.status != MarketStatus.Resolved, \"Already resolved\");\r\n        \r\n        // Verify option exists\r\n        bool optionExists = false;\r\n        for (uint256 i = 0; i < market.options.length; i++) {\r\n            if (keccak256(bytes(market.options[i])) == keccak256(bytes(winningOption))) {\r\n                optionExists = true;\r\n                break;\r\n            }\r\n        }\r\n        require(optionExists, \"Invalid winning option\");\r\n        \r\n        market.status = MarketStatus.Resolved;\r\n        market.resolved = true;\r\n        market.winningOption = winningOption;\r\n        market.resolvedAt = block.timestamp;\r\n        \r\n        emit MarketResolved(marketId, winningOption);\r\n    }\r\n    \r\n    /**\r\n     * @dev Set fees (in basis points)\r\n     */\r\n    function setFees(\r\n        uint256 _platformFee,\r\n        uint256 _boostJackpotFee,\r\n        uint256 _marketPlatformFee,\r\n        uint256 _freeJackpotFee\r\n    ) external onlySuperAdmin {\r\n        require(_platformFee <= 10000 && _boostJackpotFee <= 10000 && \r\n                _marketPlatformFee <= 10000 && _freeJackpotFee <= 10000, \"Fees cannot exceed 100%\");\r\n        \r\n        platformFee = _platformFee;\r\n        boostJackpotFee = _boostJackpotFee;\r\n        marketPlatformFee = _marketPlatformFee;\r\n        freeJackpotFee = _freeJackpotFee;\r\n        \r\n        emit FeesUpdated(_platformFee, _boostJackpotFee, _marketPlatformFee, _freeJackpotFee);\r\n    }\r\n    \r\n    /**\r\n     * @dev Get current fees\r\n     */\r\n    function getFees() external view returns (\r\n        uint256 _platformFee,\r\n        uint256 _boostJackpotFee,\r\n        uint256 _marketPlatformFee,\r\n        uint256 _freeJackpotFee\r\n    ) {\r\n        return (platformFee, boostJackpotFee, marketPlatformFee, freeJackpotFee);\r\n    }\r\n    \r\n    /**\r\n     * @dev Stake ETH for boost prediction\r\n     */\r\n    function stakeBoost(uint256 marketId, string memory outcome) external payable validMarket(marketId) {\r\n        require(msg.value > 0, \"Amount must be greater than 0\");\r\n        Market storage market = markets[marketId];\r\n        require(market.status == MarketStatus.Upcoming || market.status == MarketStatus.Active, \"Market not active\");\r\n        \r\n        // Verify option exists\r\n        bool optionExists = false;\r\n        for (uint256 i = 0; i < market.options.length; i++) {\r\n            if (keccak256(bytes(market.options[i])) == keccak256(bytes(outcome))) {\r\n                optionExists = true;\r\n                break;\r\n            }\r\n        }\r\n        require(optionExists, \"Invalid outcome\");\r\n        \r\n        // Calculate fees\r\n        uint256 platformFeeAmount = (msg.value * platformFee) / 10000;\r\n        uint256 boostJackpotFeeAmount = (msg.value * boostJackpotFee) / 10000;\r\n        uint256 netStake = msg.value - platformFeeAmount - boostJackpotFeeAmount;\r\n        \r\n        // Update or create boost prediction\r\n        BoostPrediction storage prediction = boostPredictions[marketId][msg.sender][outcome];\r\n        if (prediction.user == address(0)) {\r\n            // New prediction\r\n            prediction.user = msg.sender;\r\n            prediction.marketId = marketId;\r\n            prediction.outcome = outcome;\r\n            prediction.stakeAmount = netStake;\r\n            prediction.totalStake = netStake;\r\n        } else {\r\n            // Update existing prediction\r\n            prediction.totalStake += netStake;\r\n        }\r\n        \r\n        // Boost stakes fund the claim prediction wins pool\r\n        claimPredictionWinsPool += msg.value;\r\n        \r\n        emit BoostStaked(marketId, msg.sender, outcome, netStake);\r\n    }\r\n    \r\n    /**\r\n     * @dev Add more stake to existing boost prediction\r\n     */\r\n    function addBoostStake(uint256 marketId, string memory outcome) external payable validMarket(marketId) {\r\n        require(msg.value > 0, \"Amount must be greater than 0\");\r\n        Market storage market = markets[marketId];\r\n        require(market.status == MarketStatus.Upcoming || market.status == MarketStatus.Active, \"Market not active\");\r\n        \r\n        BoostPrediction storage prediction = boostPredictions[marketId][msg.sender][outcome];\r\n        require(prediction.user == msg.sender, \"No existing prediction\");\r\n        \r\n        // Calculate fees\r\n        uint256 platformFeeAmount = (msg.value * platformFee) / 10000;\r\n        uint256 boostJackpotFeeAmount = (msg.value * boostJackpotFee) / 10000;\r\n        uint256 netStake = msg.value - platformFeeAmount - boostJackpotFeeAmount;\r\n        \r\n        prediction.totalStake += netStake;\r\n        \r\n        // Additional boost stake funds the claim prediction wins pool\r\n        claimPredictionWinsPool += msg.value;\r\n        \r\n        emit BoostStakeAdded(marketId, msg.sender, netStake);\r\n    }\r\n    \r\n    /**\r\n     * @dev Withdraw stake from boost prediction (only before resolution)\r\n     */\r\n    function withdrawBoostStake(uint256 marketId, string memory outcome, uint256 amount) external validMarket(marketId) nonReentrant {\r\n        Market storage market = markets[marketId];\r\n        require(market.status == MarketStatus.Upcoming || market.status == MarketStatus.Active, \"Market not active\");\r\n        \r\n        BoostPrediction storage prediction = boostPredictions[marketId][msg.sender][outcome];\r\n        require(prediction.user == msg.sender, \"No prediction found\");\r\n        require(prediction.totalStake >= amount, \"Insufficient stake\");\r\n        \r\n        prediction.totalStake -= amount;\r\n        require(claimPredictionWinsPool >= amount, \"Insufficient claim pool\");\r\n        claimPredictionWinsPool -= amount;\r\n        \r\n        // Transfer ETH back to user\r\n        (bool success, ) = payable(msg.sender).call{value: amount}(\"\");\r\n        require(success, \"Transfer failed\");\r\n        \r\n        emit BoostStakeWithdrawn(marketId, msg.sender, amount);\r\n    }\r\n    \r\n    /**\r\n     * @dev Claim boost prediction winnings\r\n     */\r\n    function claimBoost(uint256 marketId, string memory outcome) external validMarket(marketId) nonReentrant {\r\n        Market storage market = markets[marketId];\r\n        require(market.resolved, \"Market not resolved\");\r\n        require(keccak256(bytes(market.winningOption)) == keccak256(bytes(outcome)), \"Not winning outcome\");\r\n        \r\n        BoostPrediction storage prediction = boostPredictions[marketId][msg.sender][outcome];\r\n        require(prediction.user == msg.sender, \"No prediction found\");\r\n        require(!prediction.claimed, \"Already claimed\");\r\n        require(prediction.totalStake > 0, \"No stake to claim\");\r\n        \r\n        // Calculate claimable amount (backend will set this via setClaimableBalance)\r\n        uint256 claimable = claimableBalances[marketId][msg.sender];\r\n        require(claimable > 0, \"No claimable balance\");\r\n        require(claimPredictionWinsPool >= claimable, \"Insufficient claim pool\");\r\n        \r\n        prediction.claimed = true;\r\n        claimableBalances[marketId][msg.sender] = 0;\r\n        claimPredictionWinsPool -= claimable;\r\n        \r\n        // Transfer winnings\r\n        (bool success, ) = payable(msg.sender).call{value: claimable}(\"\");\r\n        require(success, \"Transfer failed\");\r\n        \r\n        emit BoostClaimed(marketId, msg.sender, claimable);\r\n    }\r\n    \r\n    /**\r\n     * @dev Set claimable balance for a user (called by backend after resolution)\r\n     */\r\n    function setClaimableBalance(uint256 marketId, address user, uint256 amount) external onlyDeployer {\r\n        claimableBalances[marketId][user] = amount;\r\n    }\r\n    \r\n    /**\r\n     * @dev Claim prediction winnings (Boost or Market) for a resolved market.\r\n     * Caller must have participated (recorded boost stake or market position in winning outcome) and have claimable balance set by deployer.\r\n     * Pays from the claimPredictionWinsPool.\r\n     */\r\n    function claimPredictionWins(uint256 marketId) external validMarket(marketId) nonReentrant {\r\n        Market storage market = markets[marketId];\r\n        require(market.resolved, \"Market not resolved\");\r\n        \r\n        uint256 amount = claimableBalances[marketId][msg.sender];\r\n        require(amount > 0, \"No claimable balance\");\r\n        \r\n        string memory winningOption = market.winningOption;\r\n        \r\n        // Require caller participated: boost (winning outcome, not yet claimed) or market (winning outcome, shares > 0)\r\n        BoostPrediction storage boostPred = boostPredictions[marketId][msg.sender][winningOption];\r\n        MarketPosition storage pos = marketPositions[marketId][msg.sender][winningOption];\r\n        bool hasBoost = boostPred.user == msg.sender && boostPred.totalStake > 0 && !boostPred.claimed;\r\n        bool hasMarket = pos.user == msg.sender && pos.shares > 0;\r\n        require(hasBoost || hasMarket, \"Not a participant\");\r\n        \r\n        require(claimPredictionWinsPool >= amount, \"Insufficient claim pool\");\r\n        \r\n        // Effects\r\n        claimableBalances[marketId][msg.sender] = 0;\r\n        if (hasBoost) {\r\n            boostPred.claimed = true;\r\n        }\r\n        claimPredictionWinsPool -= amount;\r\n        \r\n        // Interaction (last)\r\n        (bool success, ) = payable(msg.sender).call{value: amount}(\"\");\r\n        require(success, \"Transfer failed\");\r\n        \r\n        emit PredictionWinsClaimed(marketId, msg.sender, amount);\r\n    }\r\n    \r\n    /**\r\n     * @dev Fund the claim prediction wins pool (deployer only).\r\n     */\r\n    function fundClaimPredictionWinsPool() external payable onlyDeployer {\r\n        require(msg.value > 0, \"Amount must be greater than 0\");\r\n        claimPredictionWinsPool += msg.value;\r\n        emit ClaimPredictionWinsPoolFunded(msg.value);\r\n    }\r\n    \r\n    /**\r\n     * @dev Withdraw from claim prediction wins pool (deployer only).\r\n     */\r\n    function withdrawFromClaimPredictionWinsPool(address payable to, uint256 amount) external onlyDeployer nonReentrant {\r\n        require(to != address(0), \"Invalid recipient\");\r\n        require(claimPredictionWinsPool >= amount, \"Insufficient pool balance\");\r\n        claimPredictionWinsPool -= amount;\r\n        (bool success, ) = to.call{value: amount}(\"\");\r\n        require(success, \"Transfer failed\");\r\n        emit ClaimPredictionWinsPoolWithdrawn(to, amount);\r\n    }\r\n    \r\n    /**\r\n     * @dev Buy shares in market (fixed-sum AMM)\r\n     */\r\n    function buyMarketShares(uint256 marketId, string memory outcome) external payable validMarket(marketId) {\r\n        require(msg.value > 0, \"Amount must be greater than 0\");\r\n        Market storage market = markets[marketId];\r\n        require(market.status == MarketStatus.Upcoming || market.status == MarketStatus.Active, \"Market not active\");\r\n        \r\n        // Verify option exists\r\n        bool optionExists = false;\r\n        for (uint256 i = 0; i < market.options.length; i++) {\r\n            if (keccak256(bytes(market.options[i])) == keccak256(bytes(outcome))) {\r\n                optionExists = true;\r\n                break;\r\n            }\r\n        }\r\n        require(optionExists, \"Invalid outcome\");\r\n        \r\n        // Calculate fees\r\n        uint256 platformFeeAmount = (msg.value * marketPlatformFee) / 10000;\r\n        uint256 freeJackpotFeeAmount = (msg.value * freeJackpotFee) / 10000;\r\n        uint256 netAmount = msg.value - platformFeeAmount - freeJackpotFeeAmount;\r\n        \r\n        // Calculate current price (liquidity / total liquidity)\r\n        uint256 currentPrice = market.totalLiquidity > 0 \r\n            ? (market.liquidity[outcome] * 10000) / market.totalLiquidity \r\n            : (10000 / market.options.length); // Equal distribution if no liquidity\r\n        \r\n        // Calculate shares received\r\n        uint256 shares = (netAmount * 10000) / currentPrice;\r\n        \r\n        // Update liquidity (fixed-sum AMM: buying increases selected option's liquidity)\r\n        market.liquidity[outcome] += netAmount;\r\n        market.totalLiquidity += netAmount;\r\n        market.shares[outcome] += shares;\r\n        \r\n        // Update user position\r\n        MarketPosition storage position = marketPositions[marketId][msg.sender][outcome];\r\n        if (position.user == address(0)) {\r\n            position.user = msg.sender;\r\n            position.outcome = outcome;\r\n        }\r\n        position.shares += shares;\r\n        position.totalInvested += netAmount;\r\n        \r\n        // Market buys fund the claim prediction wins pool\r\n        claimPredictionWinsPool += msg.value;\r\n        \r\n        emit MarketBought(marketId, msg.sender, outcome, netAmount, shares);\r\n    }\r\n    \r\n    /**\r\n     * @dev Sell shares in market\r\n     */\r\n    function sellMarketShares(uint256 marketId, string memory outcome, uint256 shares) external validMarket(marketId) nonReentrant {\r\n        Market storage market = markets[marketId];\r\n        require(market.status == MarketStatus.Upcoming || market.status == MarketStatus.Active, \"Market not active\");\r\n        \r\n        MarketPosition storage position = marketPositions[marketId][msg.sender][outcome];\r\n        require(position.user == msg.sender, \"No position found\");\r\n        require(position.shares >= shares, \"Insufficient shares\");\r\n        \r\n        // Calculate current price\r\n        uint256 currentPrice = market.totalLiquidity > 0 \r\n            ? (market.liquidity[outcome] * 10000) / market.totalLiquidity \r\n            : (10000 / market.options.length);\r\n        \r\n        // Calculate payout\r\n        uint256 payout = (shares * currentPrice) / 10000;\r\n        \r\n        // Update liquidity (selling decreases selected option's liquidity)\r\n        market.liquidity[outcome] -= payout;\r\n        market.totalLiquidity -= payout;\r\n        market.shares[outcome] -= shares;\r\n        \r\n        // Update user position\r\n        position.shares -= shares;\r\n        position.totalInvested -= (payout * position.totalInvested) / (position.shares + shares);\r\n        \r\n        // Deduct from claim prediction wins pool when user sells (pool was credited on buy)\r\n        require(claimPredictionWinsPool >= payout, \"Insufficient claim pool\");\r\n        claimPredictionWinsPool -= payout;\r\n        \r\n        // Transfer ETH to user\r\n        (bool success, ) = payable(msg.sender).call{value: payout}(\"\");\r\n        require(success, \"Transfer failed\");\r\n        \r\n        emit MarketSold(marketId, msg.sender, outcome, shares, payout);\r\n    }\r\n    \r\n    /**\r\n     * @dev Claim market winnings after resolution\r\n     */\r\n    function claimMarket(uint256 marketId, string memory outcome) external validMarket(marketId) nonReentrant {\r\n        Market storage market = markets[marketId];\r\n        require(market.resolved, \"Market not resolved\");\r\n        require(keccak256(bytes(market.winningOption)) == keccak256(bytes(outcome)), \"Not winning outcome\");\r\n        \r\n        MarketPosition storage position = marketPositions[marketId][msg.sender][outcome];\r\n        require(position.user == msg.sender, \"No position found\");\r\n        require(position.shares > 0, \"No shares to claim\");\r\n        \r\n        // Calculate claimable amount (backend will set this)\r\n        uint256 claimable = claimableBalances[marketId][msg.sender];\r\n        require(claimable > 0, \"No claimable balance\");\r\n        require(claimPredictionWinsPool >= claimable, \"Insufficient claim pool\");\r\n        \r\n        claimableBalances[marketId][msg.sender] = 0;\r\n        claimPredictionWinsPool -= claimable;\r\n        \r\n        // Transfer winnings\r\n        (bool success, ) = payable(msg.sender).call{value: claimable}(\"\");\r\n        require(success, \"Transfer failed\");\r\n        \r\n        emit MarketClaimed(marketId, msg.sender, outcome, claimable);\r\n    }\r\n    \r\n    /**\r\n     * @dev Get current price for an option (in basis points)\r\n     */\r\n    function getPrice(uint256 marketId, string memory outcome) external view validMarket(marketId) returns (uint256) {\r\n        Market storage market = markets[marketId];\r\n        if (market.totalLiquidity == 0) {\r\n            return (10000 / market.options.length);\r\n        }\r\n        return (market.liquidity[outcome] * 10000) / market.totalLiquidity;\r\n    }\r\n    \r\n    /**\r\n     * @dev Get user's market position\r\n     */\r\n    function getUserPosition(uint256 marketId, address user, string memory outcome) external view validMarket(marketId) returns (uint256 shares, uint256 totalInvested) {\r\n        MarketPosition storage position = marketPositions[marketId][user][outcome];\r\n        return (position.shares, position.totalInvested);\r\n    }\r\n    \r\n    /**\r\n     * @dev Get user's boost prediction\r\n     */\r\n    function getBoostPrediction(uint256 marketId, address user, string memory outcome) external view validMarket(marketId) returns (\r\n        address _user,\r\n        uint256 _totalStake,\r\n        bool _claimed\r\n    ) {\r\n        BoostPrediction storage prediction = boostPredictions[marketId][user][outcome];\r\n        return (prediction.user, prediction.totalStake, prediction.claimed);\r\n    }\r\n    \r\n    /**\r\n     * @dev Fund jackpot pool (deployer only)\r\n     */\r\n    function fundJackpotPool() external payable onlyDeployer {\r\n        require(msg.value > 0, \"Amount must be greater than 0\");\r\n        jackpotPool += msg.value;\r\n        emit JackpotFunded(msg.value);\r\n    }\r\n    \r\n    /**\r\n     * @dev User withdraw from jackpot pool\r\n     */\r\n    function withdrawJackpot(uint256 amount) external nonReentrant {\r\n        require(amount > 0, \"Amount must be greater than 0\");\r\n        require(jackpotPool >= amount, \"Insufficient jackpot pool\");\r\n        require(jackpotBalances[msg.sender] >= amount, \"Insufficient balance\");\r\n        \r\n        jackpotBalances[msg.sender] -= amount;\r\n        jackpotPool -= amount;\r\n        \r\n        (bool success, ) = payable(msg.sender).call{value: amount}(\"\");\r\n        require(success, \"Transfer failed\");\r\n        \r\n        emit JackpotWithdrawn(msg.sender, amount);\r\n    }\r\n    \r\n    /**\r\n     * @dev Set user's jackpot balance (called by backend)\r\n     */\r\n    function setJackpotBalance(address user, uint256 amount) external onlyDeployer {\r\n        jackpotBalances[user] = amount;\r\n    }\r\n    \r\n    /**\r\n     * @dev Withdraw from jackpot pool (deployer only)\r\n     */\r\n    function withdrawFromJackpotPool(address payable to, uint256 amount) external onlyDeployer nonReentrant {\r\n        require(jackpotPool >= amount, \"Insufficient pool balance\");\r\n        jackpotPool -= amount;\r\n        \r\n        (bool success, ) = to.call{value: amount}(\"\");\r\n        require(success, \"Transfer failed\");\r\n        \r\n        emit JackpotPoolWithdrawn(to, amount);\r\n    }\r\n    \r\n    /**\r\n     * @dev Get contract balance\r\n     */\r\n    function getContractBalance() external view returns (uint256) {\r\n        return address(this).balance;\r\n    }\r\n    \r\n    /**\r\n     * @dev Transfer funds from contract (deployer only)\r\n     */\r\n    function transferFunds(address payable to, uint256 amount) external onlyDeployer {\r\n        require(address(this).balance >= amount, \"Insufficient contract balance\");\r\n        \r\n        (bool success, ) = to.call{value: amount}(\"\");\r\n        require(success, \"Transfer failed\");\r\n        \r\n        emit FundsTransferred(to, amount);\r\n    }\r\n    \r\n    /**\r\n     * @dev Set superAdmin address\r\n     */\r\n    function setSuperAdmin(address _superAdmin) external onlySuperAdmin {\r\n        require(_superAdmin != address(0), \"Invalid address\");\r\n        superAdmin = _superAdmin;\r\n    }\r\n    \r\n    /**\r\n     * @dev Get jackpot balance for user\r\n     */\r\n    function getJackpotBalance(address user) external view returns (uint256) {\r\n        return jackpotBalances[user];\r\n    }\r\n    \r\n    /**\r\n     * @dev Get claimable balance for user\r\n     */\r\n    function getClaimableBalance(uint256 marketId, address user) external view returns (uint256) {\r\n        return claimableBalances[marketId][user];\r\n    }\r\n    \r\n    // Receive ETH\r\n    receive() external payable {\r\n        // Allow contract to receive ETH\r\n    }\r\n    \r\n    fallback() external payable {\r\n        // Allow contract to receive ETH\r\n    }\r\n}\r\n",
  "sourcePath": "C:\\Users\\Tolu John\\Desktop\\startups\\wergame-platform\\smart-contract\\contracts\\WeRgame.sol",
  "compiler": {
    "name": "solc",
    "version": "0.8.20+commit.a1b79de6.Emscripten.clang"
  },
  "schemaVersion": "3.4.16",
  "updatedAt": "2026-02-28T14:57:33.873Z",
  "networkType": "ethereum",
  "devdoc": {
    "details": "Comprehensive smart contract for prediction market platform Handles market creation, trading, boost predictions, and jackpot management",
    "kind": "dev",
    "methods": {
      "addBoostStake(uint256,string)": {
        "details": "Add more stake to existing boost prediction"
      },
      "addLiquidity(uint256,string,uint256)": {
        "details": "Add initial liquidity to a market option"
      },
      "buyMarketShares(uint256,string)": {
        "details": "Buy shares in market (fixed-sum AMM)"
      },
      "claimBoost(uint256,string)": {
        "details": "Claim boost prediction winnings"
      },
      "claimMarket(uint256,string)": {
        "details": "Claim market winnings after resolution"
      },
      "claimPredictionWins(uint256)": {
        "details": "Claim prediction winnings (Boost or Market) for a resolved market. Caller must have participated (recorded boost stake or market position in winning outcome) and have claimable balance set by deployer. Pays from the claimPredictionWinsPool."
      },
      "createMarket(bool,string[])": {
        "details": "Create a new market (match or poll)",
        "params": {
          "isPoll": "true if poll, false if match",
          "options": "array of outcome options"
        }
      },
      "fundClaimPredictionWinsPool()": {
        "details": "Fund the claim prediction wins pool (deployer only)."
      },
      "fundJackpotPool()": {
        "details": "Fund jackpot pool (deployer only)"
      },
      "getBoostPrediction(uint256,address,string)": {
        "details": "Get user's boost prediction"
      },
      "getClaimableBalance(uint256,address)": {
        "details": "Get claimable balance for user"
      },
      "getContractBalance()": {
        "details": "Get contract balance"
      },
      "getFees()": {
        "details": "Get current fees"
      },
      "getJackpotBalance(address)": {
        "details": "Get jackpot balance for user"
      },
      "getPrice(uint256,string)": {
        "details": "Get current price for an option (in basis points)"
      },
      "getUserPosition(uint256,address,string)": {
        "details": "Get user's market position"
      },
      "resolveMarket(uint256,string)": {
        "details": "Resolve a market"
      },
      "sellMarketShares(uint256,string,uint256)": {
        "details": "Sell shares in market"
      },
      "setClaimableBalance(uint256,address,uint256)": {
        "details": "Set claimable balance for a user (called by backend after resolution)"
      },
      "setFees(uint256,uint256,uint256,uint256)": {
        "details": "Set fees (in basis points)"
      },
      "setJackpotBalance(address,uint256)": {
        "details": "Set user's jackpot balance (called by backend)"
      },
      "setSuperAdmin(address)": {
        "details": "Set superAdmin address"
      },
      "stakeBoost(uint256,string)": {
        "details": "Stake ETH for boost prediction"
      },
      "transferFunds(address,uint256)": {
        "details": "Transfer funds from contract (deployer only)"
      },
      "updateMarketStatus(uint256,uint8)": {
        "details": "Update market status"
      },
      "withdrawBoostStake(uint256,string,uint256)": {
        "details": "Withdraw stake from boost prediction (only before resolution)"
      },
      "withdrawFromClaimPredictionWinsPool(address,uint256)": {
        "details": "Withdraw from claim prediction wins pool (deployer only)."
      },
      "withdrawFromJackpotPool(address,uint256)": {
        "details": "Withdraw from jackpot pool (deployer only)"
      },
      "withdrawJackpot(uint256)": {
        "details": "User withdraw from jackpot pool"
      }
    },
    "stateVariables": {
      "claimPredictionWinsPool": {
        "details": "Pool for paying Boost and Market prediction wins; funded by deployer and by boost stakes"
      }
    },
    "title": "WeRgame",
    "version": 1
  },
  "userdoc": {
    "kind": "user",
    "methods": {},
    "version": 1
  }
}