{
  "contractName": "WeRgame",
  "abi": [
    {
      "inputs": [],
      "stateMutability": "nonpayable",
      "type": "constructor"
    },
    {
      "anonymous": false,
      "inputs": [
        {
          "indexed": true,
          "internalType": "uint256",
          "name": "marketId",
          "type": "uint256"
        },
        {
          "indexed": true,
          "internalType": "address",
          "name": "user",
          "type": "address"
        },
        {
          "indexed": false,
          "internalType": "uint256",
          "name": "amount",
          "type": "uint256"
        }
      ],
      "name": "BoostClaimed",
      "type": "event"
    },
    {
      "anonymous": false,
      "inputs": [
        {
          "indexed": true,
          "internalType": "uint256",
          "name": "marketId",
          "type": "uint256"
        },
        {
          "indexed": true,
          "internalType": "address",
          "name": "user",
          "type": "address"
        },
        {
          "indexed": false,
          "internalType": "uint256",
          "name": "amount",
          "type": "uint256"
        }
      ],
      "name": "BoostStakeAdded",
      "type": "event"
    },
    {
      "anonymous": false,
      "inputs": [
        {
          "indexed": true,
          "internalType": "uint256",
          "name": "marketId",
          "type": "uint256"
        },
        {
          "indexed": true,
          "internalType": "address",
          "name": "user",
          "type": "address"
        },
        {
          "indexed": false,
          "internalType": "uint256",
          "name": "amount",
          "type": "uint256"
        }
      ],
      "name": "BoostStakeWithdrawn",
      "type": "event"
    },
    {
      "anonymous": false,
      "inputs": [
        {
          "indexed": true,
          "internalType": "uint256",
          "name": "marketId",
          "type": "uint256"
        },
        {
          "indexed": true,
          "internalType": "address",
          "name": "user",
          "type": "address"
        },
        {
          "indexed": false,
          "internalType": "string",
          "name": "outcome",
          "type": "string"
        },
        {
          "indexed": false,
          "internalType": "uint256",
          "name": "amount",
          "type": "uint256"
        }
      ],
      "name": "BoostStaked",
      "type": "event"
    },
    {
      "anonymous": false,
      "inputs": [
        {
          "indexed": false,
          "internalType": "uint256",
          "name": "platformFee",
          "type": "uint256"
        },
        {
          "indexed": false,
          "internalType": "uint256",
          "name": "boostJackpotFee",
          "type": "uint256"
        },
        {
          "indexed": false,
          "internalType": "uint256",
          "name": "marketPlatformFee",
          "type": "uint256"
        },
        {
          "indexed": false,
          "internalType": "uint256",
          "name": "freeJackpotFee",
          "type": "uint256"
        }
      ],
      "name": "FeesUpdated",
      "type": "event"
    },
    {
      "anonymous": false,
      "inputs": [
        {
          "indexed": true,
          "internalType": "address",
          "name": "to",
          "type": "address"
        },
        {
          "indexed": false,
          "internalType": "uint256",
          "name": "amount",
          "type": "uint256"
        }
      ],
      "name": "FundsTransferred",
      "type": "event"
    },
    {
      "anonymous": false,
      "inputs": [
        {
          "indexed": false,
          "internalType": "uint256",
          "name": "amount",
          "type": "uint256"
        }
      ],
      "name": "JackpotFunded",
      "type": "event"
    },
    {
      "anonymous": false,
      "inputs": [
        {
          "indexed": true,
          "internalType": "address",
          "name": "to",
          "type": "address"
        },
        {
          "indexed": false,
          "internalType": "uint256",
          "name": "amount",
          "type": "uint256"
        }
      ],
      "name": "JackpotPoolWithdrawn",
      "type": "event"
    },
    {
      "anonymous": false,
      "inputs": [
        {
          "indexed": true,
          "internalType": "address",
          "name": "user",
          "type": "address"
        },
        {
          "indexed": false,
          "internalType": "uint256",
          "name": "amount",
          "type": "uint256"
        }
      ],
      "name": "JackpotWithdrawn",
      "type": "event"
    },
    {
      "anonymous": false,
      "inputs": [
        {
          "indexed": true,
          "internalType": "uint256",
          "name": "marketId",
          "type": "uint256"
        },
        {
          "indexed": false,
          "internalType": "string",
          "name": "option",
          "type": "string"
        },
        {
          "indexed": false,
          "internalType": "uint256",
          "name": "amount",
          "type": "uint256"
        }
      ],
      "name": "LiquidityAdded",
      "type": "event"
    },
    {
      "anonymous": false,
      "inputs": [
        {
          "indexed": true,
          "internalType": "uint256",
          "name": "marketId",
          "type": "uint256"
        },
        {
          "indexed": true,
          "internalType": "address",
          "name": "user",
          "type": "address"
        },
        {
          "indexed": false,
          "internalType": "string",
          "name": "outcome",
          "type": "string"
        },
        {
          "indexed": false,
          "internalType": "uint256",
          "name": "ethAmount",
          "type": "uint256"
        },
        {
          "indexed": false,
          "internalType": "uint256",
          "name": "shares",
          "type": "uint256"
        }
      ],
      "name": "MarketBought",
      "type": "event"
    },
    {
      "anonymous": false,
      "inputs": [
        {
          "indexed": true,
          "internalType": "uint256",
          "name": "marketId",
          "type": "uint256"
        },
        {
          "indexed": true,
          "internalType": "address",
          "name": "user",
          "type": "address"
        },
        {
          "indexed": false,
          "internalType": "string",
          "name": "outcome",
          "type": "string"
        },
        {
          "indexed": false,
          "internalType": "uint256",
          "name": "amount",
          "type": "uint256"
        }
      ],
      "name": "MarketClaimed",
      "type": "event"
    },
    {
      "anonymous": false,
      "inputs": [
        {
          "indexed": true,
          "internalType": "uint256",
          "name": "marketId",
          "type": "uint256"
        },
        {
          "indexed": false,
          "internalType": "bool",
          "name": "isPoll",
          "type": "bool"
        },
        {
          "indexed": false,
          "internalType": "string[]",
          "name": "options",
          "type": "string[]"
        }
      ],
      "name": "MarketCreated",
      "type": "event"
    },
    {
      "anonymous": false,
      "inputs": [
        {
          "indexed": true,
          "internalType": "uint256",
          "name": "marketId",
          "type": "uint256"
        },
        {
          "indexed": false,
          "internalType": "string",
          "name": "winningOption",
          "type": "string"
        }
      ],
      "name": "MarketResolved",
      "type": "event"
    },
    {
      "anonymous": false,
      "inputs": [
        {
          "indexed": true,
          "internalType": "uint256",
          "name": "marketId",
          "type": "uint256"
        },
        {
          "indexed": true,
          "internalType": "address",
          "name": "user",
          "type": "address"
        },
        {
          "indexed": false,
          "internalType": "string",
          "name": "outcome",
          "type": "string"
        },
        {
          "indexed": false,
          "internalType": "uint256",
          "name": "shares",
          "type": "uint256"
        },
        {
          "indexed": false,
          "internalType": "uint256",
          "name": "ethAmount",
          "type": "uint256"
        }
      ],
      "name": "MarketSold",
      "type": "event"
    },
    {
      "anonymous": false,
      "inputs": [
        {
          "indexed": true,
          "internalType": "uint256",
          "name": "marketId",
          "type": "uint256"
        },
        {
          "indexed": false,
          "internalType": "enum WeRgame.MarketStatus",
          "name": "status",
          "type": "uint8"
        }
      ],
      "name": "MarketStatusUpdated",
      "type": "event"
    },
    {
      "stateMutability": "payable",
      "type": "fallback",
      "payable": true
    },
    {
      "inputs": [],
      "name": "boostJackpotFee",
      "outputs": [
        {
          "internalType": "uint256",
          "name": "",
          "type": "uint256"
        }
      ],
      "stateMutability": "view",
      "type": "function",
      "constant": true
    },
    {
      "inputs": [
        {
          "internalType": "uint256",
          "name": "",
          "type": "uint256"
        },
        {
          "internalType": "address",
          "name": "",
          "type": "address"
        },
        {
          "internalType": "string",
          "name": "",
          "type": "string"
        }
      ],
      "name": "boostPredictions",
      "outputs": [
        {
          "internalType": "address",
          "name": "user",
          "type": "address"
        },
        {
          "internalType": "uint256",
          "name": "marketId",
          "type": "uint256"
        },
        {
          "internalType": "string",
          "name": "outcome",
          "type": "string"
        },
        {
          "internalType": "uint256",
          "name": "stakeAmount",
          "type": "uint256"
        },
        {
          "internalType": "uint256",
          "name": "totalStake",
          "type": "uint256"
        },
        {
          "internalType": "bool",
          "name": "claimed",
          "type": "bool"
        }
      ],
      "stateMutability": "view",
      "type": "function",
      "constant": true
    },
    {
      "inputs": [
        {
          "internalType": "uint256",
          "name": "",
          "type": "uint256"
        },
        {
          "internalType": "address",
          "name": "",
          "type": "address"
        }
      ],
      "name": "claimableBalances",
      "outputs": [
        {
          "internalType": "uint256",
          "name": "",
          "type": "uint256"
        }
      ],
      "stateMutability": "view",
      "type": "function",
      "constant": true
    },
    {
      "inputs": [],
      "name": "deployer",
      "outputs": [
        {
          "internalType": "address",
          "name": "",
          "type": "address"
        }
      ],
      "stateMutability": "view",
      "type": "function",
      "constant": true
    },
    {
      "inputs": [],
      "name": "freeJackpotFee",
      "outputs": [
        {
          "internalType": "uint256",
          "name": "",
          "type": "uint256"
        }
      ],
      "stateMutability": "view",
      "type": "function",
      "constant": true
    },
    {
      "inputs": [
        {
          "internalType": "address",
          "name": "",
          "type": "address"
        }
      ],
      "name": "jackpotBalances",
      "outputs": [
        {
          "internalType": "uint256",
          "name": "",
          "type": "uint256"
        }
      ],
      "stateMutability": "view",
      "type": "function",
      "constant": true
    },
    {
      "inputs": [],
      "name": "jackpotPool",
      "outputs": [
        {
          "internalType": "uint256",
          "name": "",
          "type": "uint256"
        }
      ],
      "stateMutability": "view",
      "type": "function",
      "constant": true
    },
    {
      "inputs": [],
      "name": "marketPlatformFee",
      "outputs": [
        {
          "internalType": "uint256",
          "name": "",
          "type": "uint256"
        }
      ],
      "stateMutability": "view",
      "type": "function",
      "constant": true
    },
    {
      "inputs": [
        {
          "internalType": "uint256",
          "name": "",
          "type": "uint256"
        },
        {
          "internalType": "address",
          "name": "",
          "type": "address"
        },
        {
          "internalType": "string",
          "name": "",
          "type": "string"
        }
      ],
      "name": "marketPositions",
      "outputs": [
        {
          "internalType": "address",
          "name": "user",
          "type": "address"
        },
        {
          "internalType": "string",
          "name": "outcome",
          "type": "string"
        },
        {
          "internalType": "uint256",
          "name": "shares",
          "type": "uint256"
        },
        {
          "internalType": "uint256",
          "name": "totalInvested",
          "type": "uint256"
        }
      ],
      "stateMutability": "view",
      "type": "function",
      "constant": true
    },
    {
      "inputs": [
        {
          "internalType": "uint256",
          "name": "",
          "type": "uint256"
        }
      ],
      "name": "markets",
      "outputs": [
        {
          "internalType": "uint256",
          "name": "marketId",
          "type": "uint256"
        },
        {
          "internalType": "bool",
          "name": "isPoll",
          "type": "bool"
        },
        {
          "internalType": "enum WeRgame.MarketStatus",
          "name": "status",
          "type": "uint8"
        },
        {
          "internalType": "uint256",
          "name": "totalLiquidity",
          "type": "uint256"
        },
        {
          "internalType": "bool",
          "name": "resolved",
          "type": "bool"
        },
        {
          "internalType": "string",
          "name": "winningOption",
          "type": "string"
        },
        {
          "internalType": "uint256",
          "name": "createdAt",
          "type": "uint256"
        },
        {
          "internalType": "uint256",
          "name": "resolvedAt",
          "type": "uint256"
        }
      ],
      "stateMutability": "view",
      "type": "function",
      "constant": true
    },
    {
      "inputs": [],
      "name": "nextMarketId",
      "outputs": [
        {
          "internalType": "uint256",
          "name": "",
          "type": "uint256"
        }
      ],
      "stateMutability": "view",
      "type": "function",
      "constant": true
    },
    {
      "inputs": [],
      "name": "platformFee",
      "outputs": [
        {
          "internalType": "uint256",
          "name": "",
          "type": "uint256"
        }
      ],
      "stateMutability": "view",
      "type": "function",
      "constant": true
    },
    {
      "inputs": [],
      "name": "superAdmin",
      "outputs": [
        {
          "internalType": "address",
          "name": "",
          "type": "address"
        }
      ],
      "stateMutability": "view",
      "type": "function",
      "constant": true
    },
    {
      "stateMutability": "payable",
      "type": "receive",
      "payable": true
    },
    {
      "inputs": [
        {
          "internalType": "bool",
          "name": "isPoll",
          "type": "bool"
        },
        {
          "internalType": "string[]",
          "name": "options",
          "type": "string[]"
        }
      ],
      "name": "createMarket",
      "outputs": [
        {
          "internalType": "uint256",
          "name": "",
          "type": "uint256"
        }
      ],
      "stateMutability": "nonpayable",
      "type": "function"
    },
    {
      "inputs": [
        {
          "internalType": "uint256",
          "name": "marketId",
          "type": "uint256"
        },
        {
          "internalType": "enum WeRgame.MarketStatus",
          "name": "status",
          "type": "uint8"
        }
      ],
      "name": "updateMarketStatus",
      "outputs": [],
      "stateMutability": "nonpayable",
      "type": "function"
    },
    {
      "inputs": [
        {
          "internalType": "uint256",
          "name": "marketId",
          "type": "uint256"
        },
        {
          "internalType": "string",
          "name": "option",
          "type": "string"
        },
        {
          "internalType": "uint256",
          "name": "amount",
          "type": "uint256"
        }
      ],
      "name": "addLiquidity",
      "outputs": [],
      "stateMutability": "payable",
      "type": "function",
      "payable": true
    },
    {
      "inputs": [
        {
          "internalType": "uint256",
          "name": "marketId",
          "type": "uint256"
        },
        {
          "internalType": "string",
          "name": "winningOption",
          "type": "string"
        }
      ],
      "name": "resolveMarket",
      "outputs": [],
      "stateMutability": "nonpayable",
      "type": "function"
    },
    {
      "inputs": [
        {
          "internalType": "uint256",
          "name": "_platformFee",
          "type": "uint256"
        },
        {
          "internalType": "uint256",
          "name": "_boostJackpotFee",
          "type": "uint256"
        },
        {
          "internalType": "uint256",
          "name": "_marketPlatformFee",
          "type": "uint256"
        },
        {
          "internalType": "uint256",
          "name": "_freeJackpotFee",
          "type": "uint256"
        }
      ],
      "name": "setFees",
      "outputs": [],
      "stateMutability": "nonpayable",
      "type": "function"
    },
    {
      "inputs": [],
      "name": "getFees",
      "outputs": [
        {
          "internalType": "uint256",
          "name": "_platformFee",
          "type": "uint256"
        },
        {
          "internalType": "uint256",
          "name": "_boostJackpotFee",
          "type": "uint256"
        },
        {
          "internalType": "uint256",
          "name": "_marketPlatformFee",
          "type": "uint256"
        },
        {
          "internalType": "uint256",
          "name": "_freeJackpotFee",
          "type": "uint256"
        }
      ],
      "stateMutability": "view",
      "type": "function",
      "constant": true
    },
    {
      "inputs": [
        {
          "internalType": "uint256",
          "name": "marketId",
          "type": "uint256"
        },
        {
          "internalType": "string",
          "name": "outcome",
          "type": "string"
        }
      ],
      "name": "stakeBoost",
      "outputs": [],
      "stateMutability": "payable",
      "type": "function",
      "payable": true
    },
    {
      "inputs": [
        {
          "internalType": "uint256",
          "name": "marketId",
          "type": "uint256"
        },
        {
          "internalType": "string",
          "name": "outcome",
          "type": "string"
        }
      ],
      "name": "addBoostStake",
      "outputs": [],
      "stateMutability": "payable",
      "type": "function",
      "payable": true
    },
    {
      "inputs": [
        {
          "internalType": "uint256",
          "name": "marketId",
          "type": "uint256"
        },
        {
          "internalType": "string",
          "name": "outcome",
          "type": "string"
        },
        {
          "internalType": "uint256",
          "name": "amount",
          "type": "uint256"
        }
      ],
      "name": "withdrawBoostStake",
      "outputs": [],
      "stateMutability": "nonpayable",
      "type": "function"
    },
    {
      "inputs": [
        {
          "internalType": "uint256",
          "name": "marketId",
          "type": "uint256"
        },
        {
          "internalType": "string",
          "name": "outcome",
          "type": "string"
        }
      ],
      "name": "claimBoost",
      "outputs": [],
      "stateMutability": "nonpayable",
      "type": "function"
    },
    {
      "inputs": [
        {
          "internalType": "uint256",
          "name": "marketId",
          "type": "uint256"
        },
        {
          "internalType": "address",
          "name": "user",
          "type": "address"
        },
        {
          "internalType": "uint256",
          "name": "amount",
          "type": "uint256"
        }
      ],
      "name": "setClaimableBalance",
      "outputs": [],
      "stateMutability": "nonpayable",
      "type": "function"
    },
    {
      "inputs": [
        {
          "internalType": "uint256",
          "name": "marketId",
          "type": "uint256"
        },
        {
          "internalType": "string",
          "name": "outcome",
          "type": "string"
        }
      ],
      "name": "buyMarketShares",
      "outputs": [],
      "stateMutability": "payable",
      "type": "function",
      "payable": true
    },
    {
      "inputs": [
        {
          "internalType": "uint256",
          "name": "marketId",
          "type": "uint256"
        },
        {
          "internalType": "string",
          "name": "outcome",
          "type": "string"
        },
        {
          "internalType": "uint256",
          "name": "shares",
          "type": "uint256"
        }
      ],
      "name": "sellMarketShares",
      "outputs": [],
      "stateMutability": "nonpayable",
      "type": "function"
    },
    {
      "inputs": [
        {
          "internalType": "uint256",
          "name": "marketId",
          "type": "uint256"
        },
        {
          "internalType": "string",
          "name": "outcome",
          "type": "string"
        }
      ],
      "name": "claimMarket",
      "outputs": [],
      "stateMutability": "nonpayable",
      "type": "function"
    },
    {
      "inputs": [
        {
          "internalType": "uint256",
          "name": "marketId",
          "type": "uint256"
        },
        {
          "internalType": "string",
          "name": "outcome",
          "type": "string"
        }
      ],
      "name": "getPrice",
      "outputs": [
        {
          "internalType": "uint256",
          "name": "",
          "type": "uint256"
        }
      ],
      "stateMutability": "view",
      "type": "function",
      "constant": true
    },
    {
      "inputs": [
        {
          "internalType": "uint256",
          "name": "marketId",
          "type": "uint256"
        },
        {
          "internalType": "address",
          "name": "user",
          "type": "address"
        },
        {
          "internalType": "string",
          "name": "outcome",
          "type": "string"
        }
      ],
      "name": "getUserPosition",
      "outputs": [
        {
          "internalType": "uint256",
          "name": "shares",
          "type": "uint256"
        },
        {
          "internalType": "uint256",
          "name": "totalInvested",
          "type": "uint256"
        }
      ],
      "stateMutability": "view",
      "type": "function",
      "constant": true
    },
    {
      "inputs": [
        {
          "internalType": "uint256",
          "name": "marketId",
          "type": "uint256"
        },
        {
          "internalType": "address",
          "name": "user",
          "type": "address"
        },
        {
          "internalType": "string",
          "name": "outcome",
          "type": "string"
        }
      ],
      "name": "getBoostPrediction",
      "outputs": [
        {
          "internalType": "address",
          "name": "_user",
          "type": "address"
        },
        {
          "internalType": "uint256",
          "name": "_totalStake",
          "type": "uint256"
        },
        {
          "internalType": "bool",
          "name": "_claimed",
          "type": "bool"
        }
      ],
      "stateMutability": "view",
      "type": "function",
      "constant": true
    },
    {
      "inputs": [],
      "name": "fundJackpotPool",
      "outputs": [],
      "stateMutability": "payable",
      "type": "function",
      "payable": true
    },
    {
      "inputs": [
        {
          "internalType": "uint256",
          "name": "amount",
          "type": "uint256"
        }
      ],
      "name": "withdrawJackpot",
      "outputs": [],
      "stateMutability": "nonpayable",
      "type": "function"
    },
    {
      "inputs": [
        {
          "internalType": "address",
          "name": "user",
          "type": "address"
        },
        {
          "internalType": "uint256",
          "name": "amount",
          "type": "uint256"
        }
      ],
      "name": "setJackpotBalance",
      "outputs": [],
      "stateMutability": "nonpayable",
      "type": "function"
    },
    {
      "inputs": [
        {
          "internalType": "address payable",
          "name": "to",
          "type": "address"
        },
        {
          "internalType": "uint256",
          "name": "amount",
          "type": "uint256"
        }
      ],
      "name": "withdrawFromJackpotPool",
      "outputs": [],
      "stateMutability": "nonpayable",
      "type": "function"
    },
    {
      "inputs": [],
      "name": "getContractBalance",
      "outputs": [
        {
          "internalType": "uint256",
          "name": "",
          "type": "uint256"
        }
      ],
      "stateMutability": "view",
      "type": "function",
      "constant": true
    },
    {
      "inputs": [
        {
          "internalType": "address payable",
          "name": "to",
          "type": "address"
        },
        {
          "internalType": "uint256",
          "name": "amount",
          "type": "uint256"
        }
      ],
      "name": "transferFunds",
      "outputs": [],
      "stateMutability": "nonpayable",
      "type": "function"
    },
    {
      "inputs": [
        {
          "internalType": "address",
          "name": "_superAdmin",
          "type": "address"
        }
      ],
      "name": "setSuperAdmin",
      "outputs": [],
      "stateMutability": "nonpayable",
      "type": "function"
    },
    {
      "inputs": [
        {
          "internalType": "address",
          "name": "user",
          "type": "address"
        }
      ],
      "name": "getJackpotBalance",
      "outputs": [
        {
          "internalType": "uint256",
          "name": "",
          "type": "uint256"
        }
      ],
      "stateMutability": "view",
      "type": "function",
      "constant": true
    },
    {
      "inputs": [
        {
          "internalType": "uint256",
          "name": "marketId",
          "type": "uint256"
        },
        {
          "internalType": "address",
          "name": "user",
          "type": "address"
        }
      ],
      "name": "getClaimableBalance",
      "outputs": [
        {
          "internalType": "uint256",
          "name": "",
          "type": "uint256"
        }
      ],
      "stateMutability": "view",
      "type": "function",
      "constant": true
    }
  ],
  "bytecode": "0x608060405234801561000f575f80fd5b505f8054336001600160a01b031991821681178355600180549092161781556103e86002556101f460038190556004819055600555600b556136d790819061005690395ff3fe60806040526004361061021b575f3560e01c8063a2ddbca511610121578063ce1ea42b116100a4578063de9a81451161006b578063de9a8145146106c2578063eae90d79146106ca578063f87dd74b146106dd578063f95d530b1461071e578063fbf91a141461073d57005b8063ce1ea42b14610619578063d437441e14610638578063d5f394881461064d578063db8d55f11461066b578063dcc8dee9146106a357005b8063b3e60a26116100e8578063b3e60a261461055d578063c01744e9146105a3578063c1730ee1146105b6578063c4fe7547146105e7578063c75bb724146105fa57005b8063a2ddbca5146104af578063b00e0395146104ce578063b05b32ae14610502578063b1283e7714610517578063b2e12adc1461054a57005b80633ed72408116101a9578063698d2d7611610170578063698d2d76146104215780636f9fb98a146104405780636fcba37714610452578063990dc9db146104715780639f1d02461461049057005b80633ed724081461038e578063406ef2ef146103ad57806348d0eca2146103c2578063663370c1146103e15780636822d823146103f657005b806318bb1f29116101ed57806318bb1f29146102c057806326232a2e146102ef578063277c02aa1461030457806329575f6a146103235780633577392e1461035a57005b8063012e293814610224578063019d6694146102435780630325bbe81461028c57806315700052146102a157005b3661022257005b005b34801561022f575f80fd5b5061022261023e366004612e48565b61075c565b34801561024e575f80fd5b5061027961025d366004612ea3565b600960209081525f928352604080842090915290825290205481565b6040519081526020015b60405180910390f35b348015610297575f80fd5b5061027960045481565b3480156102ac575f80fd5b506102226102bb366004612ed1565b610a8b565b3480156102cb575f80fd5b506102df6102da366004612ef3565b610b55565b6040516102839493929190612f95565b3480156102fa575f80fd5b5061027960025481565b34801561030f575f80fd5b5061022261031e366004612fcb565b610c33565b34801561032e575f80fd5b50600154610342906001600160a01b031681565b6040516001600160a01b039091168152602001610283565b348015610365575f80fd5b50610379610374366004612ef3565b610c77565b60408051928352602083019190915201610283565b348015610399575f80fd5b506102226103a8366004612ff5565b610cfe565b3480156103b8575f80fd5b50610279600b5481565b3480156103cd575f80fd5b506102226103dc366004613041565b610f1c565b3480156103ec575f80fd5b5061027960035481565b348015610401575f80fd5b50610279610410366004612ed1565b600a6020525f908152604090205481565b34801561042c575f80fd5b5061027961043b366004612e48565b610fe3565b34801561044b575f80fd5b5047610279565b34801561045d575f80fd5b5061022261046c366004613067565b61108b565b34801561047c575f80fd5b5061022261048b366004612fcb565b6111c9565b34801561049b575f80fd5b506102796104aa366004613096565b6112ec565b3480156104ba575f80fd5b506102226104c9366004612fcb565b6114c5565b3480156104d9575f80fd5b506102796104e8366004612ed1565b6001600160a01b03165f908152600a602052604090205490565b34801561050d575f80fd5b50610279600c5481565b348015610522575f80fd5b5061053661053136600461316c565b6115ff565b6040516102839897969594939291906131b7565b610222610558366004612e48565b6116d3565b348015610568575f80fd5b5061057c610577366004612ef3565b611977565b604080516001600160a01b0390941684526020840192909252151590820152606001610283565b6102226105b1366004612ff5565b611a14565b3480156105c1575f80fd5b506105d56105d0366004612ef3565b611c7b565b6040516102839695949392919061320b565b6102226105f5366004612e48565b611d6a565b348015610605575f80fd5b50610222610614366004612e48565b612108565b348015610624575f80fd5b5061022261063336600461316c565b6122f2565b348015610643575f80fd5b5061027960055481565b348015610658575f80fd5b505f54610342906001600160a01b031681565b348015610676575f80fd5b50600254600354600454600554604080519485526020850193909352918301526060820152608001610283565b3480156106ae575f80fd5b506102226106bd366004613251565b612491565b6102226124df565b6102226106d8366004612e48565b612572565b3480156106e8575f80fd5b506102796106f7366004612ea3565b5f9182526009602090815260408084206001600160a01b0393909316845291905290205490565b348015610729575f80fd5b50610222610738366004612e48565b612765565b348015610748575f80fd5b50610222610757366004612ff5565b612a2f565b5f828152600660205260408120548391036107925760405162461bcd60e51b815260040161078990613286565b60405180910390fd5b5f8381526006602081905260409091209081015460ff166107eb5760405162461bcd60e51b815260206004820152601360248201527213585c9ad95d081b9bdd081c995cdbdb1d9959606a1b6044820152606401610789565b825160208401206040516108039060078401906132ed565b60405180910390201461084e5760405162461bcd60e51b81526020600482015260136024820152724e6f742077696e6e696e67206f7574636f6d6560681b6044820152606401610789565b5f848152600760209081526040808320338452909152808220905161087490869061335f565b90815260405190819003602001902080549091506001600160a01b031633146108d55760405162461bcd60e51b8152602060048201526013602482015272139bc81c1c99591a58dd1a5bdb88199bdd5b99606a1b6044820152606401610789565b600581015460ff161561091c5760405162461bcd60e51b815260206004820152600f60248201526e105b1c9958591e4818db185a5b5959608a1b6044820152606401610789565b5f8160040154116109635760405162461bcd60e51b81526020600482015260116024820152704e6f207374616b6520746f20636c61696d60781b6044820152606401610789565b5f858152600960209081526040808320338452909152902054806109c05760405162461bcd60e51b81526020600482015260146024820152734e6f20636c61696d61626c652062616c616e636560601b6044820152606401610789565b60058201805460ff191660011790555f8681526009602090815260408083203380855292528083208390555183908381818185875af1925050503d805f8114610a24576040519150601f19603f3d011682016040523d82523d5f602084013e610a29565b606091505b5050905080610a4a5760405162461bcd60e51b81526004016107899061337a565b604051828152339088907f20e28d0ec25cd6e7b3ce931db96b9a33e940a54a32e1c0b8379e7660a2828c69906020015b60405180910390a350505050505050565b6001546001600160a01b0316331480610aad57505f546001600160a01b031633145b610aeb5760405162461bcd60e51b815260206004820152600f60248201526e27b7363c9039bab832b920b236b4b760891b6044820152606401610789565b6001600160a01b038116610b335760405162461bcd60e51b815260206004820152600f60248201526e496e76616c6964206164647265737360881b6044820152606401610789565b600180546001600160a01b0319166001600160a01b0392909216919091179055565b600860209081525f9384526040808520825292845291909220825180840183018051928152908301939092019290922091905280546001820180546001600160a01b039092169291610ba6906132b5565b80601f0160208091040260200160405190810160405280929190818152602001828054610bd2906132b5565b8015610c1d5780601f10610bf457610100808354040283529160200191610c1d565b820191905f5260205f20905b815481529060010190602001808311610c0057829003601f168201915b5050505050908060020154908060030154905084565b5f546001600160a01b03163314610c5c5760405162461bcd60e51b8152600401610789906133a3565b6001600160a01b039091165f908152600a6020526040902055565b5f83815260066020526040812054819085908203610ca75760405162461bcd60e51b815260040161078990613286565b5f8681526008602090815260408083206001600160a01b03891684529091528082209051610cd690879061335f565b9081526020016040518091039020905080600201548160030154935093505050935093915050565b5f83815260066020526040812054849103610d2b5760405162461bcd60e51b815260040161078990613286565b5f848152600660205260408120906001820154610100900460ff166003811115610d5757610d57613183565b1480610d7f5750600180820154610100900460ff166003811115610d7d57610d7d613183565b145b610d9b5760405162461bcd60e51b8152600401610789906133ca565b5f8581526007602090815260408083203384529091528082209051610dc190879061335f565b90815260405190819003602001902080549091506001600160a01b03163314610e225760405162461bcd60e51b8152602060048201526013602482015272139bc81c1c99591a58dd1a5bdb88199bdd5b99606a1b6044820152606401610789565b8381600401541015610e6b5760405162461bcd60e51b8152602060048201526012602482015271496e73756666696369656e74207374616b6560701b6044820152606401610789565b83816004015f828254610e7e9190613409565b90915550506040515f90339086908381818185875af1925050503d805f8114610ec2576040519150601f19603f3d011682016040523d82523d5f602084013e610ec7565b606091505b5050905080610ee85760405162461bcd60e51b81526004016107899061337a565b604051858152339088907fbcbb1a32e70b3a4c7e261bf1aa686d9baefa195ed797e1225c008ae953d6f1cf90602001610a7a565b5f546001600160a01b03163314610f455760405162461bcd60e51b8152600401610789906133a3565b5f82815260066020526040812054839103610f725760405162461bcd60e51b815260040161078990613286565b5f838152600660205260409020600101805483919061ff001916610100836003811115610fa157610fa1613183565b0217905550827fd067ebf1565b7b7f7e3c08ccb7f355defc06fd6a3e5e3da1f0a43c8a235350ac83604051610fd6919061341c565b60405180910390a2505050565b5f82815260066020526040812054839082036110115760405162461bcd60e51b815260040161078990613286565b5f848152600660205260408120600581015490910361104357600281015461103b9061271061342a565b925050611084565b8060050154816003018560405161105a919061335f565b9081526020016040518091039020546127106110769190613449565b611080919061342a565b9250505b5092915050565b6001546001600160a01b03163314806110ad57505f546001600160a01b031633145b6110eb5760405162461bcd60e51b815260206004820152600f60248201526e27b7363c9039bab832b920b236b4b760891b6044820152606401610789565b61271084111580156110ff57506127108311155b801561110d57506127108211155b801561111b57506127108111155b6111675760405162461bcd60e51b815260206004820152601760248201527f466565732063616e6e6f742065786365656420313030250000000000000000006044820152606401610789565b60028490556003839055600482905560058190556040805185815260208101859052908101839052606081018290527f16e6f67290546b8dd0e587f4b7f67d4f61932ae17ffd8c60d3509dbc05c175fe9060800160405180910390a150505050565b5f546001600160a01b031633146111f25760405162461bcd60e51b8152600401610789906133a3565b804710156112425760405162461bcd60e51b815260206004820152601d60248201527f496e73756666696369656e7420636f6e74726163742062616c616e63650000006044820152606401610789565b5f826001600160a01b0316826040515f6040518083038185875af1925050503d805f811461128b576040519150601f19603f3d011682016040523d82523d5f602084013e611290565b606091505b50509050806112b15760405162461bcd60e51b81526004016107899061337a565b826001600160a01b03167f8c9a4f13b67cb64d7c6aa1ae0c9bf07694af521a28b93e7060020810ab4bc59f83604051610fd691815260200190565b5f80546001600160a01b031633146113165760405162461bcd60e51b8152600401610789906133a3565b6002825110156113685760405162461bcd60e51b815260206004820152601c60248201527f4d7573742068617665206174206c656173742032206f7074696f6e73000000006044820152606401610789565b600b80545f918261137883613460565b909155505f81815260066020526040812082815560018101805461ffff191688151561ff0019161790554260088201559192505b845181101561148057816002018582815181106113cb576113cb613478565b60209081029190910181015182546001810184555f9384529190922001906113f390826134da565b505f8260030186838151811061140b5761140b613478565b6020026020010151604051611420919061335f565b9081526020016040518091039020819055505f8260040186838151811061144957611449613478565b602002602001015160405161145e919061335f565b908152604051908190036020019020558061147881613460565b9150506113ac565b50817f41671df7de79859ef92d2dc3d0936d3890eea9d4dda0c64e7d375277f2e5e7a186866040516114b3929190613596565b60405180910390a25090505b92915050565b5f546001600160a01b031633146114ee5760405162461bcd60e51b8152600401610789906133a3565b80600c5410156115405760405162461bcd60e51b815260206004820152601960248201527f496e73756666696369656e7420706f6f6c2062616c616e6365000000000000006044820152606401610789565b80600c5f8282546115519190613409565b90915550506040515f906001600160a01b0384169083908381818185875af1925050503d805f811461159e576040519150601f19603f3d011682016040523d82523d5f602084013e6115a3565b606091505b50509050806115c45760405162461bcd60e51b81526004016107899061337a565b826001600160a01b03167f05388187d2d8839bf46fead5ad128385c82076ad81b57a1278382a2f77ca244483604051610fd691815260200190565b600660208190525f918252604090912080546001820154600583015493830154600784018054939560ff8085169661010090950481169591949316929190611646906132b5565b80601f0160208091040260200160405190810160405280929190818152602001828054611672906132b5565b80156116bd5780601f10611694576101008083540402835291602001916116bd565b820191905f5260205f20905b8154815290600101906020018083116116a057829003601f168201915b5050505050908060080154908060090154905088565b5f828152600660205260408120548391036117005760405162461bcd60e51b815260040161078990613286565b5f341161171f5760405162461bcd60e51b815260040161078990613600565b5f838152600660205260408120906001820154610100900460ff16600381111561174b5761174b613183565b14806117735750600180820154610100900460ff16600381111561177157611771613183565b145b61178f5760405162461bcd60e51b8152600401610789906133ca565b5f805b60028301548110156117f85784805190602001208360020182815481106117bb576117bb613478565b905f5260205f20016040516117d091906132ed565b6040518091039020036117e657600191506117f8565b806117f081613460565b915050611792565b50806118385760405162461bcd60e51b815260206004820152600f60248201526e496e76616c6964206f7574636f6d6560881b6044820152606401610789565b5f6127106002543461184a9190613449565b611854919061342a565b90505f612710600354346118689190613449565b611872919061342a565b90505f816118808434613409565b61188a9190613409565b5f898152600760209081526040808320338452909152808220905192935090916118b5908a9061335f565b90815260405190819003602001902080549091506001600160a01b031661190f5780546001600160a01b0319163317815560018101899055600281016118fb89826134da565b506003810182905560048101829055611928565b81816004015f8282546119229190613637565b90915550505b336001600160a01b0316897f9af5caefb8cea3d0910b8a9636232b856d7fadb93249d5b0bfbeab7c38f792168a8560405161196492919061364a565b60405180910390a3505050505050505050565b5f8381526006602052604081205481908190869082036119a95760405162461bcd60e51b815260040161078990613286565b5f8781526007602090815260408083206001600160a01b038a16845290915280822090516119d890889061335f565b908152604051908190036020019020805460048201546005909201546001600160a01b03909116965090945060ff169250505093509350939050565b5f546001600160a01b03163314611a3d5760405162461bcd60e51b8152600401610789906133a3565b5f83815260066020526040812054849103611a6a5760405162461bcd60e51b815260040161078990613286565b81341015611ab25760405162461bcd60e51b8152602060048201526015602482015274125b9cdd59999a58da595b9d08115512081cd95b9d605a1b6044820152606401610789565b5f3411611ad15760405162461bcd60e51b815260040161078990613600565b5f848152600660205260408120906001820154610100900460ff166003811115611afd57611afd613183565b1480611b255750600180820154610100900460ff166003811115611b2357611b23613183565b145b611b415760405162461bcd60e51b8152600401610789906133ca565b5f805b6002830154811015611baa578580519060200120836002018281548110611b6d57611b6d613478565b905f5260205f2001604051611b8291906132ed565b604051809103902003611b985760019150611baa565b80611ba281613460565b915050611b44565b5080611be95760405162461bcd60e51b815260206004820152600e60248201526d24b73b30b634b21037b83a34b7b760911b6044820152606401610789565b838260030186604051611bfc919061335f565b90815260200160405180910390205f828254611c189190613637565b9250508190555083826005015f828254611c329190613637565b92505081905550857faa83f946898046e98d04323d1f949f879cd43a774cb0981f1025ce3caa9afc8c8686604051611c6b92919061364a565b60405180910390a2505050505050565b600760209081525f93845260408085208252928452919092208251808401830180519281529083019390920192909220919052805460018201546002830180546001600160a01b03909316939192611cd2906132b5565b80601f0160208091040260200160405190810160405280929190818152602001828054611cfe906132b5565b8015611d495780601f10611d2057610100808354040283529160200191611d49565b820191905f5260205f20905b815481529060010190602001808311611d2c57829003601f168201915b50505050600383015460048401546005909401549293909290915060ff1686565b5f82815260066020526040812054839103611d975760405162461bcd60e51b815260040161078990613286565b5f3411611db65760405162461bcd60e51b815260040161078990613600565b5f838152600660205260408120906001820154610100900460ff166003811115611de257611de2613183565b1480611e0a5750600180820154610100900460ff166003811115611e0857611e08613183565b145b611e265760405162461bcd60e51b8152600401610789906133ca565b5f805b6002830154811015611e8f578480519060200120836002018281548110611e5257611e52613478565b905f5260205f2001604051611e6791906132ed565b604051809103902003611e7d5760019150611e8f565b80611e8781613460565b915050611e29565b5080611ecf5760405162461bcd60e51b815260206004820152600f60248201526e496e76616c6964206f7574636f6d6560881b6044820152606401610789565b5f61271060045434611ee19190613449565b611eeb919061342a565b90505f61271060055434611eff9190613449565b611f09919061342a565b90505f81611f178434613409565b611f219190613409565b90505f80866005015411611f45576002860154611f409061271061342a565b611f82565b85600501548660030189604051611f5c919061335f565b908152602001604051809103902054612710611f789190613449565b611f82919061342a565b90505f81611f9284612710613449565b611f9c919061342a565b905082876003018a604051611fb1919061335f565b90815260200160405180910390205f828254611fcd9190613637565b9250508190555082876005015f828254611fe79190613637565b9250508190555080876004018a604051612001919061335f565b90815260200160405180910390205f82825461201d9190613637565b90915550505f8a81526008602090815260408083203384529091528082209051612048908c9061335f565b90815260405190819003602001902080549091506001600160a01b03166120895780546001600160a01b03191633178155600181016120878b826134da565b505b81816002015f82825461209c9190613637565b9250508190555083816003015f8282546120b69190613637565b909155505060405133908c907f65b9cf5504284839513abe58c29b419750bf6617216734ca4c0aa61a06c71784906120f3908e908990889061366b565b60405180910390a35050505050505050505050565b5f546001600160a01b031633146121315760405162461bcd60e51b8152600401610789906133a3565b5f8281526006602052604081205483910361215e5760405162461bcd60e51b815260040161078990613286565b5f83815260066020526040902060036001820154610100900460ff16600381111561218b5761218b613183565b036121cb5760405162461bcd60e51b815260206004820152601060248201526f105b1c9958591e481c995cdbdb1d995960821b6044820152606401610789565b5f805b60028301548110156122345784805190602001208360020182815481106121f7576121f7613478565b905f5260205f200160405161220c91906132ed565b6040518091039020036122225760019150612234565b8061222c81613460565b9150506121ce565b508061227b5760405162461bcd60e51b815260206004820152601660248201527524b73b30b634b2103bb4b73734b7339037b83a34b7b760511b6044820152606401610789565b6001828101805461ff00191661030017905560068301805460ff19169091179055600782016122aa85826134da565b5042600983015560405185907f2ec1f84b4079525f1ab2216f53a16f520efec75c91c517667151e55bbea7b9ec906122e390879061368f565b60405180910390a25050505050565b5f81116123115760405162461bcd60e51b815260040161078990613600565b80600c5410156123635760405162461bcd60e51b815260206004820152601960248201527f496e73756666696369656e74206a61636b706f7420706f6f6c000000000000006044820152606401610789565b335f908152600a60205260409020548111156123b85760405162461bcd60e51b8152602060048201526014602482015273496e73756666696369656e742062616c616e636560601b6044820152606401610789565b335f908152600a6020526040812080548392906123d6908490613409565b9250508190555080600c5f8282546123ee9190613409565b90915550506040515f90339083908381818185875af1925050503d805f8114612432576040519150601f19603f3d011682016040523d82523d5f602084013e612437565b606091505b50509050806124585760405162461bcd60e51b81526004016107899061337a565b60405182815233907fd40b323ed8b019a73e488040e2e991ed6218cbfa9561673125581fc3778091879060200160405180910390a25050565b5f546001600160a01b031633146124ba5760405162461bcd60e51b8152600401610789906133a3565b5f9283526009602090815260408085206001600160a01b039094168552929052912055565b5f546001600160a01b031633146125085760405162461bcd60e51b8152600401610789906133a3565b5f34116125275760405162461bcd60e51b815260040161078990613600565b34600c5f8282546125389190613637565b90915550506040513481527f2076cd8bd7c147f4b7bb2b5e2dd0db46fb74246bc4c4e3ded824202bfff5ca579060200160405180910390a1565b5f8281526006602052604081205483910361259f5760405162461bcd60e51b815260040161078990613286565b5f34116125be5760405162461bcd60e51b815260040161078990613600565b5f838152600660205260408120906001820154610100900460ff1660038111156125ea576125ea613183565b14806126125750600180820154610100900460ff16600381111561261057612610613183565b145b61262e5760405162461bcd60e51b8152600401610789906133ca565b5f848152600760209081526040808320338452909152808220905161265490869061335f565b90815260405190819003602001902080549091506001600160a01b031633146126b85760405162461bcd60e51b815260206004820152601660248201527527379032bc34b9ba34b73390383932b234b1ba34b7b760511b6044820152606401610789565b5f612710600254346126ca9190613449565b6126d4919061342a565b90505f612710600354346126e89190613449565b6126f2919061342a565b90505f816127008434613409565b61270a9190613409565b905080846004015f82825461271f9190613637565b9091555050604051818152339089907fafc28a1adb0af8d9ee797f710633dbeb0799ebb3270743a3c4a31111f1ffbc909060200160405180910390a35050505050505050565b5f828152600660205260408120548391036127925760405162461bcd60e51b815260040161078990613286565b5f8381526006602081905260409091209081015460ff166127eb5760405162461bcd60e51b815260206004820152601360248201527213585c9ad95d081b9bdd081c995cdbdb1d9959606a1b6044820152606401610789565b825160208401206040516128039060078401906132ed565b60405180910390201461284e5760405162461bcd60e51b81526020600482015260136024820152724e6f742077696e6e696e67206f7574636f6d6560681b6044820152606401610789565b5f848152600860209081526040808320338452909152808220905161287490869061335f565b90815260405190819003602001902080549091506001600160a01b031633146128d35760405162461bcd60e51b8152602060048201526011602482015270139bc81c1bdcda5d1a5bdb88199bdd5b99607a1b6044820152606401610789565b5f81600201541161291b5760405162461bcd60e51b81526020600482015260126024820152714e6f2073686172657320746f20636c61696d60701b6044820152606401610789565b5f858152600960209081526040808320338452909152902054806129785760405162461bcd60e51b81526020600482015260146024820152734e6f20636c61696d61626c652062616c616e636560601b6044820152606401610789565b5f8681526009602090815260408083203380855292528083208390555183908381818185875af1925050503d805f81146129cd576040519150601f19603f3d011682016040523d82523d5f602084013e6129d2565b606091505b50509050806129f35760405162461bcd60e51b81526004016107899061337a565b336001600160a01b0316877fb293892389f4a468a51fa597d7cd2627d3fa920ae52f4843616707f64a8041768885604051610a7a92919061364a565b5f83815260066020526040812054849103612a5c5760405162461bcd60e51b815260040161078990613286565b5f848152600660205260408120906001820154610100900460ff166003811115612a8857612a88613183565b1480612ab05750600180820154610100900460ff166003811115612aae57612aae613183565b145b612acc5760405162461bcd60e51b8152600401610789906133ca565b5f8581526008602090815260408083203384529091528082209051612af290879061335f565b90815260405190819003602001902080549091506001600160a01b03163314612b515760405162461bcd60e51b8152602060048201526011602482015270139bc81c1bdcda5d1a5bdb88199bdd5b99607a1b6044820152606401610789565b8381600201541015612b9b5760405162461bcd60e51b8152602060048201526013602482015272496e73756666696369656e742073686172657360681b6044820152606401610789565b5f80836005015411612bbd576002830154612bb89061271061342a565b612bfa565b82600501548360030187604051612bd4919061335f565b908152602001604051809103902054612710612bf09190613449565b612bfa919061342a565b90505f612710612c0a8388613449565b612c14919061342a565b9050808460030188604051612c29919061335f565b90815260200160405180910390205f828254612c459190613409565b9250508190555080846005015f828254612c5f9190613409565b92505081905550858460040188604051612c79919061335f565b90815260200160405180910390205f828254612c959190613409565b9250508190555085836002015f828254612caf9190613409565b90915550506002830154612cc4908790613637565b6003840154612cd39083613449565b612cdd919061342a565b836003015f828254612cef9190613409565b90915550506040515f90339083908381818185875af1925050503d805f8114612d33576040519150601f19603f3d011682016040523d82523d5f602084013e612d38565b606091505b5050905080612d595760405162461bcd60e51b81526004016107899061337a565b336001600160a01b0316897f2136d4ee254f7d800aae52b9b653ccd229ae15988bf2d1371a31db50132a69e98a8a866040516119649392919061366b565b634e487b7160e01b5f52604160045260245ffd5b604051601f8201601f1916810167ffffffffffffffff81118282101715612dd457612dd4612d97565b604052919050565b5f82601f830112612deb575f80fd5b813567ffffffffffffffff811115612e0557612e05612d97565b612e18601f8201601f1916602001612dab565b818152846020838601011115612e2c575f80fd5b816020850160208301375f918101602001919091529392505050565b5f8060408385031215612e59575f80fd5b82359150602083013567ffffffffffffffff811115612e76575f80fd5b612e8285828601612ddc565b9150509250929050565b6001600160a01b0381168114612ea0575f80fd5b50565b5f8060408385031215612eb4575f80fd5b823591506020830135612ec681612e8c565b809150509250929050565b5f60208284031215612ee1575f80fd5b8135612eec81612e8c565b9392505050565b5f805f60608486031215612f05575f80fd5b833592506020840135612f1781612e8c565b9150604084013567ffffffffffffffff811115612f32575f80fd5b612f3e86828701612ddc565b9150509250925092565b5f5b83811015612f62578181015183820152602001612f4a565b50505f910152565b5f8151808452612f81816020860160208601612f48565b601f01601f19169290920160200192915050565b6001600160a01b03851681526080602082018190525f90612fb890830186612f6a565b6040830194909452506060015292915050565b5f8060408385031215612fdc575f80fd5b8235612fe781612e8c565b946020939093013593505050565b5f805f60608486031215613007575f80fd5b83359250602084013567ffffffffffffffff811115613024575f80fd5b61303086828701612ddc565b925050604084013590509250925092565b5f8060408385031215613052575f80fd5b82359150602083013560048110612ec6575f80fd5b5f805f806080858703121561307a575f80fd5b5050823594602084013594506040840135936060013592509050565b5f80604083850312156130a7575f80fd5b823580151581146130b6575f80fd5b915060208381013567ffffffffffffffff808211156130d3575f80fd5b818601915086601f8301126130e6575f80fd5b8135818111156130f8576130f8612d97565b8060051b613107858201612dab565b918252838101850191858101908a841115613120575f80fd5b86860192505b8383101561315b5782358581111561313d575f8081fd5b61314b8c89838a0101612ddc565b8352509186019190860190613126565b809750505050505050509250929050565b5f6020828403121561317c575f80fd5b5035919050565b634e487b7160e01b5f52602160045260245ffd5b600481106131b357634e487b7160e01b5f52602160045260245ffd5b9052565b5f6101008a835289151560208401526131d3604084018a613197565b87606084015286151560808401528060a08401526131f381840187612f6a565b60c0840195909552505060e001529695505050505050565b60018060a01b038716815285602082015260c060408201525f61323160c0830187612f6a565b6060830195909552506080810192909252151560a0909101529392505050565b5f805f60608486031215613263575f80fd5b83359250602084013561327581612e8c565b929592945050506040919091013590565b60208082526015908201527413585c9ad95d08191bd95cc81b9bdd08195e1a5cdd605a1b604082015260600190565b600181811c908216806132c957607f821691505b6020821081036132e757634e487b7160e01b5f52602260045260245ffd5b50919050565b5f8083546132fa816132b5565b60018281168015613312576001811461332757613353565b60ff1984168752821515830287019450613353565b875f526020805f205f5b8581101561334a5781548a820152908401908201613331565b50505082870194505b50929695505050505050565b5f8251613370818460208701612f48565b9190910192915050565b6020808252600f908201526e151c985b9cd9995c8819985a5b1959608a1b604082015260600190565b6020808252600d908201526c27b7363c903232b83637bcb2b960991b604082015260600190565b6020808252601190820152704d61726b6574206e6f742061637469766560781b604082015260600190565b634e487b7160e01b5f52601160045260245ffd5b818103818111156114bf576114bf6133f5565b602081016114bf8284613197565b5f8261344457634e487b7160e01b5f52601260045260245ffd5b500490565b80820281158282048414176114bf576114bf6133f5565b5f60018201613471576134716133f5565b5060010190565b634e487b7160e01b5f52603260045260245ffd5b601f8211156134d5575f81815260208120601f850160051c810160208610156134b25750805b601f850160051c820191505b818110156134d1578281556001016134be565b5050505b505050565b815167ffffffffffffffff8111156134f4576134f4612d97565b6135088161350284546132b5565b8461348c565b602080601f83116001811461353b575f84156135245750858301515b5f19600386901b1c1916600185901b1785556134d1565b5f85815260208120601f198616915b828110156135695788860151825594840194600190910190840161354a565b508582101561358657878501515f19600388901b60f8161c191681555b5050505050600190811b01905550565b5f604082018415158352602060408185015281855180845260608601915060608160051b87010193508287015f5b828110156135f257605f198887030184526135e0868351612f6a565b955092840192908401906001016135c4565b509398975050505050505050565b6020808252601d908201527f416d6f756e74206d7573742062652067726561746572207468616e2030000000604082015260600190565b808201808211156114bf576114bf6133f5565b604081525f61365c6040830185612f6a565b90508260208301529392505050565b606081525f61367d6060830186612f6a565b60208301949094525060400152919050565b602081525f612eec6020830184612f6a56fea2646970667358221220b5680891070f844be335f801521d719512c07eb0f13987a3fe00fd1656e14af164736f6c63430008140033",
  "immutableReferences": {},
  "source": "// SPDX-License-Identifier: MIT\r\npragma solidity ^0.8.19;\r\n\r\n/**\r\n * @title WeRgame\r\n * @dev Comprehensive smart contract for prediction market platform\r\n * Handles market creation, trading, boost predictions, and jackpot management\r\n */\r\ncontract WeRgame {\r\n    address public deployer;\r\n    address public superAdmin;\r\n    \r\n    // Fee structure (in basis points, 10000 = 100%)\r\n    uint256 public platformFee; // For boost predictions\r\n    uint256 public boostJackpotFee;\r\n    uint256 public marketPlatformFee;\r\n    uint256 public freeJackpotFee;\r\n    \r\n    // Market status enum\r\n    enum MarketStatus {\r\n        Upcoming,\r\n        Active,\r\n        Locked,\r\n        Resolved\r\n    }\r\n    \r\n    // Market structure\r\n    struct Market {\r\n        uint256 marketId;\r\n        bool isPoll; // true for poll, false for match\r\n        MarketStatus status;\r\n        string[] options; // Options/outcomes for this market\r\n        mapping(string => uint256) liquidity; // Liquidity per option\r\n        mapping(string => uint256) shares; // Total shares per option\r\n        uint256 totalLiquidity;\r\n        bool resolved;\r\n        string winningOption; // Set when resolved\r\n        uint256 createdAt;\r\n        uint256 resolvedAt;\r\n    }\r\n    \r\n    // Boost prediction structure\r\n    struct BoostPrediction {\r\n        address user;\r\n        uint256 marketId;\r\n        string outcome;\r\n        uint256 stakeAmount;\r\n        uint256 totalStake;\r\n        bool claimed;\r\n    }\r\n    \r\n    // Market trading position\r\n    struct MarketPosition {\r\n        address user;\r\n        string outcome;\r\n        uint256 shares;\r\n        uint256 totalInvested;\r\n    }\r\n    \r\n    // Mappings\r\n    mapping(uint256 => Market) public markets;\r\n    mapping(uint256 => mapping(address => mapping(string => BoostPrediction))) public boostPredictions; // marketId => user => outcome => prediction\r\n    mapping(uint256 => mapping(address => mapping(string => MarketPosition))) public marketPositions; // marketId => user => outcome => position\r\n    mapping(uint256 => mapping(address => uint256)) public claimableBalances; // marketId => user => claimable amount\r\n    mapping(address => uint256) public jackpotBalances; // user => jackpot balance\r\n    \r\n    uint256 public nextMarketId;\r\n    uint256 public jackpotPool;\r\n    \r\n    // Events\r\n    event MarketCreated(uint256 indexed marketId, bool isPoll, string[] options);\r\n    event MarketStatusUpdated(uint256 indexed marketId, MarketStatus status);\r\n    event MarketResolved(uint256 indexed marketId, string winningOption);\r\n    event LiquidityAdded(uint256 indexed marketId, string option, uint256 amount);\r\n    event FeesUpdated(uint256 platformFee, uint256 boostJackpotFee, uint256 marketPlatformFee, uint256 freeJackpotFee);\r\n    event BoostStaked(uint256 indexed marketId, address indexed user, string outcome, uint256 amount);\r\n    event BoostStakeAdded(uint256 indexed marketId, address indexed user, uint256 amount);\r\n    event BoostStakeWithdrawn(uint256 indexed marketId, address indexed user, uint256 amount);\r\n    event BoostClaimed(uint256 indexed marketId, address indexed user, uint256 amount);\r\n    event MarketBought(uint256 indexed marketId, address indexed user, string outcome, uint256 ethAmount, uint256 shares);\r\n    event MarketSold(uint256 indexed marketId, address indexed user, string outcome, uint256 shares, uint256 ethAmount);\r\n    event MarketClaimed(uint256 indexed marketId, address indexed user, string outcome, uint256 amount);\r\n    event JackpotFunded(uint256 amount);\r\n    event JackpotWithdrawn(address indexed user, uint256 amount);\r\n    event JackpotPoolWithdrawn(address indexed to, uint256 amount);\r\n    event FundsTransferred(address indexed to, uint256 amount);\r\n    \r\n    modifier onlyDeployer() {\r\n        require(msg.sender == deployer, \"Only deployer\");\r\n        _;\r\n    }\r\n    \r\n    modifier onlySuperAdmin() {\r\n        require(msg.sender == superAdmin || msg.sender == deployer, \"Only superAdmin\");\r\n        _;\r\n    }\r\n    \r\n    modifier validMarket(uint256 marketId) {\r\n        require(markets[marketId].marketId != 0, \"Market does not exist\");\r\n        _;\r\n    }\r\n    \r\n    constructor() {\r\n        deployer = msg.sender;\r\n        superAdmin = msg.sender;\r\n        \r\n        // Default fees (in basis points: 1000 = 10%, 500 = 5%)\r\n        platformFee = 1000; // 10%\r\n        boostJackpotFee = 500; // 5%\r\n        marketPlatformFee = 500; // 5%\r\n        freeJackpotFee = 500; // 5%\r\n        \r\n        nextMarketId = 1;\r\n    }\r\n    \r\n    /**\r\n     * @dev Create a new market (match or poll)\r\n     * @param isPoll true if poll, false if match\r\n     * @param options array of outcome options\r\n     */\r\n    function createMarket(bool isPoll, string[] memory options) external onlyDeployer returns (uint256) {\r\n        require(options.length >= 2, \"Must have at least 2 options\");\r\n        \r\n        uint256 marketId = nextMarketId++;\r\n        Market storage market = markets[marketId];\r\n        market.marketId = marketId;\r\n        market.isPoll = isPoll;\r\n        market.status = MarketStatus.Upcoming;\r\n        market.createdAt = block.timestamp;\r\n        \r\n        // Initialize options\r\n        for (uint256 i = 0; i < options.length; i++) {\r\n            market.options.push(options[i]);\r\n            market.liquidity[options[i]] = 0;\r\n            market.shares[options[i]] = 0;\r\n        }\r\n        \r\n        emit MarketCreated(marketId, isPoll, options);\r\n        return marketId;\r\n    }\r\n    \r\n    /**\r\n     * @dev Update market status\r\n     */\r\n    function updateMarketStatus(uint256 marketId, MarketStatus status) external onlyDeployer validMarket(marketId) {\r\n        markets[marketId].status = status;\r\n        emit MarketStatusUpdated(marketId, status);\r\n    }\r\n    \r\n    /**\r\n     * @dev Add initial liquidity to a market option\r\n     */\r\n    function addLiquidity(uint256 marketId, string memory option, uint256 amount) external payable onlyDeployer validMarket(marketId) {\r\n        require(msg.value >= amount, \"Insufficient ETH sent\");\r\n        require(msg.value > 0, \"Amount must be greater than 0\");\r\n        \r\n        Market storage market = markets[marketId];\r\n        require(market.status == MarketStatus.Upcoming || market.status == MarketStatus.Active, \"Market not active\");\r\n        \r\n        // Verify option exists\r\n        bool optionExists = false;\r\n        for (uint256 i = 0; i < market.options.length; i++) {\r\n            if (keccak256(bytes(market.options[i])) == keccak256(bytes(option))) {\r\n                optionExists = true;\r\n                break;\r\n            }\r\n        }\r\n        require(optionExists, \"Invalid option\");\r\n        \r\n        market.liquidity[option] += amount;\r\n        market.totalLiquidity += amount;\r\n        \r\n        emit LiquidityAdded(marketId, option, amount);\r\n    }\r\n    \r\n    /**\r\n     * @dev Resolve a market\r\n     */\r\n    function resolveMarket(uint256 marketId, string memory winningOption) external onlyDeployer validMarket(marketId) {\r\n        Market storage market = markets[marketId];\r\n        require(market.status != MarketStatus.Resolved, \"Already resolved\");\r\n        \r\n        // Verify option exists\r\n        bool optionExists = false;\r\n        for (uint256 i = 0; i < market.options.length; i++) {\r\n            if (keccak256(bytes(market.options[i])) == keccak256(bytes(winningOption))) {\r\n                optionExists = true;\r\n                break;\r\n            }\r\n        }\r\n        require(optionExists, \"Invalid winning option\");\r\n        \r\n        market.status = MarketStatus.Resolved;\r\n        market.resolved = true;\r\n        market.winningOption = winningOption;\r\n        market.resolvedAt = block.timestamp;\r\n        \r\n        emit MarketResolved(marketId, winningOption);\r\n    }\r\n    \r\n    /**\r\n     * @dev Set fees (in basis points)\r\n     */\r\n    function setFees(\r\n        uint256 _platformFee,\r\n        uint256 _boostJackpotFee,\r\n        uint256 _marketPlatformFee,\r\n        uint256 _freeJackpotFee\r\n    ) external onlySuperAdmin {\r\n        require(_platformFee <= 10000 && _boostJackpotFee <= 10000 && \r\n                _marketPlatformFee <= 10000 && _freeJackpotFee <= 10000, \"Fees cannot exceed 100%\");\r\n        \r\n        platformFee = _platformFee;\r\n        boostJackpotFee = _boostJackpotFee;\r\n        marketPlatformFee = _marketPlatformFee;\r\n        freeJackpotFee = _freeJackpotFee;\r\n        \r\n        emit FeesUpdated(_platformFee, _boostJackpotFee, _marketPlatformFee, _freeJackpotFee);\r\n    }\r\n    \r\n    /**\r\n     * @dev Get current fees\r\n     */\r\n    function getFees() external view returns (\r\n        uint256 _platformFee,\r\n        uint256 _boostJackpotFee,\r\n        uint256 _marketPlatformFee,\r\n        uint256 _freeJackpotFee\r\n    ) {\r\n        return (platformFee, boostJackpotFee, marketPlatformFee, freeJackpotFee);\r\n    }\r\n    \r\n    /**\r\n     * @dev Stake ETH for boost prediction\r\n     */\r\n    function stakeBoost(uint256 marketId, string memory outcome) external payable validMarket(marketId) {\r\n        require(msg.value > 0, \"Amount must be greater than 0\");\r\n        Market storage market = markets[marketId];\r\n        require(market.status == MarketStatus.Upcoming || market.status == MarketStatus.Active, \"Market not active\");\r\n        \r\n        // Verify option exists\r\n        bool optionExists = false;\r\n        for (uint256 i = 0; i < market.options.length; i++) {\r\n            if (keccak256(bytes(market.options[i])) == keccak256(bytes(outcome))) {\r\n                optionExists = true;\r\n                break;\r\n            }\r\n        }\r\n        require(optionExists, \"Invalid outcome\");\r\n        \r\n        // Calculate fees\r\n        uint256 platformFeeAmount = (msg.value * platformFee) / 10000;\r\n        uint256 boostJackpotFeeAmount = (msg.value * boostJackpotFee) / 10000;\r\n        uint256 netStake = msg.value - platformFeeAmount - boostJackpotFeeAmount;\r\n        \r\n        // Update or create boost prediction\r\n        BoostPrediction storage prediction = boostPredictions[marketId][msg.sender][outcome];\r\n        if (prediction.user == address(0)) {\r\n            // New prediction\r\n            prediction.user = msg.sender;\r\n            prediction.marketId = marketId;\r\n            prediction.outcome = outcome;\r\n            prediction.stakeAmount = netStake;\r\n            prediction.totalStake = netStake;\r\n        } else {\r\n            // Update existing prediction\r\n            prediction.totalStake += netStake;\r\n        }\r\n        \r\n        emit BoostStaked(marketId, msg.sender, outcome, netStake);\r\n    }\r\n    \r\n    /**\r\n     * @dev Add more stake to existing boost prediction\r\n     */\r\n    function addBoostStake(uint256 marketId, string memory outcome) external payable validMarket(marketId) {\r\n        require(msg.value > 0, \"Amount must be greater than 0\");\r\n        Market storage market = markets[marketId];\r\n        require(market.status == MarketStatus.Upcoming || market.status == MarketStatus.Active, \"Market not active\");\r\n        \r\n        BoostPrediction storage prediction = boostPredictions[marketId][msg.sender][outcome];\r\n        require(prediction.user == msg.sender, \"No existing prediction\");\r\n        \r\n        // Calculate fees\r\n        uint256 platformFeeAmount = (msg.value * platformFee) / 10000;\r\n        uint256 boostJackpotFeeAmount = (msg.value * boostJackpotFee) / 10000;\r\n        uint256 netStake = msg.value - platformFeeAmount - boostJackpotFeeAmount;\r\n        \r\n        prediction.totalStake += netStake;\r\n        \r\n        emit BoostStakeAdded(marketId, msg.sender, netStake);\r\n    }\r\n    \r\n    /**\r\n     * @dev Withdraw stake from boost prediction (only before resolution)\r\n     */\r\n    function withdrawBoostStake(uint256 marketId, string memory outcome, uint256 amount) external validMarket(marketId) {\r\n        Market storage market = markets[marketId];\r\n        require(market.status == MarketStatus.Upcoming || market.status == MarketStatus.Active, \"Market not active\");\r\n        \r\n        BoostPrediction storage prediction = boostPredictions[marketId][msg.sender][outcome];\r\n        require(prediction.user == msg.sender, \"No prediction found\");\r\n        require(prediction.totalStake >= amount, \"Insufficient stake\");\r\n        \r\n        prediction.totalStake -= amount;\r\n        \r\n        // Transfer ETH back to user\r\n        (bool success, ) = payable(msg.sender).call{value: amount}(\"\");\r\n        require(success, \"Transfer failed\");\r\n        \r\n        emit BoostStakeWithdrawn(marketId, msg.sender, amount);\r\n    }\r\n    \r\n    /**\r\n     * @dev Claim boost prediction winnings\r\n     */\r\n    function claimBoost(uint256 marketId, string memory outcome) external validMarket(marketId) {\r\n        Market storage market = markets[marketId];\r\n        require(market.resolved, \"Market not resolved\");\r\n        require(keccak256(bytes(market.winningOption)) == keccak256(bytes(outcome)), \"Not winning outcome\");\r\n        \r\n        BoostPrediction storage prediction = boostPredictions[marketId][msg.sender][outcome];\r\n        require(prediction.user == msg.sender, \"No prediction found\");\r\n        require(!prediction.claimed, \"Already claimed\");\r\n        require(prediction.totalStake > 0, \"No stake to claim\");\r\n        \r\n        // Calculate claimable amount (backend will set this via setClaimableBalance)\r\n        uint256 claimable = claimableBalances[marketId][msg.sender];\r\n        require(claimable > 0, \"No claimable balance\");\r\n        \r\n        prediction.claimed = true;\r\n        claimableBalances[marketId][msg.sender] = 0;\r\n        \r\n        // Transfer winnings\r\n        (bool success, ) = payable(msg.sender).call{value: claimable}(\"\");\r\n        require(success, \"Transfer failed\");\r\n        \r\n        emit BoostClaimed(marketId, msg.sender, claimable);\r\n    }\r\n    \r\n    /**\r\n     * @dev Set claimable balance for a user (called by backend after resolution)\r\n     */\r\n    function setClaimableBalance(uint256 marketId, address user, uint256 amount) external onlyDeployer {\r\n        claimableBalances[marketId][user] = amount;\r\n    }\r\n    \r\n    /**\r\n     * @dev Buy shares in market (fixed-sum AMM)\r\n     */\r\n    function buyMarketShares(uint256 marketId, string memory outcome) external payable validMarket(marketId) {\r\n        require(msg.value > 0, \"Amount must be greater than 0\");\r\n        Market storage market = markets[marketId];\r\n        require(market.status == MarketStatus.Upcoming || market.status == MarketStatus.Active, \"Market not active\");\r\n        \r\n        // Verify option exists\r\n        bool optionExists = false;\r\n        for (uint256 i = 0; i < market.options.length; i++) {\r\n            if (keccak256(bytes(market.options[i])) == keccak256(bytes(outcome))) {\r\n                optionExists = true;\r\n                break;\r\n            }\r\n        }\r\n        require(optionExists, \"Invalid outcome\");\r\n        \r\n        // Calculate fees\r\n        uint256 platformFeeAmount = (msg.value * marketPlatformFee) / 10000;\r\n        uint256 freeJackpotFeeAmount = (msg.value * freeJackpotFee) / 10000;\r\n        uint256 netAmount = msg.value - platformFeeAmount - freeJackpotFeeAmount;\r\n        \r\n        // Calculate current price (liquidity / total liquidity)\r\n        uint256 currentPrice = market.totalLiquidity > 0 \r\n            ? (market.liquidity[outcome] * 10000) / market.totalLiquidity \r\n            : (10000 / market.options.length); // Equal distribution if no liquidity\r\n        \r\n        // Calculate shares received\r\n        uint256 shares = (netAmount * 10000) / currentPrice;\r\n        \r\n        // Update liquidity (fixed-sum AMM: buying increases selected option's liquidity)\r\n        market.liquidity[outcome] += netAmount;\r\n        market.totalLiquidity += netAmount;\r\n        market.shares[outcome] += shares;\r\n        \r\n        // Update user position\r\n        MarketPosition storage position = marketPositions[marketId][msg.sender][outcome];\r\n        if (position.user == address(0)) {\r\n            position.user = msg.sender;\r\n            position.outcome = outcome;\r\n        }\r\n        position.shares += shares;\r\n        position.totalInvested += netAmount;\r\n        \r\n        emit MarketBought(marketId, msg.sender, outcome, netAmount, shares);\r\n    }\r\n    \r\n    /**\r\n     * @dev Sell shares in market\r\n     */\r\n    function sellMarketShares(uint256 marketId, string memory outcome, uint256 shares) external validMarket(marketId) {\r\n        Market storage market = markets[marketId];\r\n        require(market.status == MarketStatus.Upcoming || market.status == MarketStatus.Active, \"Market not active\");\r\n        \r\n        MarketPosition storage position = marketPositions[marketId][msg.sender][outcome];\r\n        require(position.user == msg.sender, \"No position found\");\r\n        require(position.shares >= shares, \"Insufficient shares\");\r\n        \r\n        // Calculate current price\r\n        uint256 currentPrice = market.totalLiquidity > 0 \r\n            ? (market.liquidity[outcome] * 10000) / market.totalLiquidity \r\n            : (10000 / market.options.length);\r\n        \r\n        // Calculate payout\r\n        uint256 payout = (shares * currentPrice) / 10000;\r\n        \r\n        // Update liquidity (selling decreases selected option's liquidity)\r\n        market.liquidity[outcome] -= payout;\r\n        market.totalLiquidity -= payout;\r\n        market.shares[outcome] -= shares;\r\n        \r\n        // Update user position\r\n        position.shares -= shares;\r\n        position.totalInvested -= (payout * position.totalInvested) / (position.shares + shares);\r\n        \r\n        // Transfer ETH to user\r\n        (bool success, ) = payable(msg.sender).call{value: payout}(\"\");\r\n        require(success, \"Transfer failed\");\r\n        \r\n        emit MarketSold(marketId, msg.sender, outcome, shares, payout);\r\n    }\r\n    \r\n    /**\r\n     * @dev Claim market winnings after resolution\r\n     */\r\n    function claimMarket(uint256 marketId, string memory outcome) external validMarket(marketId) {\r\n        Market storage market = markets[marketId];\r\n        require(market.resolved, \"Market not resolved\");\r\n        require(keccak256(bytes(market.winningOption)) == keccak256(bytes(outcome)), \"Not winning outcome\");\r\n        \r\n        MarketPosition storage position = marketPositions[marketId][msg.sender][outcome];\r\n        require(position.user == msg.sender, \"No position found\");\r\n        require(position.shares > 0, \"No shares to claim\");\r\n        \r\n        // Calculate claimable amount (backend will set this)\r\n        uint256 claimable = claimableBalances[marketId][msg.sender];\r\n        require(claimable > 0, \"No claimable balance\");\r\n        \r\n        claimableBalances[marketId][msg.sender] = 0;\r\n        \r\n        // Transfer winnings\r\n        (bool success, ) = payable(msg.sender).call{value: claimable}(\"\");\r\n        require(success, \"Transfer failed\");\r\n        \r\n        emit MarketClaimed(marketId, msg.sender, outcome, claimable);\r\n    }\r\n    \r\n    /**\r\n     * @dev Get current price for an option (in basis points)\r\n     */\r\n    function getPrice(uint256 marketId, string memory outcome) external view validMarket(marketId) returns (uint256) {\r\n        Market storage market = markets[marketId];\r\n        if (market.totalLiquidity == 0) {\r\n            return (10000 / market.options.length);\r\n        }\r\n        return (market.liquidity[outcome] * 10000) / market.totalLiquidity;\r\n    }\r\n    \r\n    /**\r\n     * @dev Get user's market position\r\n     */\r\n    function getUserPosition(uint256 marketId, address user, string memory outcome) external view validMarket(marketId) returns (uint256 shares, uint256 totalInvested) {\r\n        MarketPosition storage position = marketPositions[marketId][user][outcome];\r\n        return (position.shares, position.totalInvested);\r\n    }\r\n    \r\n    /**\r\n     * @dev Get user's boost prediction\r\n     */\r\n    function getBoostPrediction(uint256 marketId, address user, string memory outcome) external view validMarket(marketId) returns (\r\n        address _user,\r\n        uint256 _totalStake,\r\n        bool _claimed\r\n    ) {\r\n        BoostPrediction storage prediction = boostPredictions[marketId][user][outcome];\r\n        return (prediction.user, prediction.totalStake, prediction.claimed);\r\n    }\r\n    \r\n    /**\r\n     * @dev Fund jackpot pool (deployer only)\r\n     */\r\n    function fundJackpotPool() external payable onlyDeployer {\r\n        require(msg.value > 0, \"Amount must be greater than 0\");\r\n        jackpotPool += msg.value;\r\n        emit JackpotFunded(msg.value);\r\n    }\r\n    \r\n    /**\r\n     * @dev User withdraw from jackpot pool\r\n     */\r\n    function withdrawJackpot(uint256 amount) external {\r\n        require(amount > 0, \"Amount must be greater than 0\");\r\n        require(jackpotPool >= amount, \"Insufficient jackpot pool\");\r\n        require(jackpotBalances[msg.sender] >= amount, \"Insufficient balance\");\r\n        \r\n        jackpotBalances[msg.sender] -= amount;\r\n        jackpotPool -= amount;\r\n        \r\n        (bool success, ) = payable(msg.sender).call{value: amount}(\"\");\r\n        require(success, \"Transfer failed\");\r\n        \r\n        emit JackpotWithdrawn(msg.sender, amount);\r\n    }\r\n    \r\n    /**\r\n     * @dev Set user's jackpot balance (called by backend)\r\n     */\r\n    function setJackpotBalance(address user, uint256 amount) external onlyDeployer {\r\n        jackpotBalances[user] = amount;\r\n    }\r\n    \r\n    /**\r\n     * @dev Withdraw from jackpot pool (deployer only)\r\n     */\r\n    function withdrawFromJackpotPool(address payable to, uint256 amount) external onlyDeployer {\r\n        require(jackpotPool >= amount, \"Insufficient pool balance\");\r\n        jackpotPool -= amount;\r\n        \r\n        (bool success, ) = to.call{value: amount}(\"\");\r\n        require(success, \"Transfer failed\");\r\n        \r\n        emit JackpotPoolWithdrawn(to, amount);\r\n    }\r\n    \r\n    /**\r\n     * @dev Get contract balance\r\n     */\r\n    function getContractBalance() external view returns (uint256) {\r\n        return address(this).balance;\r\n    }\r\n    \r\n    /**\r\n     * @dev Transfer funds from contract (deployer only)\r\n     */\r\n    function transferFunds(address payable to, uint256 amount) external onlyDeployer {\r\n        require(address(this).balance >= amount, \"Insufficient contract balance\");\r\n        \r\n        (bool success, ) = to.call{value: amount}(\"\");\r\n        require(success, \"Transfer failed\");\r\n        \r\n        emit FundsTransferred(to, amount);\r\n    }\r\n    \r\n    /**\r\n     * @dev Set superAdmin address\r\n     */\r\n    function setSuperAdmin(address _superAdmin) external onlySuperAdmin {\r\n        require(_superAdmin != address(0), \"Invalid address\");\r\n        superAdmin = _superAdmin;\r\n    }\r\n    \r\n    /**\r\n     * @dev Get jackpot balance for user\r\n     */\r\n    function getJackpotBalance(address user) external view returns (uint256) {\r\n        return jackpotBalances[user];\r\n    }\r\n    \r\n    /**\r\n     * @dev Get claimable balance for user\r\n     */\r\n    function getClaimableBalance(uint256 marketId, address user) external view returns (uint256) {\r\n        return claimableBalances[marketId][user];\r\n    }\r\n    \r\n    // Receive ETH\r\n    receive() external payable {\r\n        // Allow contract to receive ETH\r\n    }\r\n    \r\n    fallback() external payable {\r\n        // Allow contract to receive ETH\r\n    }\r\n}\r\n",
  "sourcePath": "C:\\Users\\Tolu John\\Desktop\\startups\\wergame-platform\\smart-contract\\contracts\\WeRgame.sol",
  "compiler": {
    "name": "solc",
    "version": "0.8.20+commit.a1b79de6.Emscripten.clang"
  },
  "schemaVersion": "3.4.16",
  "updatedAt": "2026-02-24T02:35:24.343Z",
  "networkType": "ethereum",
  "devdoc": {
    "details": "Comprehensive smart contract for prediction market platform Handles market creation, trading, boost predictions, and jackpot management",
    "kind": "dev",
    "methods": {
      "addBoostStake(uint256,string)": {
        "details": "Add more stake to existing boost prediction"
      },
      "addLiquidity(uint256,string,uint256)": {
        "details": "Add initial liquidity to a market option"
      },
      "buyMarketShares(uint256,string)": {
        "details": "Buy shares in market (fixed-sum AMM)"
      },
      "claimBoost(uint256,string)": {
        "details": "Claim boost prediction winnings"
      },
      "claimMarket(uint256,string)": {
        "details": "Claim market winnings after resolution"
      },
      "createMarket(bool,string[])": {
        "details": "Create a new market (match or poll)",
        "params": {
          "isPoll": "true if poll, false if match",
          "options": "array of outcome options"
        }
      },
      "fundJackpotPool()": {
        "details": "Fund jackpot pool (deployer only)"
      },
      "getBoostPrediction(uint256,address,string)": {
        "details": "Get user's boost prediction"
      },
      "getClaimableBalance(uint256,address)": {
        "details": "Get claimable balance for user"
      },
      "getContractBalance()": {
        "details": "Get contract balance"
      },
      "getFees()": {
        "details": "Get current fees"
      },
      "getJackpotBalance(address)": {
        "details": "Get jackpot balance for user"
      },
      "getPrice(uint256,string)": {
        "details": "Get current price for an option (in basis points)"
      },
      "getUserPosition(uint256,address,string)": {
        "details": "Get user's market position"
      },
      "resolveMarket(uint256,string)": {
        "details": "Resolve a market"
      },
      "sellMarketShares(uint256,string,uint256)": {
        "details": "Sell shares in market"
      },
      "setClaimableBalance(uint256,address,uint256)": {
        "details": "Set claimable balance for a user (called by backend after resolution)"
      },
      "setFees(uint256,uint256,uint256,uint256)": {
        "details": "Set fees (in basis points)"
      },
      "setJackpotBalance(address,uint256)": {
        "details": "Set user's jackpot balance (called by backend)"
      },
      "setSuperAdmin(address)": {
        "details": "Set superAdmin address"
      },
      "stakeBoost(uint256,string)": {
        "details": "Stake ETH for boost prediction"
      },
      "transferFunds(address,uint256)": {
        "details": "Transfer funds from contract (deployer only)"
      },
      "updateMarketStatus(uint256,uint8)": {
        "details": "Update market status"
      },
      "withdrawBoostStake(uint256,string,uint256)": {
        "details": "Withdraw stake from boost prediction (only before resolution)"
      },
      "withdrawFromJackpotPool(address,uint256)": {
        "details": "Withdraw from jackpot pool (deployer only)"
      },
      "withdrawJackpot(uint256)": {
        "details": "User withdraw from jackpot pool"
      }
    },
    "title": "WeRgame",
    "version": 1
  },
  "userdoc": {
    "kind": "user",
    "methods": {},
    "version": 1
  }
}