{
  "contractName": "WeRgame",
  "abi": [
    {
      "inputs": [],
      "stateMutability": "nonpayable",
      "type": "constructor"
    },
    {
      "anonymous": false,
      "inputs": [
        {
          "indexed": true,
          "internalType": "uint256",
          "name": "marketId",
          "type": "uint256"
        },
        {
          "indexed": true,
          "internalType": "address",
          "name": "user",
          "type": "address"
        },
        {
          "indexed": false,
          "internalType": "uint256",
          "name": "amount",
          "type": "uint256"
        }
      ],
      "name": "BoostClaimed",
      "type": "event"
    },
    {
      "anonymous": false,
      "inputs": [
        {
          "indexed": true,
          "internalType": "uint256",
          "name": "marketId",
          "type": "uint256"
        },
        {
          "indexed": true,
          "internalType": "address",
          "name": "user",
          "type": "address"
        },
        {
          "indexed": false,
          "internalType": "uint256",
          "name": "amount",
          "type": "uint256"
        }
      ],
      "name": "BoostStakeAdded",
      "type": "event"
    },
    {
      "anonymous": false,
      "inputs": [
        {
          "indexed": true,
          "internalType": "uint256",
          "name": "marketId",
          "type": "uint256"
        },
        {
          "indexed": true,
          "internalType": "address",
          "name": "user",
          "type": "address"
        },
        {
          "indexed": false,
          "internalType": "uint256",
          "name": "amount",
          "type": "uint256"
        }
      ],
      "name": "BoostStakeWithdrawn",
      "type": "event"
    },
    {
      "anonymous": false,
      "inputs": [
        {
          "indexed": true,
          "internalType": "uint256",
          "name": "marketId",
          "type": "uint256"
        },
        {
          "indexed": true,
          "internalType": "address",
          "name": "user",
          "type": "address"
        },
        {
          "indexed": false,
          "internalType": "string",
          "name": "outcome",
          "type": "string"
        },
        {
          "indexed": false,
          "internalType": "uint256",
          "name": "amount",
          "type": "uint256"
        }
      ],
      "name": "BoostStaked",
      "type": "event"
    },
    {
      "anonymous": false,
      "inputs": [
        {
          "indexed": false,
          "internalType": "uint256",
          "name": "amount",
          "type": "uint256"
        }
      ],
      "name": "ClaimPredictionWinsPoolFunded",
      "type": "event"
    },
    {
      "anonymous": false,
      "inputs": [
        {
          "indexed": true,
          "internalType": "address",
          "name": "to",
          "type": "address"
        },
        {
          "indexed": false,
          "internalType": "uint256",
          "name": "amount",
          "type": "uint256"
        }
      ],
      "name": "ClaimPredictionWinsPoolWithdrawn",
      "type": "event"
    },
    {
      "anonymous": false,
      "inputs": [
        {
          "indexed": false,
          "internalType": "uint256",
          "name": "platformFee",
          "type": "uint256"
        },
        {
          "indexed": false,
          "internalType": "uint256",
          "name": "boostJackpotFee",
          "type": "uint256"
        },
        {
          "indexed": false,
          "internalType": "uint256",
          "name": "marketPlatformFee",
          "type": "uint256"
        },
        {
          "indexed": false,
          "internalType": "uint256",
          "name": "freeJackpotFee",
          "type": "uint256"
        }
      ],
      "name": "FeesUpdated",
      "type": "event"
    },
    {
      "anonymous": false,
      "inputs": [
        {
          "indexed": true,
          "internalType": "address",
          "name": "to",
          "type": "address"
        },
        {
          "indexed": false,
          "internalType": "uint256",
          "name": "amount",
          "type": "uint256"
        }
      ],
      "name": "FundsTransferred",
      "type": "event"
    },
    {
      "anonymous": false,
      "inputs": [
        {
          "indexed": false,
          "internalType": "uint256",
          "name": "amount",
          "type": "uint256"
        }
      ],
      "name": "JackpotFunded",
      "type": "event"
    },
    {
      "anonymous": false,
      "inputs": [
        {
          "indexed": true,
          "internalType": "address",
          "name": "to",
          "type": "address"
        },
        {
          "indexed": false,
          "internalType": "uint256",
          "name": "amount",
          "type": "uint256"
        }
      ],
      "name": "JackpotPoolWithdrawn",
      "type": "event"
    },
    {
      "anonymous": false,
      "inputs": [
        {
          "indexed": true,
          "internalType": "address",
          "name": "user",
          "type": "address"
        },
        {
          "indexed": false,
          "internalType": "uint256",
          "name": "amount",
          "type": "uint256"
        }
      ],
      "name": "JackpotWithdrawn",
      "type": "event"
    },
    {
      "anonymous": false,
      "inputs": [
        {
          "indexed": true,
          "internalType": "uint256",
          "name": "marketId",
          "type": "uint256"
        },
        {
          "indexed": false,
          "internalType": "string",
          "name": "option",
          "type": "string"
        },
        {
          "indexed": false,
          "internalType": "uint256",
          "name": "amount",
          "type": "uint256"
        }
      ],
      "name": "LiquidityAdded",
      "type": "event"
    },
    {
      "anonymous": false,
      "inputs": [
        {
          "indexed": true,
          "internalType": "uint256",
          "name": "marketId",
          "type": "uint256"
        },
        {
          "indexed": true,
          "internalType": "address",
          "name": "user",
          "type": "address"
        },
        {
          "indexed": false,
          "internalType": "string",
          "name": "outcome",
          "type": "string"
        },
        {
          "indexed": false,
          "internalType": "uint256",
          "name": "ethAmount",
          "type": "uint256"
        },
        {
          "indexed": false,
          "internalType": "uint256",
          "name": "shares",
          "type": "uint256"
        }
      ],
      "name": "MarketBought",
      "type": "event"
    },
    {
      "anonymous": false,
      "inputs": [
        {
          "indexed": true,
          "internalType": "uint256",
          "name": "marketId",
          "type": "uint256"
        },
        {
          "indexed": true,
          "internalType": "address",
          "name": "user",
          "type": "address"
        },
        {
          "indexed": false,
          "internalType": "string",
          "name": "outcome",
          "type": "string"
        },
        {
          "indexed": false,
          "internalType": "uint256",
          "name": "amount",
          "type": "uint256"
        }
      ],
      "name": "MarketClaimed",
      "type": "event"
    },
    {
      "anonymous": false,
      "inputs": [
        {
          "indexed": true,
          "internalType": "uint256",
          "name": "marketId",
          "type": "uint256"
        },
        {
          "indexed": false,
          "internalType": "bool",
          "name": "isPoll",
          "type": "bool"
        },
        {
          "indexed": false,
          "internalType": "string[]",
          "name": "options",
          "type": "string[]"
        }
      ],
      "name": "MarketCreated",
      "type": "event"
    },
    {
      "anonymous": false,
      "inputs": [
        {
          "indexed": true,
          "internalType": "uint256",
          "name": "marketId",
          "type": "uint256"
        },
        {
          "indexed": false,
          "internalType": "string",
          "name": "winningOption",
          "type": "string"
        }
      ],
      "name": "MarketResolved",
      "type": "event"
    },
    {
      "anonymous": false,
      "inputs": [
        {
          "indexed": true,
          "internalType": "uint256",
          "name": "marketId",
          "type": "uint256"
        },
        {
          "indexed": true,
          "internalType": "address",
          "name": "user",
          "type": "address"
        },
        {
          "indexed": false,
          "internalType": "string",
          "name": "outcome",
          "type": "string"
        },
        {
          "indexed": false,
          "internalType": "uint256",
          "name": "shares",
          "type": "uint256"
        },
        {
          "indexed": false,
          "internalType": "uint256",
          "name": "ethAmount",
          "type": "uint256"
        }
      ],
      "name": "MarketSold",
      "type": "event"
    },
    {
      "anonymous": false,
      "inputs": [
        {
          "indexed": true,
          "internalType": "uint256",
          "name": "marketId",
          "type": "uint256"
        },
        {
          "indexed": false,
          "internalType": "enum WeRgame.MarketStatus",
          "name": "status",
          "type": "uint8"
        }
      ],
      "name": "MarketStatusUpdated",
      "type": "event"
    },
    {
      "anonymous": false,
      "inputs": [
        {
          "indexed": true,
          "internalType": "uint256",
          "name": "marketId",
          "type": "uint256"
        },
        {
          "indexed": true,
          "internalType": "address",
          "name": "user",
          "type": "address"
        },
        {
          "indexed": false,
          "internalType": "uint256",
          "name": "amount",
          "type": "uint256"
        }
      ],
      "name": "PredictionWinsClaimed",
      "type": "event"
    },
    {
      "stateMutability": "payable",
      "type": "fallback",
      "payable": true
    },
    {
      "inputs": [],
      "name": "boostJackpotFee",
      "outputs": [
        {
          "internalType": "uint256",
          "name": "",
          "type": "uint256"
        }
      ],
      "stateMutability": "view",
      "type": "function",
      "constant": true
    },
    {
      "inputs": [
        {
          "internalType": "uint256",
          "name": "",
          "type": "uint256"
        },
        {
          "internalType": "address",
          "name": "",
          "type": "address"
        },
        {
          "internalType": "string",
          "name": "",
          "type": "string"
        }
      ],
      "name": "boostPredictions",
      "outputs": [
        {
          "internalType": "address",
          "name": "user",
          "type": "address"
        },
        {
          "internalType": "uint256",
          "name": "marketId",
          "type": "uint256"
        },
        {
          "internalType": "string",
          "name": "outcome",
          "type": "string"
        },
        {
          "internalType": "uint256",
          "name": "stakeAmount",
          "type": "uint256"
        },
        {
          "internalType": "uint256",
          "name": "totalStake",
          "type": "uint256"
        },
        {
          "internalType": "bool",
          "name": "claimed",
          "type": "bool"
        }
      ],
      "stateMutability": "view",
      "type": "function",
      "constant": true
    },
    {
      "inputs": [],
      "name": "claimPredictionWinsPool",
      "outputs": [
        {
          "internalType": "uint256",
          "name": "",
          "type": "uint256"
        }
      ],
      "stateMutability": "view",
      "type": "function",
      "constant": true
    },
    {
      "inputs": [
        {
          "internalType": "uint256",
          "name": "",
          "type": "uint256"
        },
        {
          "internalType": "address",
          "name": "",
          "type": "address"
        }
      ],
      "name": "claimableBalances",
      "outputs": [
        {
          "internalType": "uint256",
          "name": "",
          "type": "uint256"
        }
      ],
      "stateMutability": "view",
      "type": "function",
      "constant": true
    },
    {
      "inputs": [
        {
          "internalType": "uint256",
          "name": "",
          "type": "uint256"
        },
        {
          "internalType": "address",
          "name": "",
          "type": "address"
        }
      ],
      "name": "claimableBoost",
      "outputs": [
        {
          "internalType": "uint256",
          "name": "",
          "type": "uint256"
        }
      ],
      "stateMutability": "view",
      "type": "function",
      "constant": true
    },
    {
      "inputs": [
        {
          "internalType": "uint256",
          "name": "",
          "type": "uint256"
        },
        {
          "internalType": "address",
          "name": "",
          "type": "address"
        }
      ],
      "name": "claimableMarket",
      "outputs": [
        {
          "internalType": "uint256",
          "name": "",
          "type": "uint256"
        }
      ],
      "stateMutability": "view",
      "type": "function",
      "constant": true
    },
    {
      "inputs": [],
      "name": "deployer",
      "outputs": [
        {
          "internalType": "address",
          "name": "",
          "type": "address"
        }
      ],
      "stateMutability": "view",
      "type": "function",
      "constant": true
    },
    {
      "inputs": [],
      "name": "freeJackpotFee",
      "outputs": [
        {
          "internalType": "uint256",
          "name": "",
          "type": "uint256"
        }
      ],
      "stateMutability": "view",
      "type": "function",
      "constant": true
    },
    {
      "inputs": [
        {
          "internalType": "address",
          "name": "",
          "type": "address"
        }
      ],
      "name": "jackpotBalances",
      "outputs": [
        {
          "internalType": "uint256",
          "name": "",
          "type": "uint256"
        }
      ],
      "stateMutability": "view",
      "type": "function",
      "constant": true
    },
    {
      "inputs": [],
      "name": "jackpotPool",
      "outputs": [
        {
          "internalType": "uint256",
          "name": "",
          "type": "uint256"
        }
      ],
      "stateMutability": "view",
      "type": "function",
      "constant": true
    },
    {
      "inputs": [],
      "name": "marketPlatformFee",
      "outputs": [
        {
          "internalType": "uint256",
          "name": "",
          "type": "uint256"
        }
      ],
      "stateMutability": "view",
      "type": "function",
      "constant": true
    },
    {
      "inputs": [
        {
          "internalType": "uint256",
          "name": "",
          "type": "uint256"
        },
        {
          "internalType": "address",
          "name": "",
          "type": "address"
        },
        {
          "internalType": "string",
          "name": "",
          "type": "string"
        }
      ],
      "name": "marketPositions",
      "outputs": [
        {
          "internalType": "address",
          "name": "user",
          "type": "address"
        },
        {
          "internalType": "string",
          "name": "outcome",
          "type": "string"
        },
        {
          "internalType": "uint256",
          "name": "shares",
          "type": "uint256"
        },
        {
          "internalType": "uint256",
          "name": "totalInvested",
          "type": "uint256"
        }
      ],
      "stateMutability": "view",
      "type": "function",
      "constant": true
    },
    {
      "inputs": [
        {
          "internalType": "uint256",
          "name": "",
          "type": "uint256"
        }
      ],
      "name": "markets",
      "outputs": [
        {
          "internalType": "uint256",
          "name": "marketId",
          "type": "uint256"
        },
        {
          "internalType": "bool",
          "name": "isPoll",
          "type": "bool"
        },
        {
          "internalType": "enum WeRgame.MarketStatus",
          "name": "status",
          "type": "uint8"
        },
        {
          "internalType": "uint256",
          "name": "totalLiquidity",
          "type": "uint256"
        },
        {
          "internalType": "bool",
          "name": "resolved",
          "type": "bool"
        },
        {
          "internalType": "string",
          "name": "winningOption",
          "type": "string"
        },
        {
          "internalType": "uint256",
          "name": "createdAt",
          "type": "uint256"
        },
        {
          "internalType": "uint256",
          "name": "resolvedAt",
          "type": "uint256"
        }
      ],
      "stateMutability": "view",
      "type": "function",
      "constant": true
    },
    {
      "inputs": [],
      "name": "nextMarketId",
      "outputs": [
        {
          "internalType": "uint256",
          "name": "",
          "type": "uint256"
        }
      ],
      "stateMutability": "view",
      "type": "function",
      "constant": true
    },
    {
      "inputs": [],
      "name": "platformFee",
      "outputs": [
        {
          "internalType": "uint256",
          "name": "",
          "type": "uint256"
        }
      ],
      "stateMutability": "view",
      "type": "function",
      "constant": true
    },
    {
      "inputs": [],
      "name": "superAdmin",
      "outputs": [
        {
          "internalType": "address",
          "name": "",
          "type": "address"
        }
      ],
      "stateMutability": "view",
      "type": "function",
      "constant": true
    },
    {
      "stateMutability": "payable",
      "type": "receive",
      "payable": true
    },
    {
      "inputs": [
        {
          "internalType": "bool",
          "name": "isPoll",
          "type": "bool"
        },
        {
          "internalType": "string[]",
          "name": "options",
          "type": "string[]"
        }
      ],
      "name": "createMarket",
      "outputs": [
        {
          "internalType": "uint256",
          "name": "",
          "type": "uint256"
        }
      ],
      "stateMutability": "nonpayable",
      "type": "function"
    },
    {
      "inputs": [
        {
          "internalType": "uint256",
          "name": "marketId",
          "type": "uint256"
        },
        {
          "internalType": "enum WeRgame.MarketStatus",
          "name": "status",
          "type": "uint8"
        }
      ],
      "name": "updateMarketStatus",
      "outputs": [],
      "stateMutability": "nonpayable",
      "type": "function"
    },
    {
      "inputs": [
        {
          "internalType": "uint256",
          "name": "marketId",
          "type": "uint256"
        },
        {
          "internalType": "string",
          "name": "option",
          "type": "string"
        },
        {
          "internalType": "uint256",
          "name": "amount",
          "type": "uint256"
        }
      ],
      "name": "addLiquidity",
      "outputs": [],
      "stateMutability": "payable",
      "type": "function",
      "payable": true
    },
    {
      "inputs": [
        {
          "internalType": "uint256",
          "name": "marketId",
          "type": "uint256"
        },
        {
          "internalType": "string",
          "name": "winningOption",
          "type": "string"
        }
      ],
      "name": "resolveMarket",
      "outputs": [],
      "stateMutability": "nonpayable",
      "type": "function"
    },
    {
      "inputs": [
        {
          "internalType": "uint256",
          "name": "_platformFee",
          "type": "uint256"
        },
        {
          "internalType": "uint256",
          "name": "_boostJackpotFee",
          "type": "uint256"
        },
        {
          "internalType": "uint256",
          "name": "_marketPlatformFee",
          "type": "uint256"
        },
        {
          "internalType": "uint256",
          "name": "_freeJackpotFee",
          "type": "uint256"
        }
      ],
      "name": "setFees",
      "outputs": [],
      "stateMutability": "nonpayable",
      "type": "function"
    },
    {
      "inputs": [],
      "name": "getFees",
      "outputs": [
        {
          "internalType": "uint256",
          "name": "_platformFee",
          "type": "uint256"
        },
        {
          "internalType": "uint256",
          "name": "_boostJackpotFee",
          "type": "uint256"
        },
        {
          "internalType": "uint256",
          "name": "_marketPlatformFee",
          "type": "uint256"
        },
        {
          "internalType": "uint256",
          "name": "_freeJackpotFee",
          "type": "uint256"
        }
      ],
      "stateMutability": "view",
      "type": "function",
      "constant": true
    },
    {
      "inputs": [
        {
          "internalType": "uint256",
          "name": "marketId",
          "type": "uint256"
        },
        {
          "internalType": "string",
          "name": "outcome",
          "type": "string"
        }
      ],
      "name": "stakeBoost",
      "outputs": [],
      "stateMutability": "payable",
      "type": "function",
      "payable": true
    },
    {
      "inputs": [
        {
          "internalType": "uint256",
          "name": "marketId",
          "type": "uint256"
        },
        {
          "internalType": "string",
          "name": "outcome",
          "type": "string"
        }
      ],
      "name": "addBoostStake",
      "outputs": [],
      "stateMutability": "payable",
      "type": "function",
      "payable": true
    },
    {
      "inputs": [
        {
          "internalType": "uint256",
          "name": "marketId",
          "type": "uint256"
        },
        {
          "internalType": "string",
          "name": "outcome",
          "type": "string"
        },
        {
          "internalType": "uint256",
          "name": "amount",
          "type": "uint256"
        }
      ],
      "name": "withdrawBoostStake",
      "outputs": [],
      "stateMutability": "nonpayable",
      "type": "function"
    },
    {
      "inputs": [
        {
          "internalType": "uint256",
          "name": "marketId",
          "type": "uint256"
        },
        {
          "internalType": "string",
          "name": "outcome",
          "type": "string"
        }
      ],
      "name": "claimBoost",
      "outputs": [],
      "stateMutability": "nonpayable",
      "type": "function"
    },
    {
      "inputs": [
        {
          "internalType": "uint256",
          "name": "marketId",
          "type": "uint256"
        },
        {
          "internalType": "address",
          "name": "user",
          "type": "address"
        },
        {
          "internalType": "uint256",
          "name": "amount",
          "type": "uint256"
        }
      ],
      "name": "setClaimableBalance",
      "outputs": [],
      "stateMutability": "nonpayable",
      "type": "function"
    },
    {
      "inputs": [
        {
          "internalType": "uint256",
          "name": "marketId",
          "type": "uint256"
        },
        {
          "internalType": "address",
          "name": "user",
          "type": "address"
        },
        {
          "internalType": "uint256",
          "name": "amount",
          "type": "uint256"
        }
      ],
      "name": "setClaimableBoost",
      "outputs": [],
      "stateMutability": "nonpayable",
      "type": "function"
    },
    {
      "inputs": [
        {
          "internalType": "uint256",
          "name": "marketId",
          "type": "uint256"
        },
        {
          "internalType": "address",
          "name": "user",
          "type": "address"
        },
        {
          "internalType": "uint256",
          "name": "amount",
          "type": "uint256"
        }
      ],
      "name": "setClaimableMarket",
      "outputs": [],
      "stateMutability": "nonpayable",
      "type": "function"
    },
    {
      "inputs": [
        {
          "internalType": "uint256",
          "name": "marketId",
          "type": "uint256"
        },
        {
          "internalType": "bool",
          "name": "isBoost",
          "type": "bool"
        }
      ],
      "name": "claimPredictionWins",
      "outputs": [],
      "stateMutability": "nonpayable",
      "type": "function"
    },
    {
      "inputs": [],
      "name": "fundClaimPredictionWinsPool",
      "outputs": [],
      "stateMutability": "payable",
      "type": "function",
      "payable": true
    },
    {
      "inputs": [
        {
          "internalType": "address payable",
          "name": "to",
          "type": "address"
        },
        {
          "internalType": "uint256",
          "name": "amount",
          "type": "uint256"
        }
      ],
      "name": "withdrawFromClaimPredictionWinsPool",
      "outputs": [],
      "stateMutability": "nonpayable",
      "type": "function"
    },
    {
      "inputs": [
        {
          "internalType": "uint256",
          "name": "marketId",
          "type": "uint256"
        },
        {
          "internalType": "string",
          "name": "outcome",
          "type": "string"
        }
      ],
      "name": "buyMarketShares",
      "outputs": [],
      "stateMutability": "payable",
      "type": "function",
      "payable": true
    },
    {
      "inputs": [
        {
          "internalType": "uint256",
          "name": "marketId",
          "type": "uint256"
        },
        {
          "internalType": "string",
          "name": "outcome",
          "type": "string"
        },
        {
          "internalType": "uint256",
          "name": "shares",
          "type": "uint256"
        }
      ],
      "name": "sellMarketShares",
      "outputs": [],
      "stateMutability": "nonpayable",
      "type": "function"
    },
    {
      "inputs": [
        {
          "internalType": "uint256",
          "name": "marketId",
          "type": "uint256"
        },
        {
          "internalType": "string",
          "name": "outcome",
          "type": "string"
        }
      ],
      "name": "claimMarket",
      "outputs": [],
      "stateMutability": "nonpayable",
      "type": "function"
    },
    {
      "inputs": [
        {
          "internalType": "uint256",
          "name": "marketId",
          "type": "uint256"
        },
        {
          "internalType": "string",
          "name": "outcome",
          "type": "string"
        }
      ],
      "name": "getPrice",
      "outputs": [
        {
          "internalType": "uint256",
          "name": "",
          "type": "uint256"
        }
      ],
      "stateMutability": "view",
      "type": "function",
      "constant": true
    },
    {
      "inputs": [
        {
          "internalType": "uint256",
          "name": "marketId",
          "type": "uint256"
        },
        {
          "internalType": "address",
          "name": "user",
          "type": "address"
        },
        {
          "internalType": "string",
          "name": "outcome",
          "type": "string"
        }
      ],
      "name": "getUserPosition",
      "outputs": [
        {
          "internalType": "uint256",
          "name": "shares",
          "type": "uint256"
        },
        {
          "internalType": "uint256",
          "name": "totalInvested",
          "type": "uint256"
        }
      ],
      "stateMutability": "view",
      "type": "function",
      "constant": true
    },
    {
      "inputs": [
        {
          "internalType": "uint256",
          "name": "marketId",
          "type": "uint256"
        },
        {
          "internalType": "address",
          "name": "user",
          "type": "address"
        },
        {
          "internalType": "string",
          "name": "outcome",
          "type": "string"
        }
      ],
      "name": "getBoostPrediction",
      "outputs": [
        {
          "internalType": "address",
          "name": "_user",
          "type": "address"
        },
        {
          "internalType": "uint256",
          "name": "_totalStake",
          "type": "uint256"
        },
        {
          "internalType": "bool",
          "name": "_claimed",
          "type": "bool"
        }
      ],
      "stateMutability": "view",
      "type": "function",
      "constant": true
    },
    {
      "inputs": [],
      "name": "fundJackpotPool",
      "outputs": [],
      "stateMutability": "payable",
      "type": "function",
      "payable": true
    },
    {
      "inputs": [
        {
          "internalType": "uint256",
          "name": "amount",
          "type": "uint256"
        }
      ],
      "name": "withdrawJackpot",
      "outputs": [],
      "stateMutability": "nonpayable",
      "type": "function"
    },
    {
      "inputs": [
        {
          "internalType": "address",
          "name": "user",
          "type": "address"
        },
        {
          "internalType": "uint256",
          "name": "amount",
          "type": "uint256"
        }
      ],
      "name": "setJackpotBalance",
      "outputs": [],
      "stateMutability": "nonpayable",
      "type": "function"
    },
    {
      "inputs": [
        {
          "internalType": "address payable",
          "name": "to",
          "type": "address"
        },
        {
          "internalType": "uint256",
          "name": "amount",
          "type": "uint256"
        }
      ],
      "name": "withdrawFromJackpotPool",
      "outputs": [],
      "stateMutability": "nonpayable",
      "type": "function"
    },
    {
      "inputs": [],
      "name": "getContractBalance",
      "outputs": [
        {
          "internalType": "uint256",
          "name": "",
          "type": "uint256"
        }
      ],
      "stateMutability": "view",
      "type": "function",
      "constant": true
    },
    {
      "inputs": [
        {
          "internalType": "address payable",
          "name": "to",
          "type": "address"
        },
        {
          "internalType": "uint256",
          "name": "amount",
          "type": "uint256"
        }
      ],
      "name": "transferFunds",
      "outputs": [],
      "stateMutability": "nonpayable",
      "type": "function"
    },
    {
      "inputs": [
        {
          "internalType": "address",
          "name": "_superAdmin",
          "type": "address"
        }
      ],
      "name": "setSuperAdmin",
      "outputs": [],
      "stateMutability": "nonpayable",
      "type": "function"
    },
    {
      "inputs": [
        {
          "internalType": "address",
          "name": "user",
          "type": "address"
        }
      ],
      "name": "getJackpotBalance",
      "outputs": [
        {
          "internalType": "uint256",
          "name": "",
          "type": "uint256"
        }
      ],
      "stateMutability": "view",
      "type": "function",
      "constant": true
    },
    {
      "inputs": [
        {
          "internalType": "uint256",
          "name": "marketId",
          "type": "uint256"
        },
        {
          "internalType": "address",
          "name": "user",
          "type": "address"
        }
      ],
      "name": "getClaimableBalance",
      "outputs": [
        {
          "internalType": "uint256",
          "name": "",
          "type": "uint256"
        }
      ],
      "stateMutability": "view",
      "type": "function",
      "constant": true
    }
  ],
  "bytecode": "0x60806040525f601055348015610013575f80fd5b505f8054336001600160a01b031991821681178355600180549092161781556103e86002556101f460038190556004819055600555600d5561434090819061005a90395ff3fe608060405260043610610273575f3560e01c80639f1d02461161014d578063c75bb724116100ba578063de9a814511610076578063de9a814514610800578063eae90d7914610808578063ef9f8d261461081b578063f87dd74b1461083a578063f95d530b1461087b578063fbf91a141461089a57005b8063c75bb72414610738578063ce1ea42b14610757578063d437441e14610776578063d5f394881461078b578063db8d55f1146107a9578063dcc8dee9146107e157005b8063b3e60a2611610109578063b3e60a2614610646578063b3eb52531461068c578063bd0237b1146106c2578063c01744e9146106e1578063c1730ee1146106f4578063c4fe75471461072557005b80639f1d024614610579578063a2ddbca514610598578063b00e0395146105b7578063b05b32ae146105eb578063b1283e7714610600578063b2e12adc1461063357005b80633577392e116101eb5780636822d823116101a75780636822d823146104c0578063698d2d76146104eb5780636a4d9a0c1461050a5780636f9fb98a146105295780636fcba3771461053b578063990dc9db1461055a57005b80633577392e146103ee5780633ed7240814610422578063406ef2ef1461044157806348d0eca2146104565780636523acf414610475578063663370c1146104ab57005b8063157000521161023a578063157000521461031657806318bb1f29146103355780631d38461c1461036457806326232a2e14610383578063277c02aa1461039857806329575f6a146103b757005b8063012e29381461027c578063019d66941461029b5780630325bbe8146102e457806312497adb146102f957806314f9e3aa1461030e57005b3661027a57005b005b348015610287575f80fd5b5061027a610296366004613917565b6108b9565b3480156102a6575f80fd5b506102d16102b5366004613972565b600960209081525f928352604080842090915290825290205481565b6040519081526020015b60405180910390f35b3480156102ef575f80fd5b506102d160045481565b348015610304575f80fd5b506102d1600f5481565b61027a610c02565b348015610321575f80fd5b5061027a6103303660046139a0565b610c96565b348015610340575f80fd5b5061035461034f3660046139c2565b610d60565b6040516102db9493929190613a64565b34801561036f575f80fd5b5061027a61037e366004613a9a565b610e3e565b34801561038e575f80fd5b506102d160025481565b3480156103a3575f80fd5b5061027a6103b2366004613acf565b610e8c565b3480156103c2575f80fd5b506001546103d6906001600160a01b031681565b6040516001600160a01b0390911681526020016102db565b3480156103f9575f80fd5b5061040d6104083660046139c2565b610ed0565b604080519283526020830191909152016102db565b34801561042d575f80fd5b5061027a61043c366004613af9565b610f57565b34801561044c575f80fd5b506102d1600d5481565b348015610461575f80fd5b5061027a610470366004613b45565b6111d2565b348015610480575f80fd5b506102d161048f366004613972565b600b60209081525f928352604080842090915290825290205481565b3480156104b6575f80fd5b506102d160035481565b3480156104cb575f80fd5b506102d16104da3660046139a0565b600c6020525f908152604090205481565b3480156104f6575f80fd5b506102d1610505366004613917565b611299565b348015610515575f80fd5b5061027a610524366004613a9a565b611341565b348015610534575f80fd5b50476102d1565b348015610546575f80fd5b5061027a610555366004613b6b565b61138f565b348015610565575f80fd5b5061027a610574366004613acf565b6114cd565b348015610584575f80fd5b506102d1610593366004613bae565b61162d565b3480156105a3575f80fd5b5061027a6105b2366004613acf565b611806565b3480156105c2575f80fd5b506102d16105d13660046139a0565b6001600160a01b03165f908152600c602052604090205490565b3480156105f6575f80fd5b506102d1600e5481565b34801561060b575f80fd5b5061061f61061a366004613c7e565b6119ff565b6040516102db989796959493929190613cc9565b61027a610641366004613917565b611ad3565b348015610651575f80fd5b506106656106603660046139c2565b611d87565b604080516001600160a01b03909416845260208401929092521515908201526060016102db565b348015610697575f80fd5b506102d16106a6366004613972565b600a60209081525f928352604080842090915290825290205481565b3480156106cd575f80fd5b5061027a6106dc366004613acf565b611e24565b61027a6106ef366004613af9565b61200c565b3480156106ff575f80fd5b5061071361070e3660046139c2565b612273565b6040516102db96959493929190613d1d565b61027a610733366004613917565b612362565b348015610743575f80fd5b5061027a610752366004613917565b612718565b348015610762575f80fd5b5061027a610771366004613c7e565b612902565b348015610781575f80fd5b506102d160055481565b348015610796575f80fd5b505f546103d6906001600160a01b031681565b3480156107b4575f80fd5b506002546003546004546005546040805194855260208501939093529183015260608201526080016102db565b3480156107ec575f80fd5b5061027a6107fb366004613a9a565b612ac8565b61027a612b16565b61027a610816366004613917565b612ba4565b348015610826575f80fd5b5061027a610835366004613d63565b612daf565b348015610845575f80fd5b506102d1610854366004613972565b5f9182526009602090815260408084206001600160a01b0393909316845291905290205490565b348015610886575f80fd5b5061027a610895366004613917565b6131aa565b3480156108a5575f80fd5b5061027a6108b4366004613af9565b61348a565b5f828152600660205260408120548391036108ef5760405162461bcd60e51b81526004016108e690613d8d565b60405180910390fd5b6010541561090f5760405162461bcd60e51b81526004016108e690613dbc565b60016010555f8381526006602081905260409091209081015460ff166109475760405162461bcd60e51b81526004016108e690613df3565b8251602084012060405161095f906007840190613e58565b6040518091039020146109aa5760405162461bcd60e51b81526020600482015260136024820152724e6f742077696e6e696e67206f7574636f6d6560681b60448201526064016108e6565b5f84815260076020908152604080832033845290915280822090516109d0908690613eca565b90815260405190819003602001902080549091506001600160a01b03163314610a315760405162461bcd60e51b8152602060048201526013602482015272139bc81c1c99591a58dd1a5bdb88199bdd5b99606a1b60448201526064016108e6565b600581015460ff1615610a785760405162461bcd60e51b815260206004820152600f60248201526e105b1c9958591e4818db185a5b5959608a1b60448201526064016108e6565b5f816004015411610abf5760405162461bcd60e51b81526020600482015260116024820152704e6f207374616b6520746f20636c61696d60781b60448201526064016108e6565b5f85815260096020908152604080832033845290915290205480610af55760405162461bcd60e51b81526004016108e690613ee5565b80600f541015610b175760405162461bcd60e51b81526004016108e690613f13565b60058201805460ff191660011790555f8681526009602090815260408083203384529091528120819055600f8054839290610b53908490613f5e565b90915550506040515f90339083908381818185875af1925050503d805f8114610b97576040519150601f19603f3d011682016040523d82523d5f602084013e610b9c565b606091505b5050905080610bbd5760405162461bcd60e51b81526004016108e690613f71565b604051828152339088907f20e28d0ec25cd6e7b3ce931db96b9a33e940a54a32e1c0b8379e7660a2828c69906020015b60405180910390a350505f6010555050505050565b5f546001600160a01b03163314610c2b5760405162461bcd60e51b81526004016108e690613f9a565b5f3411610c4a5760405162461bcd60e51b81526004016108e690613fc1565b34600f5f828254610c5b9190613ff8565b90915550506040513481527f4986ef868ee9659d51f041598f943aa46a8bd02efd1912472d5990a090d37321906020015b60405180910390a1565b6001546001600160a01b0316331480610cb857505f546001600160a01b031633145b610cf65760405162461bcd60e51b815260206004820152600f60248201526e27b7363c9039bab832b920b236b4b760891b60448201526064016108e6565b6001600160a01b038116610d3e5760405162461bcd60e51b815260206004820152600f60248201526e496e76616c6964206164647265737360881b60448201526064016108e6565b600180546001600160a01b0319166001600160a01b0392909216919091179055565b600860209081525f9384526040808520825292845291909220825180840183018051928152908301939092019290922091905280546001820180546001600160a01b039092169291610db190613e20565b80601f0160208091040260200160405190810160405280929190818152602001828054610ddd90613e20565b8015610e285780601f10610dff57610100808354040283529160200191610e28565b820191905f5260205f20905b815481529060010190602001808311610e0b57829003601f168201915b5050505050908060020154908060030154905084565b5f546001600160a01b03163314610e675760405162461bcd60e51b81526004016108e690613f9a565b5f928352600a602090815260408085206001600160a01b039094168552929052912055565b5f546001600160a01b03163314610eb55760405162461bcd60e51b81526004016108e690613f9a565b6001600160a01b039091165f908152600c6020526040902055565b5f83815260066020526040812054819085908203610f005760405162461bcd60e51b81526004016108e690613d8d565b5f8681526008602090815260408083206001600160a01b03891684529091528082209051610f2f908790613eca565b9081526020016040518091039020905080600201548160030154935093505050935093915050565b5f83815260066020526040812054849103610f845760405162461bcd60e51b81526004016108e690613d8d565b60105415610fa45760405162461bcd60e51b81526004016108e690613dbc565b60016010555f848152600660205260408120906001820154610100900460ff166003811115610fd557610fd5613c95565b1480610ffd5750600180820154610100900460ff166003811115610ffb57610ffb613c95565b145b6110195760405162461bcd60e51b81526004016108e69061400b565b5f858152600760209081526040808320338452909152808220905161103f908790613eca565b90815260405190819003602001902080549091506001600160a01b031633146110a05760405162461bcd60e51b8152602060048201526013602482015272139bc81c1c99591a58dd1a5bdb88199bdd5b99606a1b60448201526064016108e6565b83816004015410156110e95760405162461bcd60e51b8152602060048201526012602482015271496e73756666696369656e74207374616b6560701b60448201526064016108e6565b83816004015f8282546110fc9190613f5e565b9091555050600f548411156111235760405162461bcd60e51b81526004016108e690613f13565b83600f5f8282546111349190613f5e565b90915550506040515f90339086908381818185875af1925050503d805f8114611178576040519150601f19603f3d011682016040523d82523d5f602084013e61117d565b606091505b505090508061119e5760405162461bcd60e51b81526004016108e690613f71565b604051858152339088907fbcbb1a32e70b3a4c7e261bf1aa686d9baefa195ed797e1225c008ae953d6f1cf90602001610bed565b5f546001600160a01b031633146111fb5760405162461bcd60e51b81526004016108e690613f9a565b5f828152600660205260408120548391036112285760405162461bcd60e51b81526004016108e690613d8d565b5f838152600660205260409020600101805483919061ff00191661010083600381111561125757611257613c95565b0217905550827fd067ebf1565b7b7f7e3c08ccb7f355defc06fd6a3e5e3da1f0a43c8a235350ac8360405161128c9190614036565b60405180910390a2505050565b5f82815260066020526040812054839082036112c75760405162461bcd60e51b81526004016108e690613d8d565b5f84815260066020526040812060058101549091036112f95760028101546112f190612710614044565b92505061133a565b806005015481600301856040516113109190613eca565b90815260200160405180910390205461271061132c9190614063565b6113369190614044565b9250505b5092915050565b5f546001600160a01b0316331461136a5760405162461bcd60e51b81526004016108e690613f9a565b5f928352600b602090815260408085206001600160a01b039094168552929052912055565b6001546001600160a01b03163314806113b157505f546001600160a01b031633145b6113ef5760405162461bcd60e51b815260206004820152600f60248201526e27b7363c9039bab832b920b236b4b760891b60448201526064016108e6565b612710841115801561140357506127108311155b801561141157506127108211155b801561141f57506127108111155b61146b5760405162461bcd60e51b815260206004820152601760248201527f466565732063616e6e6f7420657863656564203130302500000000000000000060448201526064016108e6565b60028490556003839055600482905560058190556040805185815260208101859052908101839052606081018290527f16e6f67290546b8dd0e587f4b7f67d4f61932ae17ffd8c60d3509dbc05c175fe9060800160405180910390a150505050565b5f546001600160a01b031633146114f65760405162461bcd60e51b81526004016108e690613f9a565b6001600160a01b03821661151c5760405162461bcd60e51b81526004016108e69061407a565b306001600160a01b038316036115445760405162461bcd60e51b81526004016108e6906140a5565b5f81116115635760405162461bcd60e51b81526004016108e690613fc1565b804710156115835760405162461bcd60e51b81526004016108e6906140dc565b5f826001600160a01b0316826040515f6040518083038185875af1925050503d805f81146115cc576040519150601f19603f3d011682016040523d82523d5f602084013e6115d1565b606091505b50509050806115f25760405162461bcd60e51b81526004016108e690613f71565b826001600160a01b03167f8c9a4f13b67cb64d7c6aa1ae0c9bf07694af521a28b93e7060020810ab4bc59f8360405161128c91815260200190565b5f80546001600160a01b031633146116575760405162461bcd60e51b81526004016108e690613f9a565b6002825110156116a95760405162461bcd60e51b815260206004820152601c60248201527f4d7573742068617665206174206c656173742032206f7074696f6e730000000060448201526064016108e6565b600d80545f91826116b983614113565b909155505f81815260066020526040812082815560018101805461ffff191688151561ff0019161790554260088201559192505b84518110156117c1578160020185828151811061170c5761170c61412b565b60209081029190910181015182546001810184555f938452919092200190611734908261418d565b505f8260030186838151811061174c5761174c61412b565b60200260200101516040516117619190613eca565b9081526020016040518091039020819055505f8260040186838151811061178a5761178a61412b565b602002602001015160405161179f9190613eca565b90815260405190819003602001902055806117b981614113565b9150506116ed565b50817f41671df7de79859ef92d2dc3d0936d3890eea9d4dda0c64e7d375277f2e5e7a186866040516117f4929190614249565b60405180910390a25090505b92915050565b5f546001600160a01b0316331461182f5760405162461bcd60e51b81526004016108e690613f9a565b6010541561184f5760405162461bcd60e51b81526004016108e690613dbc565b60016010556001600160a01b03821661187a5760405162461bcd60e51b81526004016108e69061407a565b306001600160a01b038316036118a25760405162461bcd60e51b81526004016108e6906140a5565b5f81116118c15760405162461bcd60e51b81526004016108e690613fc1565b80600e54101561190f5760405162461bcd60e51b8152602060048201526019602482015278496e73756666696369656e7420706f6f6c2062616c616e636560381b60448201526064016108e6565b8047101561192f5760405162461bcd60e51b81526004016108e6906140dc565b80600e5f8282546119409190613f5e565b90915550506040515f906001600160a01b0384169083908381818185875af1925050503d805f811461198d576040519150601f19603f3d011682016040523d82523d5f602084013e611992565b606091505b50509050806119b35760405162461bcd60e51b81526004016108e690613f71565b826001600160a01b03167f05388187d2d8839bf46fead5ad128385c82076ad81b57a1278382a2f77ca2444836040516119ee91815260200190565b60405180910390a250505f60105550565b600660208190525f918252604090912080546001820154600583015493830154600784018054939560ff8085169661010090950481169591949316929190611a4690613e20565b80601f0160208091040260200160405190810160405280929190818152602001828054611a7290613e20565b8015611abd5780601f10611a9457610100808354040283529160200191611abd565b820191905f5260205f20905b815481529060010190602001808311611aa057829003601f168201915b5050505050908060080154908060090154905088565b5f82815260066020526040812054839103611b005760405162461bcd60e51b81526004016108e690613d8d565b5f3411611b1f5760405162461bcd60e51b81526004016108e690613fc1565b5f838152600660205260408120906001820154610100900460ff166003811115611b4b57611b4b613c95565b1480611b735750600180820154610100900460ff166003811115611b7157611b71613c95565b145b611b8f5760405162461bcd60e51b81526004016108e69061400b565b5f805b6002830154811015611bf8578480519060200120836002018281548110611bbb57611bbb61412b565b905f5260205f2001604051611bd09190613e58565b604051809103902003611be65760019150611bf8565b80611bf081614113565b915050611b92565b5080611c385760405162461bcd60e51b815260206004820152600f60248201526e496e76616c6964206f7574636f6d6560881b60448201526064016108e6565b5f61271060025434611c4a9190614063565b611c549190614044565b90505f61271060035434611c689190614063565b611c729190614044565b90505f81611c808434613f5e565b611c8a9190613f5e565b5f89815260076020908152604080832033845290915280822090519293509091611cb5908a90613eca565b90815260405190819003602001902080549091506001600160a01b0316611d0f5780546001600160a01b031916331781556001810189905560028101611cfb898261418d565b506003810182905560048101829055611d28565b81816004015f828254611d229190613ff8565b90915550505b34600f5f828254611d399190613ff8565b909155505060405133908a907f9af5caefb8cea3d0910b8a9636232b856d7fadb93249d5b0bfbeab7c38f7921690611d74908c9087906142b3565b60405180910390a3505050505050505050565b5f838152600660205260408120548190819086908203611db95760405162461bcd60e51b81526004016108e690613d8d565b5f8781526007602090815260408083206001600160a01b038a1684529091528082209051611de8908890613eca565b908152604051908190036020019020805460048201546005909201546001600160a01b03909116965090945060ff169250505093509350939050565b5f546001600160a01b03163314611e4d5760405162461bcd60e51b81526004016108e690613f9a565b60105415611e6d5760405162461bcd60e51b81526004016108e690613dbc565b60016010556001600160a01b038216611e985760405162461bcd60e51b81526004016108e69061407a565b306001600160a01b03831603611ec05760405162461bcd60e51b81526004016108e6906140a5565b5f8111611edf5760405162461bcd60e51b81526004016108e690613fc1565b80600f541015611f2d5760405162461bcd60e51b8152602060048201526019602482015278496e73756666696369656e7420706f6f6c2062616c616e636560381b60448201526064016108e6565b80471015611f4d5760405162461bcd60e51b81526004016108e6906140dc565b80600f5f828254611f5e9190613f5e565b90915550506040515f906001600160a01b0384169083908381818185875af1925050503d805f8114611fab576040519150601f19603f3d011682016040523d82523d5f602084013e611fb0565b606091505b5050905080611fd15760405162461bcd60e51b81526004016108e690613f71565b826001600160a01b03167f9b4720e539e7a1f0094cfce31d8cc4e3f6a63afdbe9350a2636b0edd879c8325836040516119ee91815260200190565b5f546001600160a01b031633146120355760405162461bcd60e51b81526004016108e690613f9a565b5f838152600660205260408120548491036120625760405162461bcd60e51b81526004016108e690613d8d565b813410156120aa5760405162461bcd60e51b8152602060048201526015602482015274125b9cdd59999a58da595b9d08115512081cd95b9d605a1b60448201526064016108e6565b5f34116120c95760405162461bcd60e51b81526004016108e690613fc1565b5f848152600660205260408120906001820154610100900460ff1660038111156120f5576120f5613c95565b148061211d5750600180820154610100900460ff16600381111561211b5761211b613c95565b145b6121395760405162461bcd60e51b81526004016108e69061400b565b5f805b60028301548110156121a25785805190602001208360020182815481106121655761216561412b565b905f5260205f200160405161217a9190613e58565b60405180910390200361219057600191506121a2565b8061219a81614113565b91505061213c565b50806121e15760405162461bcd60e51b815260206004820152600e60248201526d24b73b30b634b21037b83a34b7b760911b60448201526064016108e6565b8382600301866040516121f49190613eca565b90815260200160405180910390205f8282546122109190613ff8565b9250508190555083826005015f82825461222a9190613ff8565b92505081905550857faa83f946898046e98d04323d1f949f879cd43a774cb0981f1025ce3caa9afc8c86866040516122639291906142b3565b60405180910390a2505050505050565b600760209081525f93845260408085208252928452919092208251808401830180519281529083019390920192909220919052805460018201546002830180546001600160a01b039093169391926122ca90613e20565b80601f01602080910402602001604051908101604052809291908181526020018280546122f690613e20565b80156123415780601f1061231857610100808354040283529160200191612341565b820191905f5260205f20905b81548152906001019060200180831161232457829003601f168201915b50505050600383015460048401546005909401549293909290915060ff1686565b5f8281526006602052604081205483910361238f5760405162461bcd60e51b81526004016108e690613d8d565b5f34116123ae5760405162461bcd60e51b81526004016108e690613fc1565b5f838152600660205260408120906001820154610100900460ff1660038111156123da576123da613c95565b14806124025750600180820154610100900460ff16600381111561240057612400613c95565b145b61241e5760405162461bcd60e51b81526004016108e69061400b565b5f805b600283015481101561248757848051906020012083600201828154811061244a5761244a61412b565b905f5260205f200160405161245f9190613e58565b6040518091039020036124755760019150612487565b8061247f81614113565b915050612421565b50806124c75760405162461bcd60e51b815260206004820152600f60248201526e496e76616c6964206f7574636f6d6560881b60448201526064016108e6565b5f612710600454346124d99190614063565b6124e39190614044565b90505f612710600554346124f79190614063565b6125019190614044565b90505f8161250f8434613f5e565b6125199190613f5e565b90505f8086600501541161253d57600286015461253890612710614044565b61257a565b856005015486600301896040516125549190613eca565b9081526020016040518091039020546127106125709190614063565b61257a9190614044565b90505f8161258a84612710614063565b6125949190614044565b905082876003018a6040516125a99190613eca565b90815260200160405180910390205f8282546125c59190613ff8565b9250508190555082876005015f8282546125df9190613ff8565b9250508190555080876004018a6040516125f99190613eca565b90815260200160405180910390205f8282546126159190613ff8565b90915550505f8a81526008602090815260408083203384529091528082209051612640908c90613eca565b90815260405190819003602001902080549091506001600160a01b03166126815780546001600160a01b031916331781556001810161267f8b8261418d565b505b81816002015f8282546126949190613ff8565b9250508190555083816003015f8282546126ae9190613ff8565b9250508190555034600f5f8282546126c69190613ff8565b909155505060405133908c907f65b9cf5504284839513abe58c29b419750bf6617216734ca4c0aa61a06c7178490612703908e90899088906142d4565b60405180910390a35050505050505050505050565b5f546001600160a01b031633146127415760405162461bcd60e51b81526004016108e690613f9a565b5f8281526006602052604081205483910361276e5760405162461bcd60e51b81526004016108e690613d8d565b5f83815260066020526040902060036001820154610100900460ff16600381111561279b5761279b613c95565b036127db5760405162461bcd60e51b815260206004820152601060248201526f105b1c9958591e481c995cdbdb1d995960821b60448201526064016108e6565b5f805b60028301548110156128445784805190602001208360020182815481106128075761280761412b565b905f5260205f200160405161281c9190613e58565b6040518091039020036128325760019150612844565b8061283c81614113565b9150506127de565b508061288b5760405162461bcd60e51b815260206004820152601660248201527524b73b30b634b2103bb4b73734b7339037b83a34b7b760511b60448201526064016108e6565b6001828101805461ff00191661030017905560068301805460ff19169091179055600782016128ba858261418d565b5042600983015560405185907f2ec1f84b4079525f1ab2216f53a16f520efec75c91c517667151e55bbea7b9ec906128f39087906142f8565b60405180910390a25050505050565b601054156129225760405162461bcd60e51b81526004016108e690613dbc565b6001601055806129445760405162461bcd60e51b81526004016108e690613fc1565b80600e5410156129965760405162461bcd60e51b815260206004820152601960248201527f496e73756666696369656e74206a61636b706f7420706f6f6c0000000000000060448201526064016108e6565b335f908152600c60205260409020548111156129eb5760405162461bcd60e51b8152602060048201526014602482015273496e73756666696369656e742062616c616e636560601b60448201526064016108e6565b335f908152600c602052604081208054839290612a09908490613f5e565b9250508190555080600e5f828254612a219190613f5e565b90915550506040515f90339083908381818185875af1925050503d805f8114612a65576040519150601f19603f3d011682016040523d82523d5f602084013e612a6a565b606091505b5050905080612a8b5760405162461bcd60e51b81526004016108e690613f71565b60405182815233907fd40b323ed8b019a73e488040e2e991ed6218cbfa9561673125581fc3778091879060200160405180910390a250505f601055565b5f546001600160a01b03163314612af15760405162461bcd60e51b81526004016108e690613f9a565b5f9283526009602090815260408085206001600160a01b039094168552929052912055565b5f546001600160a01b03163314612b3f5760405162461bcd60e51b81526004016108e690613f9a565b5f3411612b5e5760405162461bcd60e51b81526004016108e690613fc1565b34600e5f828254612b6f9190613ff8565b90915550506040513481527f2076cd8bd7c147f4b7bb2b5e2dd0db46fb74246bc4c4e3ded824202bfff5ca5790602001610c8c565b5f82815260066020526040812054839103612bd15760405162461bcd60e51b81526004016108e690613d8d565b5f3411612bf05760405162461bcd60e51b81526004016108e690613fc1565b5f838152600660205260408120906001820154610100900460ff166003811115612c1c57612c1c613c95565b1480612c445750600180820154610100900460ff166003811115612c4257612c42613c95565b145b612c605760405162461bcd60e51b81526004016108e69061400b565b5f8481526007602090815260408083203384529091528082209051612c86908690613eca565b90815260405190819003602001902080549091506001600160a01b03163314612cea5760405162461bcd60e51b815260206004820152601660248201527527379032bc34b9ba34b73390383932b234b1ba34b7b760511b60448201526064016108e6565b5f61271060025434612cfc9190614063565b612d069190614044565b90505f61271060035434612d1a9190614063565b612d249190614044565b90505f81612d328434613f5e565b612d3c9190613f5e565b905080846004015f828254612d519190613ff8565b9250508190555034600f5f828254612d699190613ff8565b9091555050604051818152339089907fafc28a1adb0af8d9ee797f710633dbeb0799ebb3270743a3c4a31111f1ffbc909060200160405180910390a35050505050505050565b5f82815260066020526040812054839103612ddc5760405162461bcd60e51b81526004016108e690613d8d565b60105415612dfc5760405162461bcd60e51b81526004016108e690613dbc565b60016010555f8381526006602081905260409091209081015460ff16612e345760405162461bcd60e51b81526004016108e690613df3565b5f816007018054612e4490613e20565b80601f0160208091040260200160405190810160405280929190818152602001828054612e7090613e20565b8015612ebb5780601f10612e9257610100808354040283529160200191612ebb565b820191905f5260205f20905b815481529060010190602001808311612e9e57829003601f168201915b505050505090505f8415612ff357505f858152600a6020908152604080832033845290915290205480612f005760405162461bcd60e51b81526004016108e690613ee5565b5f8681526007602090815260408083203384529091528082209051612f26908590613eca565b90815260405190819003602001902080549091506001600160a01b031633148015612f5457505f8160040154115b8015612f655750600581015460ff16155b612fa55760405162461bcd60e51b8152602060048201526011602482015270139bdd0818481c185c9d1a58da5c185b9d607a1b60448201526064016108e6565b81600f541015612fc75760405162461bcd60e51b81526004016108e690613f13565b5f878152600a60209081526040808320338452909152812055600501805460ff191660011790556130fb565b505f858152600b602090815260408083203384529091529020548061302a5760405162461bcd60e51b81526004016108e690613ee5565b5f8681526008602090815260408083203384529091528082209051613050908590613eca565b90815260405190819003602001902080549091506001600160a01b03163314801561307e57505f8160020154115b6130be5760405162461bcd60e51b8152602060048201526011602482015270139bdd0818481c185c9d1a58da5c185b9d607a1b60448201526064016108e6565b81600f5410156130e05760405162461bcd60e51b81526004016108e690613f13565b505f868152600b602090815260408083203384529091528120555b80600f5f82825461310c9190613f5e565b90915550506040515f90339083908381818185875af1925050503d805f8114613150576040519150601f19603f3d011682016040523d82523d5f602084013e613155565b606091505b50509050806131765760405162461bcd60e51b81526004016108e690613f71565b604051828152339088907fa3097d366dbda72a300109ce4eb4df25c8b2709e0b539bcfaf91102fff0e817490602001610bed565b5f828152600660205260408120548391036131d75760405162461bcd60e51b81526004016108e690613d8d565b601054156131f75760405162461bcd60e51b81526004016108e690613dbc565b60016010555f8381526006602081905260409091209081015460ff1661322f5760405162461bcd60e51b81526004016108e690613df3565b82516020840120604051613247906007840190613e58565b6040518091039020146132925760405162461bcd60e51b81526020600482015260136024820152724e6f742077696e6e696e67206f7574636f6d6560681b60448201526064016108e6565b5f84815260086020908152604080832033845290915280822090516132b8908690613eca565b90815260405190819003602001902080549091506001600160a01b031633146133175760405162461bcd60e51b8152602060048201526011602482015270139bc81c1bdcda5d1a5bdb88199bdd5b99607a1b60448201526064016108e6565b5f81600201541161335f5760405162461bcd60e51b81526020600482015260126024820152714e6f2073686172657320746f20636c61696d60701b60448201526064016108e6565b5f858152600960209081526040808320338452909152902054806133955760405162461bcd60e51b81526004016108e690613ee5565b80600f5410156133b75760405162461bcd60e51b81526004016108e690613f13565b5f8681526009602090815260408083203384529091528120819055600f80548392906133e4908490613f5e565b90915550506040515f90339083908381818185875af1925050503d805f8114613428576040519150601f19603f3d011682016040523d82523d5f602084013e61342d565b606091505b505090508061344e5760405162461bcd60e51b81526004016108e690613f71565b336001600160a01b0316877fb293892389f4a468a51fa597d7cd2627d3fa920ae52f4843616707f64a8041768885604051610bed9291906142b3565b5f838152600660205260408120548491036134b75760405162461bcd60e51b81526004016108e690613d8d565b601054156134d75760405162461bcd60e51b81526004016108e690613dbc565b60016010555f848152600660205260408120906001820154610100900460ff16600381111561350857613508613c95565b14806135305750600180820154610100900460ff16600381111561352e5761352e613c95565b145b61354c5760405162461bcd60e51b81526004016108e69061400b565b5f8581526008602090815260408083203384529091528082209051613572908790613eca565b90815260405190819003602001902080549091506001600160a01b031633146135d15760405162461bcd60e51b8152602060048201526011602482015270139bc81c1bdcda5d1a5bdb88199bdd5b99607a1b60448201526064016108e6565b838160020154101561361b5760405162461bcd60e51b8152602060048201526013602482015272496e73756666696369656e742073686172657360681b60448201526064016108e6565b5f8083600501541161363d57600283015461363890612710614044565b61367a565b826005015483600301876040516136549190613eca565b9081526020016040518091039020546127106136709190614063565b61367a9190614044565b90505f61271061368a8388614063565b6136949190614044565b90508084600301886040516136a99190613eca565b90815260200160405180910390205f8282546136c59190613f5e565b9250508190555080846005015f8282546136df9190613f5e565b925050819055508584600401886040516136f99190613eca565b90815260200160405180910390205f8282546137159190613f5e565b9250508190555085836002015f82825461372f9190613f5e565b90915550506002830154613744908790613ff8565b60038401546137539083614063565b61375d9190614044565b836003015f82825461376f9190613f5e565b9091555050600f548111156137965760405162461bcd60e51b81526004016108e690613f13565b80600f5f8282546137a79190613f5e565b90915550506040515f90339083908381818185875af1925050503d805f81146137eb576040519150601f19603f3d011682016040523d82523d5f602084013e6137f0565b606091505b50509050806138115760405162461bcd60e51b81526004016108e690613f71565b336001600160a01b0316897f2136d4ee254f7d800aae52b9b653ccd229ae15988bf2d1371a31db50132a69e98a8a8660405161384f939291906142d4565b60405180910390a350505f60105550505050505050565b634e487b7160e01b5f52604160045260245ffd5b604051601f8201601f1916810167ffffffffffffffff811182821017156138a3576138a3613866565b604052919050565b5f82601f8301126138ba575f80fd5b813567ffffffffffffffff8111156138d4576138d4613866565b6138e7601f8201601f191660200161387a565b8181528460208386010111156138fb575f80fd5b816020850160208301375f918101602001919091529392505050565b5f8060408385031215613928575f80fd5b82359150602083013567ffffffffffffffff811115613945575f80fd5b613951858286016138ab565b9150509250929050565b6001600160a01b038116811461396f575f80fd5b50565b5f8060408385031215613983575f80fd5b8235915060208301356139958161395b565b809150509250929050565b5f602082840312156139b0575f80fd5b81356139bb8161395b565b9392505050565b5f805f606084860312156139d4575f80fd5b8335925060208401356139e68161395b565b9150604084013567ffffffffffffffff811115613a01575f80fd5b613a0d868287016138ab565b9150509250925092565b5f5b83811015613a31578181015183820152602001613a19565b50505f910152565b5f8151808452613a50816020860160208601613a17565b601f01601f19169290920160200192915050565b6001600160a01b03851681526080602082018190525f90613a8790830186613a39565b6040830194909452506060015292915050565b5f805f60608486031215613aac575f80fd5b833592506020840135613abe8161395b565b929592945050506040919091013590565b5f8060408385031215613ae0575f80fd5b8235613aeb8161395b565b946020939093013593505050565b5f805f60608486031215613b0b575f80fd5b83359250602084013567ffffffffffffffff811115613b28575f80fd5b613b34868287016138ab565b925050604084013590509250925092565b5f8060408385031215613b56575f80fd5b82359150602083013560048110613995575f80fd5b5f805f8060808587031215613b7e575f80fd5b5050823594602084013594506040840135936060013592509050565b80358015158114613ba9575f80fd5b919050565b5f8060408385031215613bbf575f80fd5b613bc883613b9a565b915060208084013567ffffffffffffffff80821115613be5575f80fd5b818601915086601f830112613bf8575f80fd5b813581811115613c0a57613c0a613866565b8060051b613c1985820161387a565b918252838101850191858101908a841115613c32575f80fd5b86860192505b83831015613c6d57823585811115613c4f575f8081fd5b613c5d8c89838a01016138ab565b8352509186019190860190613c38565b809750505050505050509250929050565b5f60208284031215613c8e575f80fd5b5035919050565b634e487b7160e01b5f52602160045260245ffd5b60048110613cc557634e487b7160e01b5f52602160045260245ffd5b9052565b5f6101008a83528915156020840152613ce5604084018a613ca9565b87606084015286151560808401528060a0840152613d0581840187613a39565b60c0840195909552505060e001529695505050505050565b60018060a01b038716815285602082015260c060408201525f613d4360c0830187613a39565b6060830195909552506080810192909252151560a0909101529392505050565b5f8060408385031215613d74575f80fd5b82359150613d8460208401613b9a565b90509250929050565b60208082526015908201527413585c9ad95d08191bd95cc81b9bdd08195e1a5cdd605a1b604082015260600190565b6020808252601f908201527f5265656e7472616e637947756172643a207265656e7472616e742063616c6c00604082015260600190565b60208082526013908201527213585c9ad95d081b9bdd081c995cdbdb1d9959606a1b604082015260600190565b600181811c90821680613e3457607f821691505b602082108103613e5257634e487b7160e01b5f52602260045260245ffd5b50919050565b5f808354613e6581613e20565b60018281168015613e7d5760018114613e9257613ebe565b60ff1984168752821515830287019450613ebe565b875f526020805f205f5b85811015613eb55781548a820152908401908201613e9c565b50505082870194505b50929695505050505050565b5f8251613edb818460208701613a17565b9190910192915050565b6020808252601490820152734e6f20636c61696d61626c652062616c616e636560601b604082015260600190565b60208082526017908201527f496e73756666696369656e7420636c61696d20706f6f6c000000000000000000604082015260600190565b634e487b7160e01b5f52601160045260245ffd5b8181038181111561180057611800613f4a565b6020808252600f908201526e151c985b9cd9995c8819985a5b1959608a1b604082015260600190565b6020808252600d908201526c27b7363c903232b83637bcb2b960991b604082015260600190565b6020808252601d908201527f416d6f756e74206d7573742062652067726561746572207468616e2030000000604082015260600190565b8082018082111561180057611800613f4a565b6020808252601190820152704d61726b6574206e6f742061637469766560781b604082015260600190565b602081016118008284613ca9565b5f8261405e57634e487b7160e01b5f52601260045260245ffd5b500490565b808202811582820484141761180057611800613f4a565b602080825260119082015270125b9d985b1a59081c9958da5c1a595b9d607a1b604082015260600190565b60208082526017908201527f43616e6e6f742073656e6420746f20636f6e7472616374000000000000000000604082015260600190565b6020808252601d908201527f496e73756666696369656e7420636f6e74726163742062616c616e6365000000604082015260600190565b5f6001820161412457614124613f4a565b5060010190565b634e487b7160e01b5f52603260045260245ffd5b601f821115614188575f81815260208120601f850160051c810160208610156141655750805b601f850160051c820191505b8181101561418457828155600101614171565b5050505b505050565b815167ffffffffffffffff8111156141a7576141a7613866565b6141bb816141b58454613e20565b8461413f565b602080601f8311600181146141ee575f84156141d75750858301515b5f19600386901b1c1916600185901b178555614184565b5f85815260208120601f198616915b8281101561421c578886015182559484019460019091019084016141fd565b508582101561423957878501515f19600388901b60f8161c191681555b5050505050600190811b01905550565b5f604082018415158352602060408185015281855180845260608601915060608160051b87010193508287015f5b828110156142a557605f19888703018452614293868351613a39565b95509284019290840190600101614277565b509398975050505050505050565b604081525f6142c56040830185613a39565b90508260208301529392505050565b606081525f6142e66060830186613a39565b60208301949094525060400152919050565b602081525f6139bb6020830184613a3956fea26469706673582212208ffcc45f61b75953a54d7f539a25de5a418c4686d6a4964d823423a869184db264736f6c63430008140033",
  "immutableReferences": {},
  "source": "// SPDX-License-Identifier: MIT\r\npragma solidity ^0.8.19;\r\n\r\n/**\r\n * @title WeRgame\r\n * @dev Comprehensive smart contract for prediction market platform\r\n * Handles market creation, trading, boost predictions, and jackpot management\r\n */\r\ncontract WeRgame {\r\n    address public deployer;\r\n    address public superAdmin;\r\n    \r\n    // Fee structure (in basis points, 10000 = 100%)\r\n    uint256 public platformFee; // For boost predictions\r\n    uint256 public boostJackpotFee;\r\n    uint256 public marketPlatformFee;\r\n    uint256 public freeJackpotFee;\r\n    \r\n    // Market status enum\r\n    enum MarketStatus {\r\n        Upcoming,\r\n        Active,\r\n        Locked,\r\n        Resolved\r\n    }\r\n    \r\n    // Market structure\r\n    struct Market {\r\n        uint256 marketId;\r\n        bool isPoll; // true for poll, false for match\r\n        MarketStatus status;\r\n        string[] options; // Options/outcomes for this market\r\n        mapping(string => uint256) liquidity; // Liquidity per option\r\n        mapping(string => uint256) shares; // Total shares per option\r\n        uint256 totalLiquidity;\r\n        bool resolved;\r\n        string winningOption; // Set when resolved\r\n        uint256 createdAt;\r\n        uint256 resolvedAt;\r\n    }\r\n    \r\n    // Boost prediction structure\r\n    struct BoostPrediction {\r\n        address user;\r\n        uint256 marketId;\r\n        string outcome;\r\n        uint256 stakeAmount;\r\n        uint256 totalStake;\r\n        bool claimed;\r\n    }\r\n    \r\n    // Market trading position\r\n    struct MarketPosition {\r\n        address user;\r\n        string outcome;\r\n        uint256 shares;\r\n        uint256 totalInvested;\r\n    }\r\n    \r\n    // Mappings\r\n    mapping(uint256 => Market) public markets;\r\n    mapping(uint256 => mapping(address => mapping(string => BoostPrediction))) public boostPredictions; // marketId => user => outcome => prediction\r\n    mapping(uint256 => mapping(address => mapping(string => MarketPosition))) public marketPositions; // marketId => user => outcome => position\r\n    mapping(uint256 => mapping(address => uint256)) public claimableBalances; // marketId => user => claimable amount (legacy/total)\r\n    mapping(uint256 => mapping(address => uint256)) public claimableBoost;    // marketId => user => boost claimable\r\n    mapping(uint256 => mapping(address => uint256)) public claimableMarket;  // marketId => user => market claimable\r\n    mapping(address => uint256) public jackpotBalances; // user => jackpot balance\r\n    \r\n    uint256 public nextMarketId;\r\n    uint256 public jackpotPool;\r\n    /// @dev Pool for paying Boost and Market prediction wins; funded by deployer and by boost stakes\r\n    uint256 public claimPredictionWinsPool;\r\n    \r\n    // Events\r\n    event MarketCreated(uint256 indexed marketId, bool isPoll, string[] options);\r\n    event MarketStatusUpdated(uint256 indexed marketId, MarketStatus status);\r\n    event MarketResolved(uint256 indexed marketId, string winningOption);\r\n    event LiquidityAdded(uint256 indexed marketId, string option, uint256 amount);\r\n    event FeesUpdated(uint256 platformFee, uint256 boostJackpotFee, uint256 marketPlatformFee, uint256 freeJackpotFee);\r\n    event BoostStaked(uint256 indexed marketId, address indexed user, string outcome, uint256 amount);\r\n    event BoostStakeAdded(uint256 indexed marketId, address indexed user, uint256 amount);\r\n    event BoostStakeWithdrawn(uint256 indexed marketId, address indexed user, uint256 amount);\r\n    event BoostClaimed(uint256 indexed marketId, address indexed user, uint256 amount);\r\n    event MarketBought(uint256 indexed marketId, address indexed user, string outcome, uint256 ethAmount, uint256 shares);\r\n    event MarketSold(uint256 indexed marketId, address indexed user, string outcome, uint256 shares, uint256 ethAmount);\r\n    event MarketClaimed(uint256 indexed marketId, address indexed user, string outcome, uint256 amount);\r\n    event JackpotFunded(uint256 amount);\r\n    event JackpotWithdrawn(address indexed user, uint256 amount);\r\n    event JackpotPoolWithdrawn(address indexed to, uint256 amount);\r\n    event FundsTransferred(address indexed to, uint256 amount);\r\n    event ClaimPredictionWinsPoolFunded(uint256 amount);\r\n    event ClaimPredictionWinsPoolWithdrawn(address indexed to, uint256 amount);\r\n    event PredictionWinsClaimed(uint256 indexed marketId, address indexed user, uint256 amount);\r\n    \r\n    modifier onlyDeployer() {\r\n        require(msg.sender == deployer, \"Only deployer\");\r\n        _;\r\n    }\r\n    \r\n    modifier onlySuperAdmin() {\r\n        require(msg.sender == superAdmin || msg.sender == deployer, \"Only superAdmin\");\r\n        _;\r\n    }\r\n    \r\n    modifier validMarket(uint256 marketId) {\r\n        require(markets[marketId].marketId != 0, \"Market does not exist\");\r\n        _;\r\n    }\r\n    \r\n    uint256 private _locked = 0;\r\n    modifier nonReentrant() {\r\n        require(_locked == 0, \"ReentrancyGuard: reentrant call\");\r\n        _locked = 1;\r\n        _;\r\n        _locked = 0;\r\n    }\r\n    \r\n    constructor() {\r\n        deployer = msg.sender;\r\n        superAdmin = msg.sender;\r\n        \r\n        // Default fees (in basis points: 1000 = 10%, 500 = 5%)\r\n        platformFee = 1000; // 10%\r\n        boostJackpotFee = 500; // 5%\r\n        marketPlatformFee = 500; // 5%\r\n        freeJackpotFee = 500; // 5%\r\n        \r\n        nextMarketId = 1;\r\n    }\r\n    \r\n    /**\r\n     * @dev Create a new market (match or poll)\r\n     * @param isPoll true if poll, false if match\r\n     * @param options array of outcome options\r\n     */\r\n    function createMarket(bool isPoll, string[] memory options) external onlyDeployer returns (uint256) {\r\n        require(options.length >= 2, \"Must have at least 2 options\");\r\n        \r\n        uint256 marketId = nextMarketId++;\r\n        Market storage market = markets[marketId];\r\n        market.marketId = marketId;\r\n        market.isPoll = isPoll;\r\n        market.status = MarketStatus.Upcoming;\r\n        market.createdAt = block.timestamp;\r\n        \r\n        // Initialize options\r\n        for (uint256 i = 0; i < options.length; i++) {\r\n            market.options.push(options[i]);\r\n            market.liquidity[options[i]] = 0;\r\n            market.shares[options[i]] = 0;\r\n        }\r\n        \r\n        emit MarketCreated(marketId, isPoll, options);\r\n        return marketId;\r\n    }\r\n    \r\n    /**\r\n     * @dev Update market status\r\n     */\r\n    function updateMarketStatus(uint256 marketId, MarketStatus status) external onlyDeployer validMarket(marketId) {\r\n        markets[marketId].status = status;\r\n        emit MarketStatusUpdated(marketId, status);\r\n    }\r\n    \r\n    /**\r\n     * @dev Add initial liquidity to a market option\r\n     */\r\n    function addLiquidity(uint256 marketId, string memory option, uint256 amount) external payable onlyDeployer validMarket(marketId) {\r\n        require(msg.value >= amount, \"Insufficient ETH sent\");\r\n        require(msg.value > 0, \"Amount must be greater than 0\");\r\n        \r\n        Market storage market = markets[marketId];\r\n        require(market.status == MarketStatus.Upcoming || market.status == MarketStatus.Active, \"Market not active\");\r\n        \r\n        // Verify option exists\r\n        bool optionExists = false;\r\n        for (uint256 i = 0; i < market.options.length; i++) {\r\n            if (keccak256(bytes(market.options[i])) == keccak256(bytes(option))) {\r\n                optionExists = true;\r\n                break;\r\n            }\r\n        }\r\n        require(optionExists, \"Invalid option\");\r\n        \r\n        market.liquidity[option] += amount;\r\n        market.totalLiquidity += amount;\r\n        \r\n        emit LiquidityAdded(marketId, option, amount);\r\n    }\r\n    \r\n    /**\r\n     * @dev Resolve a market\r\n     */\r\n    function resolveMarket(uint256 marketId, string memory winningOption) external onlyDeployer validMarket(marketId) {\r\n        Market storage market = markets[marketId];\r\n        require(market.status != MarketStatus.Resolved, \"Already resolved\");\r\n        \r\n        // Verify option exists\r\n        bool optionExists = false;\r\n        for (uint256 i = 0; i < market.options.length; i++) {\r\n            if (keccak256(bytes(market.options[i])) == keccak256(bytes(winningOption))) {\r\n                optionExists = true;\r\n                break;\r\n            }\r\n        }\r\n        require(optionExists, \"Invalid winning option\");\r\n        \r\n        market.status = MarketStatus.Resolved;\r\n        market.resolved = true;\r\n        market.winningOption = winningOption;\r\n        market.resolvedAt = block.timestamp;\r\n        \r\n        emit MarketResolved(marketId, winningOption);\r\n    }\r\n    \r\n    /**\r\n     * @dev Set fees (in basis points)\r\n     */\r\n    function setFees(\r\n        uint256 _platformFee,\r\n        uint256 _boostJackpotFee,\r\n        uint256 _marketPlatformFee,\r\n        uint256 _freeJackpotFee\r\n    ) external onlySuperAdmin {\r\n        require(_platformFee <= 10000 && _boostJackpotFee <= 10000 && \r\n                _marketPlatformFee <= 10000 && _freeJackpotFee <= 10000, \"Fees cannot exceed 100%\");\r\n        \r\n        platformFee = _platformFee;\r\n        boostJackpotFee = _boostJackpotFee;\r\n        marketPlatformFee = _marketPlatformFee;\r\n        freeJackpotFee = _freeJackpotFee;\r\n        \r\n        emit FeesUpdated(_platformFee, _boostJackpotFee, _marketPlatformFee, _freeJackpotFee);\r\n    }\r\n    \r\n    /**\r\n     * @dev Get current fees\r\n     */\r\n    function getFees() external view returns (\r\n        uint256 _platformFee,\r\n        uint256 _boostJackpotFee,\r\n        uint256 _marketPlatformFee,\r\n        uint256 _freeJackpotFee\r\n    ) {\r\n        return (platformFee, boostJackpotFee, marketPlatformFee, freeJackpotFee);\r\n    }\r\n    \r\n    /**\r\n     * @dev Stake ETH for boost prediction\r\n     */\r\n    function stakeBoost(uint256 marketId, string memory outcome) external payable validMarket(marketId) {\r\n        require(msg.value > 0, \"Amount must be greater than 0\");\r\n        Market storage market = markets[marketId];\r\n        require(market.status == MarketStatus.Upcoming || market.status == MarketStatus.Active, \"Market not active\");\r\n        \r\n        // Verify option exists\r\n        bool optionExists = false;\r\n        for (uint256 i = 0; i < market.options.length; i++) {\r\n            if (keccak256(bytes(market.options[i])) == keccak256(bytes(outcome))) {\r\n                optionExists = true;\r\n                break;\r\n            }\r\n        }\r\n        require(optionExists, \"Invalid outcome\");\r\n        \r\n        // Calculate fees\r\n        uint256 platformFeeAmount = (msg.value * platformFee) / 10000;\r\n        uint256 boostJackpotFeeAmount = (msg.value * boostJackpotFee) / 10000;\r\n        uint256 netStake = msg.value - platformFeeAmount - boostJackpotFeeAmount;\r\n        \r\n        // Update or create boost prediction\r\n        BoostPrediction storage prediction = boostPredictions[marketId][msg.sender][outcome];\r\n        if (prediction.user == address(0)) {\r\n            // New prediction\r\n            prediction.user = msg.sender;\r\n            prediction.marketId = marketId;\r\n            prediction.outcome = outcome;\r\n            prediction.stakeAmount = netStake;\r\n            prediction.totalStake = netStake;\r\n        } else {\r\n            // Update existing prediction\r\n            prediction.totalStake += netStake;\r\n        }\r\n        \r\n        // Boost stakes fund the claim prediction wins pool\r\n        claimPredictionWinsPool += msg.value;\r\n        \r\n        emit BoostStaked(marketId, msg.sender, outcome, netStake);\r\n    }\r\n    \r\n    /**\r\n     * @dev Add more stake to existing boost prediction\r\n     */\r\n    function addBoostStake(uint256 marketId, string memory outcome) external payable validMarket(marketId) {\r\n        require(msg.value > 0, \"Amount must be greater than 0\");\r\n        Market storage market = markets[marketId];\r\n        require(market.status == MarketStatus.Upcoming || market.status == MarketStatus.Active, \"Market not active\");\r\n        \r\n        BoostPrediction storage prediction = boostPredictions[marketId][msg.sender][outcome];\r\n        require(prediction.user == msg.sender, \"No existing prediction\");\r\n        \r\n        // Calculate fees\r\n        uint256 platformFeeAmount = (msg.value * platformFee) / 10000;\r\n        uint256 boostJackpotFeeAmount = (msg.value * boostJackpotFee) / 10000;\r\n        uint256 netStake = msg.value - platformFeeAmount - boostJackpotFeeAmount;\r\n        \r\n        prediction.totalStake += netStake;\r\n        \r\n        // Additional boost stake funds the claim prediction wins pool\r\n        claimPredictionWinsPool += msg.value;\r\n        \r\n        emit BoostStakeAdded(marketId, msg.sender, netStake);\r\n    }\r\n    \r\n    /**\r\n     * @dev Withdraw stake from boost prediction (only before resolution)\r\n     */\r\n    function withdrawBoostStake(uint256 marketId, string memory outcome, uint256 amount) external validMarket(marketId) nonReentrant {\r\n        Market storage market = markets[marketId];\r\n        require(market.status == MarketStatus.Upcoming || market.status == MarketStatus.Active, \"Market not active\");\r\n        \r\n        BoostPrediction storage prediction = boostPredictions[marketId][msg.sender][outcome];\r\n        require(prediction.user == msg.sender, \"No prediction found\");\r\n        require(prediction.totalStake >= amount, \"Insufficient stake\");\r\n        \r\n        prediction.totalStake -= amount;\r\n        require(claimPredictionWinsPool >= amount, \"Insufficient claim pool\");\r\n        claimPredictionWinsPool -= amount;\r\n        \r\n        // Transfer ETH back to user\r\n        (bool success, ) = payable(msg.sender).call{value: amount}(\"\");\r\n        require(success, \"Transfer failed\");\r\n        \r\n        emit BoostStakeWithdrawn(marketId, msg.sender, amount);\r\n    }\r\n    \r\n    /**\r\n     * @dev Claim boost prediction winnings\r\n     */\r\n    function claimBoost(uint256 marketId, string memory outcome) external validMarket(marketId) nonReentrant {\r\n        Market storage market = markets[marketId];\r\n        require(market.resolved, \"Market not resolved\");\r\n        require(keccak256(bytes(market.winningOption)) == keccak256(bytes(outcome)), \"Not winning outcome\");\r\n        \r\n        BoostPrediction storage prediction = boostPredictions[marketId][msg.sender][outcome];\r\n        require(prediction.user == msg.sender, \"No prediction found\");\r\n        require(!prediction.claimed, \"Already claimed\");\r\n        require(prediction.totalStake > 0, \"No stake to claim\");\r\n        \r\n        // Calculate claimable amount (backend will set this via setClaimableBalance)\r\n        uint256 claimable = claimableBalances[marketId][msg.sender];\r\n        require(claimable > 0, \"No claimable balance\");\r\n        require(claimPredictionWinsPool >= claimable, \"Insufficient claim pool\");\r\n        \r\n        prediction.claimed = true;\r\n        claimableBalances[marketId][msg.sender] = 0;\r\n        claimPredictionWinsPool -= claimable;\r\n        \r\n        // Transfer winnings\r\n        (bool success, ) = payable(msg.sender).call{value: claimable}(\"\");\r\n        require(success, \"Transfer failed\");\r\n        \r\n        emit BoostClaimed(marketId, msg.sender, claimable);\r\n    }\r\n    \r\n    /**\r\n     * @dev Set claimable balance for a user (legacy; prefer setClaimableBoost/setClaimableMarket)\r\n     */\r\n    function setClaimableBalance(uint256 marketId, address user, uint256 amount) external onlyDeployer {\r\n        claimableBalances[marketId][user] = amount;\r\n    }\r\n    \r\n    /**\r\n     * @dev Set claimable boost amount for a user (called after resolution).\r\n     */\r\n    function setClaimableBoost(uint256 marketId, address user, uint256 amount) external onlyDeployer {\r\n        claimableBoost[marketId][user] = amount;\r\n    }\r\n    \r\n    /**\r\n     * @dev Set claimable market amount for a user (called after resolution).\r\n     */\r\n    function setClaimableMarket(uint256 marketId, address user, uint256 amount) external onlyDeployer {\r\n        claimableMarket[marketId][user] = amount;\r\n    }\r\n    \r\n    /**\r\n     * @dev Claim prediction winnings (Boost or Market) for a resolved market.\r\n     * @param marketId Market id\r\n     * @param isBoost true to claim boost winnings, false to claim market winnings. Pays from claimPredictionWinsPool.\r\n     */\r\n    function claimPredictionWins(uint256 marketId, bool isBoost) external validMarket(marketId) nonReentrant {\r\n        Market storage market = markets[marketId];\r\n        require(market.resolved, \"Market not resolved\");\r\n        \r\n        string memory winningOption = market.winningOption;\r\n        uint256 amount;\r\n        \r\n        if (isBoost) {\r\n            amount = claimableBoost[marketId][msg.sender];\r\n            require(amount > 0, \"No claimable balance\");\r\n            BoostPrediction storage boostPred = boostPredictions[marketId][msg.sender][winningOption];\r\n            require(boostPred.user == msg.sender && boostPred.totalStake > 0 && !boostPred.claimed, \"Not a participant\");\r\n            require(claimPredictionWinsPool >= amount, \"Insufficient claim pool\");\r\n            claimableBoost[marketId][msg.sender] = 0;\r\n            boostPred.claimed = true;\r\n        } else {\r\n            amount = claimableMarket[marketId][msg.sender];\r\n            require(amount > 0, \"No claimable balance\");\r\n            MarketPosition storage pos = marketPositions[marketId][msg.sender][winningOption];\r\n            require(pos.user == msg.sender && pos.shares > 0, \"Not a participant\");\r\n            require(claimPredictionWinsPool >= amount, \"Insufficient claim pool\");\r\n            claimableMarket[marketId][msg.sender] = 0;\r\n        }\r\n        \r\n        claimPredictionWinsPool -= amount;\r\n        (bool success, ) = payable(msg.sender).call{value: amount}(\"\");\r\n        require(success, \"Transfer failed\");\r\n        emit PredictionWinsClaimed(marketId, msg.sender, amount);\r\n    }\r\n    \r\n    /**\r\n     * @dev Fund the claim prediction wins pool (deployer only).\r\n     */\r\n    function fundClaimPredictionWinsPool() external payable onlyDeployer {\r\n        require(msg.value > 0, \"Amount must be greater than 0\");\r\n        claimPredictionWinsPool += msg.value;\r\n        emit ClaimPredictionWinsPoolFunded(msg.value);\r\n    }\r\n    \r\n    /**\r\n     * @dev Withdraw from claim prediction wins pool (deployer only).\r\n     */\r\n    function withdrawFromClaimPredictionWinsPool(address payable to, uint256 amount) external onlyDeployer nonReentrant {\r\n        require(to != address(0), \"Invalid recipient\");\r\n        require(to != address(this), \"Cannot send to contract\");\r\n        require(amount > 0, \"Amount must be greater than 0\");\r\n        require(claimPredictionWinsPool >= amount, \"Insufficient pool balance\");\r\n        require(address(this).balance >= amount, \"Insufficient contract balance\");\r\n        claimPredictionWinsPool -= amount;\r\n        (bool success, ) = to.call{value: amount}(\"\");\r\n        require(success, \"Transfer failed\");\r\n        emit ClaimPredictionWinsPoolWithdrawn(to, amount);\r\n    }\r\n    \r\n    /**\r\n     * @dev Buy shares in market (fixed-sum AMM)\r\n     */\r\n    function buyMarketShares(uint256 marketId, string memory outcome) external payable validMarket(marketId) {\r\n        require(msg.value > 0, \"Amount must be greater than 0\");\r\n        Market storage market = markets[marketId];\r\n        require(market.status == MarketStatus.Upcoming || market.status == MarketStatus.Active, \"Market not active\");\r\n        \r\n        // Verify option exists\r\n        bool optionExists = false;\r\n        for (uint256 i = 0; i < market.options.length; i++) {\r\n            if (keccak256(bytes(market.options[i])) == keccak256(bytes(outcome))) {\r\n                optionExists = true;\r\n                break;\r\n            }\r\n        }\r\n        require(optionExists, \"Invalid outcome\");\r\n        \r\n        // Calculate fees\r\n        uint256 platformFeeAmount = (msg.value * marketPlatformFee) / 10000;\r\n        uint256 freeJackpotFeeAmount = (msg.value * freeJackpotFee) / 10000;\r\n        uint256 netAmount = msg.value - platformFeeAmount - freeJackpotFeeAmount;\r\n        \r\n        // Calculate current price (liquidity / total liquidity)\r\n        uint256 currentPrice = market.totalLiquidity > 0 \r\n            ? (market.liquidity[outcome] * 10000) / market.totalLiquidity \r\n            : (10000 / market.options.length); // Equal distribution if no liquidity\r\n        \r\n        // Calculate shares received\r\n        uint256 shares = (netAmount * 10000) / currentPrice;\r\n        \r\n        // Update liquidity (fixed-sum AMM: buying increases selected option's liquidity)\r\n        market.liquidity[outcome] += netAmount;\r\n        market.totalLiquidity += netAmount;\r\n        market.shares[outcome] += shares;\r\n        \r\n        // Update user position\r\n        MarketPosition storage position = marketPositions[marketId][msg.sender][outcome];\r\n        if (position.user == address(0)) {\r\n            position.user = msg.sender;\r\n            position.outcome = outcome;\r\n        }\r\n        position.shares += shares;\r\n        position.totalInvested += netAmount;\r\n        \r\n        // Market buys fund the claim prediction wins pool\r\n        claimPredictionWinsPool += msg.value;\r\n        \r\n        emit MarketBought(marketId, msg.sender, outcome, netAmount, shares);\r\n    }\r\n    \r\n    /**\r\n     * @dev Sell shares in market\r\n     */\r\n    function sellMarketShares(uint256 marketId, string memory outcome, uint256 shares) external validMarket(marketId) nonReentrant {\r\n        Market storage market = markets[marketId];\r\n        require(market.status == MarketStatus.Upcoming || market.status == MarketStatus.Active, \"Market not active\");\r\n        \r\n        MarketPosition storage position = marketPositions[marketId][msg.sender][outcome];\r\n        require(position.user == msg.sender, \"No position found\");\r\n        require(position.shares >= shares, \"Insufficient shares\");\r\n        \r\n        // Calculate current price\r\n        uint256 currentPrice = market.totalLiquidity > 0 \r\n            ? (market.liquidity[outcome] * 10000) / market.totalLiquidity \r\n            : (10000 / market.options.length);\r\n        \r\n        // Calculate payout\r\n        uint256 payout = (shares * currentPrice) / 10000;\r\n        \r\n        // Update liquidity (selling decreases selected option's liquidity)\r\n        market.liquidity[outcome] -= payout;\r\n        market.totalLiquidity -= payout;\r\n        market.shares[outcome] -= shares;\r\n        \r\n        // Update user position\r\n        position.shares -= shares;\r\n        position.totalInvested -= (payout * position.totalInvested) / (position.shares + shares);\r\n        \r\n        // Deduct from claim prediction wins pool when user sells (pool was credited on buy)\r\n        require(claimPredictionWinsPool >= payout, \"Insufficient claim pool\");\r\n        claimPredictionWinsPool -= payout;\r\n        \r\n        // Transfer ETH to user\r\n        (bool success, ) = payable(msg.sender).call{value: payout}(\"\");\r\n        require(success, \"Transfer failed\");\r\n        \r\n        emit MarketSold(marketId, msg.sender, outcome, shares, payout);\r\n    }\r\n    \r\n    /**\r\n     * @dev Claim market winnings after resolution\r\n     */\r\n    function claimMarket(uint256 marketId, string memory outcome) external validMarket(marketId) nonReentrant {\r\n        Market storage market = markets[marketId];\r\n        require(market.resolved, \"Market not resolved\");\r\n        require(keccak256(bytes(market.winningOption)) == keccak256(bytes(outcome)), \"Not winning outcome\");\r\n        \r\n        MarketPosition storage position = marketPositions[marketId][msg.sender][outcome];\r\n        require(position.user == msg.sender, \"No position found\");\r\n        require(position.shares > 0, \"No shares to claim\");\r\n        \r\n        // Calculate claimable amount (backend will set this)\r\n        uint256 claimable = claimableBalances[marketId][msg.sender];\r\n        require(claimable > 0, \"No claimable balance\");\r\n        require(claimPredictionWinsPool >= claimable, \"Insufficient claim pool\");\r\n        \r\n        claimableBalances[marketId][msg.sender] = 0;\r\n        claimPredictionWinsPool -= claimable;\r\n        \r\n        // Transfer winnings\r\n        (bool success, ) = payable(msg.sender).call{value: claimable}(\"\");\r\n        require(success, \"Transfer failed\");\r\n        \r\n        emit MarketClaimed(marketId, msg.sender, outcome, claimable);\r\n    }\r\n    \r\n    /**\r\n     * @dev Get current price for an option (in basis points)\r\n     */\r\n    function getPrice(uint256 marketId, string memory outcome) external view validMarket(marketId) returns (uint256) {\r\n        Market storage market = markets[marketId];\r\n        if (market.totalLiquidity == 0) {\r\n            return (10000 / market.options.length);\r\n        }\r\n        return (market.liquidity[outcome] * 10000) / market.totalLiquidity;\r\n    }\r\n    \r\n    /**\r\n     * @dev Get user's market position\r\n     */\r\n    function getUserPosition(uint256 marketId, address user, string memory outcome) external view validMarket(marketId) returns (uint256 shares, uint256 totalInvested) {\r\n        MarketPosition storage position = marketPositions[marketId][user][outcome];\r\n        return (position.shares, position.totalInvested);\r\n    }\r\n    \r\n    /**\r\n     * @dev Get user's boost prediction\r\n     */\r\n    function getBoostPrediction(uint256 marketId, address user, string memory outcome) external view validMarket(marketId) returns (\r\n        address _user,\r\n        uint256 _totalStake,\r\n        bool _claimed\r\n    ) {\r\n        BoostPrediction storage prediction = boostPredictions[marketId][user][outcome];\r\n        return (prediction.user, prediction.totalStake, prediction.claimed);\r\n    }\r\n    \r\n    /**\r\n     * @dev Fund jackpot pool (deployer only)\r\n     */\r\n    function fundJackpotPool() external payable onlyDeployer {\r\n        require(msg.value > 0, \"Amount must be greater than 0\");\r\n        jackpotPool += msg.value;\r\n        emit JackpotFunded(msg.value);\r\n    }\r\n    \r\n    /**\r\n     * @dev User withdraw from jackpot pool\r\n     */\r\n    function withdrawJackpot(uint256 amount) external nonReentrant {\r\n        require(amount > 0, \"Amount must be greater than 0\");\r\n        require(jackpotPool >= amount, \"Insufficient jackpot pool\");\r\n        require(jackpotBalances[msg.sender] >= amount, \"Insufficient balance\");\r\n        \r\n        jackpotBalances[msg.sender] -= amount;\r\n        jackpotPool -= amount;\r\n        \r\n        (bool success, ) = payable(msg.sender).call{value: amount}(\"\");\r\n        require(success, \"Transfer failed\");\r\n        \r\n        emit JackpotWithdrawn(msg.sender, amount);\r\n    }\r\n    \r\n    /**\r\n     * @dev Set user's jackpot balance (called by backend)\r\n     */\r\n    function setJackpotBalance(address user, uint256 amount) external onlyDeployer {\r\n        jackpotBalances[user] = amount;\r\n    }\r\n    \r\n    /**\r\n     * @dev Withdraw from jackpot pool (deployer only)\r\n     */\r\n    function withdrawFromJackpotPool(address payable to, uint256 amount) external onlyDeployer nonReentrant {\r\n        require(to != address(0), \"Invalid recipient\");\r\n        require(to != address(this), \"Cannot send to contract\");\r\n        require(amount > 0, \"Amount must be greater than 0\");\r\n        require(jackpotPool >= amount, \"Insufficient pool balance\");\r\n        require(address(this).balance >= amount, \"Insufficient contract balance\");\r\n        jackpotPool -= amount;\r\n\r\n        (bool success, ) = to.call{value: amount}(\"\");\r\n        require(success, \"Transfer failed\");\r\n\r\n        emit JackpotPoolWithdrawn(to, amount);\r\n    }\r\n    \r\n    /**\r\n     * @dev Get contract balance\r\n     */\r\n    function getContractBalance() external view returns (uint256) {\r\n        return address(this).balance;\r\n    }\r\n    \r\n    /**\r\n     * @dev Transfer funds from contract (deployer only)\r\n     */\r\n    function transferFunds(address payable to, uint256 amount) external onlyDeployer {\r\n        require(to != address(0), \"Invalid recipient\");\r\n        require(to != address(this), \"Cannot send to contract\");\r\n        require(amount > 0, \"Amount must be greater than 0\");\r\n        require(address(this).balance >= amount, \"Insufficient contract balance\");\r\n\r\n        (bool success, ) = to.call{value: amount}(\"\");\r\n        require(success, \"Transfer failed\");\r\n\r\n        emit FundsTransferred(to, amount);\r\n    }\r\n    \r\n    /**\r\n     * @dev Set superAdmin address\r\n     */\r\n    function setSuperAdmin(address _superAdmin) external onlySuperAdmin {\r\n        require(_superAdmin != address(0), \"Invalid address\");\r\n        superAdmin = _superAdmin;\r\n    }\r\n    \r\n    /**\r\n     * @dev Get jackpot balance for user\r\n     */\r\n    function getJackpotBalance(address user) external view returns (uint256) {\r\n        return jackpotBalances[user];\r\n    }\r\n    \r\n    /**\r\n     * @dev Get claimable balance for user\r\n     */\r\n    function getClaimableBalance(uint256 marketId, address user) external view returns (uint256) {\r\n        return claimableBalances[marketId][user];\r\n    }\r\n    \r\n    // Receive ETH\r\n    receive() external payable {\r\n        // Allow contract to receive ETH\r\n    }\r\n    \r\n    fallback() external payable {\r\n        // Allow contract to receive ETH\r\n    }\r\n}\r\n",
  "sourcePath": "C:\\Users\\Tolu John\\Desktop\\startups\\wergame-platform\\smart-contract\\contracts\\WeRgame.sol",
  "compiler": {
    "name": "solc",
    "version": "0.8.20+commit.a1b79de6.Emscripten.clang"
  },
  "schemaVersion": "3.4.16",
  "updatedAt": "2026-03-04T18:01:12.222Z",
  "networkType": "ethereum",
  "devdoc": {
    "details": "Comprehensive smart contract for prediction market platform Handles market creation, trading, boost predictions, and jackpot management",
    "kind": "dev",
    "methods": {
      "addBoostStake(uint256,string)": {
        "details": "Add more stake to existing boost prediction"
      },
      "addLiquidity(uint256,string,uint256)": {
        "details": "Add initial liquidity to a market option"
      },
      "buyMarketShares(uint256,string)": {
        "details": "Buy shares in market (fixed-sum AMM)"
      },
      "claimBoost(uint256,string)": {
        "details": "Claim boost prediction winnings"
      },
      "claimMarket(uint256,string)": {
        "details": "Claim market winnings after resolution"
      },
      "claimPredictionWins(uint256,bool)": {
        "details": "Claim prediction winnings (Boost or Market) for a resolved market.",
        "params": {
          "isBoost": "true to claim boost winnings, false to claim market winnings. Pays from claimPredictionWinsPool.",
          "marketId": "Market id"
        }
      },
      "createMarket(bool,string[])": {
        "details": "Create a new market (match or poll)",
        "params": {
          "isPoll": "true if poll, false if match",
          "options": "array of outcome options"
        }
      },
      "fundClaimPredictionWinsPool()": {
        "details": "Fund the claim prediction wins pool (deployer only)."
      },
      "fundJackpotPool()": {
        "details": "Fund jackpot pool (deployer only)"
      },
      "getBoostPrediction(uint256,address,string)": {
        "details": "Get user's boost prediction"
      },
      "getClaimableBalance(uint256,address)": {
        "details": "Get claimable balance for user"
      },
      "getContractBalance()": {
        "details": "Get contract balance"
      },
      "getFees()": {
        "details": "Get current fees"
      },
      "getJackpotBalance(address)": {
        "details": "Get jackpot balance for user"
      },
      "getPrice(uint256,string)": {
        "details": "Get current price for an option (in basis points)"
      },
      "getUserPosition(uint256,address,string)": {
        "details": "Get user's market position"
      },
      "resolveMarket(uint256,string)": {
        "details": "Resolve a market"
      },
      "sellMarketShares(uint256,string,uint256)": {
        "details": "Sell shares in market"
      },
      "setClaimableBalance(uint256,address,uint256)": {
        "details": "Set claimable balance for a user (legacy; prefer setClaimableBoost/setClaimableMarket)"
      },
      "setClaimableBoost(uint256,address,uint256)": {
        "details": "Set claimable boost amount for a user (called after resolution)."
      },
      "setClaimableMarket(uint256,address,uint256)": {
        "details": "Set claimable market amount for a user (called after resolution)."
      },
      "setFees(uint256,uint256,uint256,uint256)": {
        "details": "Set fees (in basis points)"
      },
      "setJackpotBalance(address,uint256)": {
        "details": "Set user's jackpot balance (called by backend)"
      },
      "setSuperAdmin(address)": {
        "details": "Set superAdmin address"
      },
      "stakeBoost(uint256,string)": {
        "details": "Stake ETH for boost prediction"
      },
      "transferFunds(address,uint256)": {
        "details": "Transfer funds from contract (deployer only)"
      },
      "updateMarketStatus(uint256,uint8)": {
        "details": "Update market status"
      },
      "withdrawBoostStake(uint256,string,uint256)": {
        "details": "Withdraw stake from boost prediction (only before resolution)"
      },
      "withdrawFromClaimPredictionWinsPool(address,uint256)": {
        "details": "Withdraw from claim prediction wins pool (deployer only)."
      },
      "withdrawFromJackpotPool(address,uint256)": {
        "details": "Withdraw from jackpot pool (deployer only)"
      },
      "withdrawJackpot(uint256)": {
        "details": "User withdraw from jackpot pool"
      }
    },
    "stateVariables": {
      "claimPredictionWinsPool": {
        "details": "Pool for paying Boost and Market prediction wins; funded by deployer and by boost stakes"
      }
    },
    "title": "WeRgame",
    "version": 1
  },
  "userdoc": {
    "kind": "user",
    "methods": {},
    "version": 1
  }
}